:020000040800F2
:100000002034012079020008ED0D0008E90D0008F8
:10001000EB0D00082904000845100008000000004E
:10002000000000000000000000000000C101000806
:100030002B0400080000000015020008350E00081F
:10004000930200089302000893020008930200083C
:10005000930200089302000893020008930200082C
:10006000930200089302000893020008930200081C
:10007000930200089302000893020008930200080C
:1000800093020008930200089302000893020008FC
:1000900093020008930200089302000893020008EC
:1000A00093020008930200089302000893020008DC
:1000B00093020008930200089302000893020008CC
:1000C00093020008930200089302000893020008BC
:1000D00093020008930200089302000893020008AC
:1000E000930200089302000893020008930200089C
:1000F000930200089302000893020008930200088C
:10010000930200089302000893020008930200087B
:10011000930200089302000893020008930200086B
:10012000930200089302000893020008930200085B
:10013000930200089302000893020008930200084B
:10014000930200089302000893020008930200083B
:10015000930200089302000893020008930200082B
:10016000930200089302000893020008930200081B
:1001700093020008930200089302000800000000A8
:1001800093020008930200089302000893020008FB
:1001900093020008930200089302000893020008EB
:1001A000930200089302000893020008DFF80CD0C5
:1001B00000F0FEF800480047B91200082034012082
:1001C0002A4B19680868B0E8F04F80F30988BFF33C
:1001D0006F8F4FF0000080F311887047000000001F
:1001E00006480068006880F3088862B661B6BFF30D
:1001F0004F8FBFF36F8F00DF00BF00BF08ED00E03F
:10020000DFF80C00016841F470010160704700BF25
:1002100088ED00E0EFF30980BFF36F8F134B1A688E
:100220001EF0100F08BF20ED108A20E9F04F10607B
:1002300008B44FF0500080F31188BFF34F8FBFF325
:100240006F8F02F08FF84FF0000080F3118808BC28
:1002500019680868B0E8F04F1EF0100F08BFB0EC46
:10026000108A80F30988BFF36F8F70471C0000204D
:10027000EFF30580704700000648804706480047B6
:10028000FEE7FEE7FEE7FEE7FEE7FEE7FEE7FEE746
:10029000FEE7FEE7010F0008AD0100082DE9F05F61
:1002A0000546002092469B468846064681464024E5
:1002B0001BE0284641464746224600F069F853466F
:1002C0005A46C01A914110D311461846224600F0F2
:1002D00050F82D1A67EB01084F46224601200021F5
:1002E00000F047F817EB00094E41201EA4F101046D
:1002F000DFDC484631462A464346BDE8F09F40EAE7
:1003000001039B0703D009E008C9121F08C0042A93
:10031000FAD203E011F8013B00F8013B521EF9D27A
:100320007047D2B201E000F8012B491EFBD27047A2
:100330000022F6E710B513460A4604461946FFF7B1
:10034000F0FF204610BD30B50B46014600202022AC
:10035000012409E021FA02F59D4205D303FA02F5D2
:10036000491B04FA02F52844151EA2F10102F1DC32
:1003700030BD202A04DB203A00FA02F10020704749
:100380009140C2F1200320FA03F3194390407047D3
:10039000202A04DB203A21FA02F00021704721FADA
:1003A00002F3D040C2F12002914008431946704741
:1003B000064C074D06E0E06840F0010394E80700B2
:1003C00098471034AC42F6D3FFF7F4FEA02F000894
:1003D000C02F000801250D4C0D4F00264FF47A78F0
:1003E0000CA000F031FE207848B1002202213846EE
:1003F00000F006F92670404601F002FEF0E7012207
:100400000221384600F0FCF82570F4E700000020D7
:100410000004024074696D652D2D2D2D2D2D2D2D7F
:100420002D2D0D0A00000000FEE770472DE9F84F62
:1004300000224FF0010803254FF00F0E0B6808FA59
:1004400002F42340A3426ED14E68012E05D0022E45
:1004500003D0112E01D0122E12D186684FEA420C21
:1004600005FA0CF7BE43CF6807FA0CF737438760ED
:100470004668A6430C79C4F30014944034434460A6
:10048000C668570005FA07FC8C6826EA0C06BC40D3
:100490003443C4604C68022C01D0122C13D1D40810
:1004A00000EB8404A346D4F8209054074FEAD46AA2
:1004B0000EFA0AF629EA06090E6906FA0AF646EA6B
:1004C0000906CBF8206004680E7924EA0C0406F0D3
:1004D0000306BE40264306604C68E4006FD53B4CE3
:1004E000266846F480462660246822F0030604F459
:1004F00080440094364C3444A446D4F80848960707
:10050000360F0EFA06F7BC43324FB84201D100272E
:100510002EE0314FB84201D1012729E02F4FB842D8
:1005200002D1022724E04AE02D4FB84201D103272F
:100530001EE02C4FB84201D1042719E02A4FB842DF
:1005400001D1052714E0294FB84201D106270FE059
:10055000274FB84201D107270AE0264FB84201D100
:10056000082705E0244FB84201D1092700E00A27F7
:10057000B7402743CCF80878204E34684F689C4336
:10058000FF0300D51C4334601C4E361D34684F6891
:100590009C43BF0300D51C433460184E08363468B2
:1005A0004F689C43FF0200D51C433460134E0C3649
:1005B00034684F689C43BF0200D51C433460521C12
:1005C000102AFFF43BAFBDE8F88F0000443802402A
:1005D00000300140000002400004024000080240D8
:1005E000000C0240001002400014024000180240BB
:1005F000001C02400020024000240240003C014058
:100600000AB1816170470904FBE700000148806876
:10061000704700000C0000200B4810B5016841F441
:1006200000710160016841F480610160016841F47A
:1006300080710160032000F06FF8002000F006F8E0
:1006400000F024F8002010BD003C024070B50D4DB4
:1006500004464FF47A712878B1FBF0F00A49096832
:10066000B1FBF0F000F03CFB48B9102C07D200229F
:100670002146501E00F030F800206C6070BD012053
:1006800070BD00000C000020180000200A4808B5CA
:10069000016841F480410160006800F480400090EE
:1006A0000548001F016841F080510160006800F0BA
:1006B0008050009008BD000044380240002809DB4B
:1006C00000F01F02012191404009800000F1E0206C
:1006D000C0F8001170470000F0B40E4B1B680C46C8
:1006E000C3F30223C3F10705042D00D90425191D06
:1006F000072901D2002300E0DB1E012606FA05F1DE
:10070000491E214099409E40761E16403143F0BC60
:1007100000F0AABC0CED00E0064900F007020868F2
:100720004FF6FF03184040EA0220034A10430860D6
:10073000704700000CED00E00000FA052DE9F843D9
:100740001748016841F0805101600068154F00F0C2
:100750008050012600903E64FFF758FF05464FF495
:100760007A78114C05E000BFFFF750FF401B404571
:100770000DD86068C003F7D57E64FFF747FF0546D4
:10078000464607E0FFF742FF401BB04202D9032074
:10079000BDE8F88360688003F4D50020F8E7000026
:1007A0004038024000000E42007000402DE9F04742
:1007B0000E46050065D0DFF81481D8F80000F7B2C6
:1007C00000F00F00B04207D288F80070D8F800009F
:1007D00000F00F00B04254D128683D4C810712D57B
:1007E000400703D5206840F4E050206028780007D7
:1007F00003D5206840F4604020602068A96820F09C
:10080000F000084320602878C0072DD03049686880
:100810000839012812D0022813D0032811D0096802
:10082000890700292DDA216821F0030101432160A5
:10083000FFF7ECFE814641F2883A0EE00968890331
:10084000EFE709688901ECE7FFF7E0FEA0EB09019B
:10085000514502D90320BDE8F0872068696800F09F
:100860000C00B0EB810FEFD1D8F80010404601F03A
:100870000F01B14207D90770006800F00F00B042C5
:1008800001D00120E7E72878400705D52068E9680E
:1008900020F4E050084320602878000706D520683F
:1008A000296920F4604040EAC100206000F038F877
:1008B0002168084AC1F30311515CC8400649086029
:1008C00006480068FFF7C2FE0020C4E7003C024073
:1008D00008380240882F000818000020100000206F
:1008E0000448054900680968044AC1F38221515C43
:1008F000C84070471800002008380240982F0008B0
:100900000448054900680968044AC1F34231515C52
:10091000C84070471800002008380240982F00088F
:10092000154810B5006810F00C02144813D0144993
:10093000042A0FD0082A0ED10F4C241F22682368E6
:1009400002F03F025B0207D52068C0F38810A0FBCD
:10095000010106E0084610BD2168C1F38811A1FB22
:1009600000010023FFF79AFC2168C1F30141491CF3
:100970004900B0FBF1F010BD083802400024F4003B
:1009800040787D012DE9F84F04006ED02078DFF823
:100990003C93C007A9F104054AD009F1040001689D
:1009A000C1F38101012908D00068C0F38100022849
:1009B0000AD1D9F80000400206D52868800337D54F
:1009C00060680028E1D033E06068B0F5803F10D067
:1009D000B0F5A02F286810D020F480302860286857
:1009E00020F4802028606068A8B1FFF70FFE06465B
:1009F0000DE0286840F48030F4E740F4802028605F
:100A0000F7E700BFFFF702FE801B642873D8286851
:100A10008003F7D50CE0FFF7F9FD064605E000BFBF
:100A2000FFF7F4FD801B6428F0D828688003F7D412
:100A30002078DFF89C8280074FF0000A3ED5A3485B
:100A4000001D016811F00C0F08D00068C0F3810090
:100A500002280BD1D9F80000400207D4286880078B
:100A600016D5E068012800D112E02BE1E068B8B1AA
:100A70000120C8F80000FFF7C9FD064605E000BFE9
:100A8000FFF7C4FD801B0228C0D828688007F7D56F
:100A90002868216920F0F80040EAC10028600DE0D4
:100AA000C8F800A0FFF7B2FD064604E0FFF7AEFD70
:100AB000801B02281FD828688007F7D420780007F9
:100AC00022D5824E83486169703671B1012101607F
:100AD000FFF79CFD074604E0FFF798FDC01B0228C6
:100AE00009D830688007F7D50EE0C0F800A0FFF7FE
:100AF0008DFD074605E082E0FFF788FDC01B022858
:100B00007DD830688007F7D42078400768D5DFF8B3
:100B1000BCB100270BF13C0BDBF80000C0000BD48C
:100B2000DBF8001041F08051CBF80010DBF800003A
:100B3000012700F080500090674E3068C00510D447
:100B4000306840F480703060FFF760FD009005E091
:100B5000FFF75CFD0099401A022850D83068C005A4
:100B6000F6D55A4EA0686C3601280FD0052830689B
:100B700010D020F001003060306820F004003060B8
:100B8000A068B8B1FFF742FD00900FE0306840F078
:100B90000100F4E740F004003060F7E7FFF736FDAE
:100BA0000099411A41F28830814266D83068800746
:100BB000F4D50EE0FFF72AFD009007E0FFF726FDD1
:100BC0000099411A41F28830814256D83068800736
:100BD000F4D42FB1DBF8001021F08051CBF80010D5
:100BE000A069C8B33949091D0968C1F38101022907
:100BF0004AD00228504607D0C8F8600000E03CE028
:100C0000FFF704FD04463BE04746C8F86000FFF7E5
:100C1000FDFC064605E000BFFFF7F8FC801B02283C
:100C20002BD828688001F7D4D4E907010843A16ACA
:100C30002A4A490802EB0141626A41EA82110843EB
:100C400094F82C1040EA0161C9F8001001203866C0
:100C5000FFF7DCFC044606E036E000BFFFF7D6FCF9
:100C6000001B022809D828688001F7D52CE000BFB6
:100C7000FFF7CCFC001B022802D90320BDE8F88F47
:100C800028688001F4D41FE00128F7D0D9F80000CB
:100C9000E26900F48001914214D1226A00F03F0120
:100CA00091420FD147F6C071626A0140914209D169
:100CB000A26A00F44031914204D1E16A00F0706010
:100CC000884201D00120D9E70020D7E7043802404C
:100CD00000004742800E4742007000400000FFFFC6
:100CE00010B5401EB0F1807F01D3012010BD4FF040
:100CF000E02460610F21601700F0B6F90020A061C8
:100D000007202061002010BD70B5040004D094F8C5
:100D10003900002510B106E0012070BD84F838507C
:100D2000204600F023F8242084F839002068C168A8
:100D300021F40051C160204600F0F0F820680169FC
:100D400021F4904101612068416921F02A0141614B
:100D50002068C16841F40051C160E563202084F837
:100D6000390084F83A00002070BD000010B500681A
:100D70001A4986B088422FD11948016841F0010113
:100D80000160006800F0010005901548143001680A
:100D900041F0100101600068012100F01000059091
:100DA0004FF4007000900220CDE90101039007206C
:100DB0000C4C049069462046FFF738FB2015009044
:100DC00069462046FFF732FB2520FFF777FC00221B
:100DD00002212520FFF780FC06B010BD0010014065
:100DE0003038024000000240FEE7FEE7FEE7000068
:100DF0001CB500F03FFA00F05BFF0A490320CDE983
:100E0000000100234FF4007207A1094801F032FEEF
:100E100004480838406801F029F9BDE81C4001F099
:100E20004FBA0000080000206170707461736B009D
:100E3000D503000810B5502080F31188BFF34F8F01
:100E4000BFF36F8F01F056FE18B104494FF0805088
:100E50000860002080F3118810BD000004ED00E060
:100E600030B593B030216846FFF762FA14210CA820
:100E7000FFF75EFA20480025016841F080510160CB
:100E8000006800F0805011901C48016841F4404116
:100E900001600068022400F440401190012000909D
:100EA000000401908001CDE90640192008904FF41C
:100EB000B470CDE9090404200B906846FFF762FD89
:100EC00008B172B6FEE7FFF739FC08B172B6FEE76B
:100ED0000CA90F2081E831004FF4A0500F904FF47F
:100EE0008050109005210CA8FFF760FC002801D06D
:100EF00072B6FEE713B030BD4038024000700040CB
:100F00000548016841F47001016003494FF0006039
:100F1000803908607047000088ED00E02DE9F0415D
:100F2000044600680169E26821F4405111430161FF
:100F30002169A068E2690843616911430843216897
:100F4000CA6849F20C639A430243CA602068416947
:100F5000A26921F4407111434161E06919276425B8
:100F60003226B0F5004F354A354920684FF0000869
:100F700006D0884201D0904236D1FFF7C1FC35E05F
:100F8000884201D0904202D1FFF7BAFC01E0FFF79E
:100F9000A7FC61684A18A0FB070148EB0803FFF7AC
:100FA0007DF90146B0FBF5F00201B1FBF5F06FF001
:100FB0001803584301EB800006EBC000B0FBF5F0CE
:100FC00000F0F80002EB4002B1FBF5F0584301EBF2
:100FD000800006EBC000B0FBF5F000F007002168D0
:100FE00010448860BDE8F081FFF77AFC61688B0FE0
:100FF0008A00A0FB0701FFF751F90146B0FBF5F0AD
:101000006FF01802504301EB800006EB0010B0FBBC
:10101000F5F000F0F002B1FBF5F002EB0012B1FBCD
:10102000F5F06FF01803584301EB800006EB001059
:10103000B0FBF5F000F00F00D1E700000014014014
:1010400000100140FEE700000FB4054B10B503A9E6
:10105000044A029800F028F810BC5DF814FB000068
:1010600061120008900000200907090E002804DB27
:1010700000F1E02080F80014704700F00F0000F14C
:10108000E02080F8141D704702E008C8121F08C154
:10109000002AFAD170477047002001E001C1121FF9
:1010A000002AFBD1704700002DE9FF4F8BB09A4614
:1010B0000F460546002606E025280BD052460D991E
:1010C00090476D1C761C28780028F5D10FB030466B
:1010D000BDE8F08F0024A0460122604900E00443EF
:1010E00015F8013F203B02FA03F00842F7D12878B7
:1010F0002E2817D115F8010F44F004042A280ED029
:101100006FF02F022878A0F1300109290AD808EBE6
:10111000880102EB410100EB01086D1CF2E757F872
:10112000048B6D1C287869283ED006DC0028CDD0C1
:1011300063280BD0642804D136E0732810D07528BA
:101140004BD052460D999047761C85E017F8040B5A
:101150008DF8000000208DF80100E946012003E031
:1011600057F8049B4FF0FF3061074FF0000401D4A3
:101170000AE0641C44450DDA8442FADB19F80410D5
:101180000029F6D106E0641C8442FCDB19F8041047
:101190000029F8D1264404E019F8010B52460D99B4
:1011A0009047641EF8D257E001CF4FF00A0B002899
:1011B00002DA40422D2102E0210504D52B218DF8D1
:1011C0002410012103E0E10705D02021F7E70DF10C
:1011D000200908910CE00021F9E701CF4FF00A0B3C
:1011E000F9E75946FFF7AFF801F1300209F8012D90
:1011F0000028F6D1ADEB090000F1200B600701D407
:101200004FF00108D84502DDA8EB0B0000E00020FC
:101210008046002406E009A85246005D0D999047DB
:10122000641C761C08988442F5DB04E030205246AA
:101230000D999047761CB8F10001A8F10108F5DC82
:1012400005E019F8010B52460D999047761CBBF149
:101250000001ABF1010BF4DC6D1C34E7092801003F
:1012600003490A685206FCD5C2B24A6070470000C2
:101270000010014030B50E4887B0016841F002010E
:1012800001600068012400F0020005900220CDE911
:1012900000040320CDE90240064D69462846FFF7C9
:1012A000C5F8694628460094FFF7C0F807B030BD7E
:1012B00030380240000402401CB5FFF7ADF9FFF7DB
:1012C000CFFD0B48016841F08001016000680949C9
:1012D00000F0800000900120CDE900010023802271
:1012E00005A1084801F0C6FB00F0EAFFFEE7000098
:1012F00030380240040000207374617274746173AA
:101300006B000000F10D00082DE9F041184C0F466C
:101310000546E6682068001D00F0E6FC38B9206844
:1013200090F82C1001208840216981432161681CBC
:1013300007D137B12168BDE8F0410E48091D00F022
:101340000BBD20683544B5424560216805D2A06BCD
:10135000BDE8F041091D00F0E7BC606B091D00F01D
:10136000E3FCA06A854200D2A562BDE8F0810000DE
:101370001C000020E40300202DE9F041054600F0A8
:10138000F7FC2D4CA068401CA06020682B4F10B1CA
:10139000606930B32BE02560A068012827D10026C2
:1013A00006EB860007EB800000F0B0FC761C202ED8
:1013B000F6D3234800F0AAFC2148143000F0A6FC24
:1013C0001F48283000F0A2FC1D483C3000F09EFC75
:1013D0001B48503000F09AFC194860631430A06339
:1013E00005E02068E96AC06A884200D82560606A22
:1013F000401C6062E96A0120226988401043206134
:1014000001EB810007EB8000291D00F0A5FC00F036
:10141000EBFC606900280CD02068E96AC06A884249
:1014200007D208494FF080500860BFF34F8FBFF3D9
:101430006F8FBDE8F08100001C0000201401002027
:101440009403002004ED00E010B500F091FC0E4C78
:101450002068A0B90D4800F059FC0C48143000F089
:1014600055FC0A48E06014302061002210210A2057
:1014700001F03EF8206010B105A100F08BFDBDE841
:10148000104000F0B1BC000058000020F80300201C
:10149000546D72510000000070B5114E114C17E0F0
:1014A00000F058FF3068B8B101F03EFC00F060FC7D
:1014B000F068C568281D00F017FCA068401EA060F9
:1014C0006068401E606000F08FFC284600F055F810
:1014D00060680028E4D170BD01F026FCF8E7000048
:1014E000D00300201C00002030B4026C0B46002A00
:1014F0000BD0C1681144C1604468A14201D30168A6
:10150000C16030BC1846FEF7FABE30BC70472DE90A
:10151000F041856B174604460026026C82B1C7B1C4
:10152000E068FEF7ECFEE168206C091AE1602268D1
:10153000914202D26168081AE060022F16D017E0CB
:101540002068A8B9606801F049FB06460020606089
:101550000EE0A068FEF7D3FE216CA0680844A060EE
:101560006168884204D32068A06001E005B16D1E67
:101570006D1CA5633046BDE8F08110B50446006BD4
:1015800000F064FC2046BDE8104000F05FBC0000A5
:1015900010484FF49631420706D0C01D0D4920F087
:1015A0000700411AC1F596310B4A00230144C2E9F4
:1015B00000030839103A21F0070111604B600B60FD
:1015C0000B1AC0E9001393604FF000405360D060E5
:1015D00070470000200400207C000020074C4FF0E2
:1015E0008056074DFFF758FF20680128FAD92E6072
:1015F000BFF34F8FBFF36F8FF4E70000140100209B
:1016000004ED00E02DE9F047DDE909840E4682464D
:101610006FF00301206B01EB82010844089D20F06C
:1016200007079946780705D040F22B3219A11EA072
:10163000FFF70AFD00202218315C82F83410315C7B
:1016400011B1401C0A28F6D3002684F83D60202DF5
:1016500000D31F25E562C4E91056201D00F061FB90
:1016600004F1180000F05DFB2461C5F12000646204
:10167000A061A66484F84C604A465146384600F0A2
:1016800001FB2060B8F1000F01D0C8F80040BDE8B0
:10169000F08700002E2E5C4672656552544F535CF5
:1016A0007461736B732E63004572726F723A2573A7
:1016B0002C25640D0A00000030B5114900E01146E8
:1016C0000A688242FBD34B685C18844203D14068AD
:1016D00018444860084643681C18944209D1084CD5
:1016E000103C2468A24209D052681A4442600A6839
:1016F00012680260814200D0086030BD0460F9E7E2
:101700007C00002070B5002441600B4D00619142C7
:1017100006D8D11A8269914206D2011D286907E0D4
:101720009A4203D2994201D3012403E0011DE868E3
:1017300000F0FAFA204670BD5800002010B50446AB
:1017400000F016FBA06B28B15FF0000400F04CFB2A
:10175000204610BD0124F9E72DE9F34100980F461A
:101760000026846C2CB940F6CE1216A11AA0FFF701
:101770006BFCA06BE16B884205D340F6CF1211A140
:1017800015A0FFF761FCA06BE16B88420CD294F9C5
:1017900045503A4669462046FFF7B9FE0646681CA2
:1017A00005D06D1C84F845503046BDE8FC81606A68
:1017B0000028F9D004F1240001F06AFA0028F3D0DF
:1017C0000126F1E72E2E5C4672656552544F535C3C
:1017D00071756575652E63004572726F723A257377
:1017E0002C25640D0A000000F8B5054614480E4685
:1017F000C068C068C468201D00F076FAE06901285E
:1018000017D1A0692B46411932462046FFF77AFFCF
:1018100078B100200346014600902A46204601F098
:101820006BFB30B907494FF4027201F11800FFF762
:101830000BFC616A01B02046BDE8F040084700009B
:10184000580000205C2E000870B588B02F4E53E081
:101850000498002806DADDE90601059A9047049805
:10186000002849DB069C606910B1201D00F03CFA9D
:1018700002A800F0A7F8054604980A283CD2DFE841
:1018800000F00505053B273805053B270598A169AC
:10189000034601442A462046FFF734FF00282BD098
:1018A000616A20468847E069012825D10020009020
:1018B0000598A169002342181946204601F01CFB37
:1018C000D0B940F2213212A117A0FFF7BDFB13E0FF
:1018D0000598A06128B94FF44E720DA112A0FFF730
:1018E000B3FBA0692B4641191A462046FFF70AFFB1
:1018F00002E0204600F0AAFA00231A4604A9306844
:1019000000F02CFE0028A3D108B070BD58000020C4
:101910002E2E5C4672656552544F535C74696D653A
:1019200072732E63000000004572726F723A257365
:101930002C25640D0A000000F8B50D46064600F09F
:1019400009FD684600F03EF80446009810B101F029
:10195000EBF9F8BD1148ADB101690968D9B10025AD
:10196000311B2A46006800F029FB01F0DDF9002850
:10197000EFD10B494FF080500860BFF34F8FBFF39A
:101980006F8FF8BDA642EBD801F0CEF92146304664
:10199000FFF72AFFF8BD0125E2E70000580000200C
:1019A00004ED00E00648416B096829B1416BC96844
:1019B000C9684968816270474FF0FF31FAE700005B
:1019C0001C00002070B5054601F08EF8064E044656
:1019D000B068844203D200F009F8012000E0002042
:1019E00028602046B46070BD58000020F8B5184D3E
:1019F00026E0C068C4680668201D00F075F9616AB9
:101A000020468847E06901281AD1A0693044B042D5
:101A100006D924616060211DE86800F085F90FE0B7
:101A200000200346014600903246204601F064FA49
:101A300030B9084940F2923201F11800FFF704FB77
:101A4000E86801680029D4D12969C5E90310F8BD07
:101A5000580000205C2E000808484068401C05D053
:101A600040F20F1206A111A0FFF7EEFA502080F30A
:101A70001188BFF34F8FBFF36F8FFEE78400002004
:101A80002E2E5C4672656552544F535C706F7274B3
:101A900061626C655C525644535C41524D5F434DEC
:101AA00034465C706F72742E630000004572726F72
:101AB000723A25732C25640D0A000000074CE0687B
:101AC000016841B1C0680021D0F80000FFF734FF81
:101AD000FFF7BAFEF3E701210020F7E758000020E6
:101AE0002DE9F041044600F043F994F9455004F122
:101AF000240610E0A06C20B100212046FFF72CFE48
:101B000004E0606A48B1304601F0C2F808B100F064
:101B100013FB6D1E6DB2002DECDC4FF0FF3684F828
:101B2000456000F061F900F023F994F9445004F1A4
:101B3000100709E0206948B1384601F0A9F808B15A
:101B400000F0FAFA6D1E6DB2002DF3DC84F84460EB
:101B5000BDE8F04100F048B92DE9F0410546002705
:101B600000F0F8FB324E306808B9FFF711FDF0685D
:101B700005424FD1002D4DD0083568070BD005F038
:101B80000700C0F108000544680704D0BF2229A15E
:101B900032A0FFF759FA002D3CD07068854239D841
:101BA0002348103001460C6801E020460C4661686D
:101BB000A94202D221680029F7D13168B0468C428F
:101BC00028D007682168016060680837401B10282A
:101BD0000ED96619700704D0EC2216A11FA0FFF7DA
:101BE00033FA6068401B706030466560FFF764FD43
:101BF0006268D8F804104046891AC8F80410D8F86A
:101C00000830994200D28160D8F80C0002430020CD
:101C1000C4E9000201F088F8780705D04FF4967205
:101C200004A10EA0FFF710FA3846BDE8F0810000CD
:101C30006C0000202E2E5C4672656552544F535C3A
:101C4000706F727461626C655C4D656D4D616E673D
:101C50005C686561705F342E630000004572726FCE
:101C6000723A25732C25640D0A00000004490868A7
:101C700018B10868426C521C426408687047000042
:101C80001C00002010B5031F4FF080741C601B1F48
:101C900021F001011960191F044B0B6014390A600F
:101CA000091F6FF0020244380A6010BD591A00087B
:101CB00010B50C4C0A480C2120604FF4E1306060F4
:101CC0000020A060E060C4E90401A0612046FFF7A5
:101CD0001BF82068C16841F02001C16010BD000000
:101CE0000010014094000020D0E9013201699A609F
:101CF000D0E901235A604A68824201D182684A6071
:101D0000002202610868401E0860704700F1080167
:101D10004FF0FF32C0E90112C16001610021016092
:101D2000704700210161704730B50B685A1C02D022
:101D300000F1080202E0026904E0224654682568C6
:101D40009D42FAD953684B6099608A60516008617E
:101D50000168491C016030BD42684A6093688B602D
:101D600093685960916008610168491C016070477F
:101D7000502080F31188BFF34F8FBFF36F8F094955
:101D80004868401C486001280AD10748006810F0E4
:101D9000FF0F05D040F2B91204A10FA0FFF754B90C
:101DA000704700008400002004ED00E02E2E5C4609
:101DB00072656552544F535C706F727461626C65EA
:101DC0005C525644535C41524D5F434D34465C7007
:101DD0006F72742E630000004572726F723A257341
:101DE0002C25640D0A00000010B5084C606828B965
:101DF0004FF4E07206A111A0FFF726F96068401EBB
:101E0000606001D180F3118810BD000084000020C3
:101E10002E2E5C4672656552544F535C706F72741F
:101E200061626C655C525644535C41524D5F434D58
:101E300034465C706F72742E630000004572726FDE
:101E4000723A25732C25640D0A00000070B5002835
:101E50002AD0164DA0F108046068E968084205D14F
:101E60004FF4A07212A11CA0FFF7EEF8206828B171
:101E700040F241120EA118A0FFF7E6F86168E86889
:101E8000014211D02268002A0ED18143616000F026
:101E900061FA60686968084468602046FFF70CFCD6
:101EA000BDE8704000F040BF70BD00006C00002035
:101EB0002E2E5C4672656552544F535C706F72747F
:101EC00061626C655C4D656D4D616E675C686561F6
:101ED000705F342E630000004572726F723A257392
:101EE0002C25640D0A00000006484FF47A71006842
:101EF000B0FBF1F14FF0E020491E41610721016183
:101F0000704700001800002010B5FEF7B1F9104C22
:101F100010280CD300F1E02090F8F00321788842DB
:101F200005D24FF440720BA115A0FFF78DF81848A9
:101F30000068A16800F4E060884207D9BDE810405D
:101F40004FF4447203A10EA0FFF77EB810BD00004D
:101F5000840000202E2E5C4672656552544F535CFF
:101F6000706F727461626C655C525644535C41528E
:101F70004D5F434D34465C706F72742E63000000F9
:101F80004572726F723A25732C25640D0A000000A9
:101F90000CED00E010B5084B002200BF53F83240B2
:101FA0001CB1521C082AF9D310BD43F8321003EBC0
:101FB000C201486010BD0000D400002070B5154675
:101FC0000E460446FFF7D4FE94F944100020491C45
:101FD00001D184F8440094F94510491C01D184F8DA
:101FE0004500FFF701FFA06B28B92A46314604F1EE
:101FF000240000F0D1F82046BDE87040FFF770BD26
:1020000010B5040012D00E48006B28B140F2CF4248
:102010000CA111A0FFF718F800F09CF90021204650
:10202000FFF772F900F080FE002807D10E494FF04B
:1020300080500860BFF34F8FBFF36F8F10BD00005B
:102040001C0000202E2E5C4672656552544F535C76
:102050007461736B732E63004572726F723A2573ED
:102060002C25640D0A00000004ED00E070B5054663
:10207000FFF77EFE234C05B92568281DFFF734FEC7
:1020800058B9E86A204A00EB800152F8211021B9C2
:1020900001218140206988432061A86A18B105F1B7
:1020A0001800FFF721FE606A401C606220688542CC
:1020B00007D1291D1548FFF74FFE6068401C60607E
:1020C00007E0A068401EA0602846FFF756FAFFF719
:1020D00069FCFFF789FE6069002812D020688542FC
:1020E0000FD1206B28B140F2654209A10DA0FEF787
:1020F000ABFF10494FF080500860BFF34F8FBFF324
:102100006F8F70BD1C00002014010020D003002040
:102110002E2E5C4672656552544F535C7461736B2E
:10212000732E63004572726F723A25732C25640D0D
:102130000A00000004ED00E001490120C861704779
:102140001C00002070B50D46040005D140F6063293
:1021500007A10CA0FEF778FF0E4801682046183151
:10216000FFF7E2FD2846BDE870400121FFF7CCB83B
:102170002E2E5C4672656552544F535C7461736BCE
:10218000732E63004572726F723A25732C25640DAD
:102190000A0000001C00002070B514460D46060021
:1021A00005D140F6313209A10DA0FEF74DFF1048D0
:1021B000016830461831FFF7CFFD0CB14FF0FF3505
:1021C00021462846BDE87040FFF79EB82E2E5C469B
:1021D00072656552544F535C7461736B732E630068
:1021E0004572726F723A25732C25640D0A00000047
:1021F0001C00002070B5040039D01D4DE06A29682C
:10220000C96A884233D2A069002804DB2868C06A02
:10221000C0F12000A061E16A164E01EB8101606906
:1022200006EB810188421FD1201DFFF75DFD0121D2
:1022300050B9E06A00EB800256F8222022B92A69E0
:1022400001FA00F082432A612868C06AE0622A69C4
:1022500081401143296100EB800006EB8000211DC5
:10226000BDE87040FFF778BD2868C06AE06270BDC5
:102270001C0000201401002010B5040005D140F618
:10228000C13205A109A0FEF7DFFE0C48016A2160FA
:10229000C068606010BD00002E2E5C4672656552FD
:1022A000544F535C7461736B732E63004572726F8D
:1022B000723A25732C25640D0A0000001C000020D2
:1022C0001CB517480024CDE900402346822215A101
:1022D000164800F0CFFB012803D100F0D3FD012800
:1022E0000AD0401C1BD102B040F28472BDE81040FD
:1022F0000FA114A0FEF7A8BE502080F31188BFF3F1
:102300004F8FBFF36F8F06484FF0FF312C3881623B
:1023100001214161C460BDE81C4000F061B81CBDF2
:102320004800002049444C4500000000DD1500082D
:102330002E2E5C4672656552544F535C7461736B0C
:10234000732E63004572726F723A25732C25640DEB
:102350000A0000000248016B491C0163704700003D
:102360001C00002070B5134C206B10B10120E061FF
:1023700070BD0020E06120690F4EB0FA80F0C0F11E
:102380001F0000EB800556F8250028B940F6F6221C
:102390000AA10FA0FEF758FE06EB850000F1080227
:1023A000416849684160914201D149684160C8680B
:1023B000206070BD1C000020140100202E2E5C4601
:1023C00072656552544F535C7461736B732E630076
:1023D0004572726F723A25732C25640D0A00000055
:1023E0001CB52F4C20682F49884205D140F2591264
:1023F0002DA138A0FEF728FE20682A49491E8842F0
:1024000005D14FF4AD7228A132A0FEF71DFE354C68
:1024100020780190FF20207020788DF800009DF832
:1024200000009DF8001000F0F000884205D040F256
:1024300073121DA127A0FEF707FE9DF800002A4A8F
:1024400000F0500010700720906005E09DF800102B
:1024500049008DF80010401E9DF800100906F5D4C3
:10246000000200F4E0609060019820700C48203079
:10247000016841F470010160016841F07041016040
:10248000FFF732FD00205060FDF7BAFE17480168E3
:1024900041F040410160FDF7A3FE00201CBD00009B
:1024A00000ED00E071C20F412E2E5C467265655250
:1024B000544F535C706F727461626C655C52564429
:1024C000535C41524D5F434D34465C706F72742EC5
:1024D000630000004572726F723A25732C25640DFB
:1024E0000A00000000E400E08400002034EF00E077
:1024F00070B50E46050005D14FF4C4720EA113A0AD
:10250000FEF7A2FDA6B105FB06F04C30FFF724FB59
:1025100004000CD004F14C0066B12060C4E90F56F1
:102520002046012100F0DCF800212046A16470BDA6
:102530000020EAE72460F1E72E2E5C4672656552C2
:10254000544F535C71756575652E63004572726FEB
:10255000723A25732C25640D0A0000002DE9FF4F07
:10256000002683B09B468A46040005D140F2DC4237
:1025700051A156A0FEF768FDBAF1000F07D1206CFB
:1025800028B140F2DD424CA150A0FEF75DFD00F005
:102590009DFA38B9059828B14FF49C6246A14BA02A
:1025A000FEF752FD4FF000094FF08057DFF82C8105
:1025B000FFF7DEFBA56B4DB351462046E668FEF7FC
:1025C00093FFBBF1000F14D0E660606A58B104F1CC
:1025D000240000BF00F05CFB28B1C8F80070BFF316
:1025E0004F8FBFF36F8FFFF7FFFB012007B0BDE8F0
:1025F000F08F6D1EA563206810B9FFF737FB606090
:1026000020690028EFD004F11000E3E7059808B135
:102610001EB106E0FFF7E8FB27E06846FFF72CFE57
:102620000126FFF7E1FBFFF795FEFFF7A1FB94F909
:102630004400401C01D184F8449094F94500401CAA
:1026400001D184F84590FFF7CFFB05A9684600F05B
:10265000CDF9002820460AD0FFF742FA00F064FBCB
:102660002046FFF76BF80028A2D00020BEE7FFF756
:1026700065F8D8B1206830B9FFF77AFB6068FFF7DA
:10268000B9FDFFF7B1FB04F124000599FFF75AFDEE
:102690002046FFF725FA00F047FB002888D1C8F84C
:1026A0000070BFF34F8FBFF36F8F81E72046FFF7B6
:1026B00017FA00F039FB7BE72E2E5C4672656552F7
:1026C000544F535C71756575652E63004572726F6A
:1026D000723A25732C25640D0A00000004ED00E019
:1026E00070B50D46040005D140F21B121CA121A0BB
:1026F000FEF7AAFCFFF73CFBD4E90F20216802FBA0
:10270000001161600021A1632168A1600A46D4E93B
:102710000F01401E00FB0121E16021464FF0FF3018
:1027200001F8440F487004F110004DB1FFF7EEFAC4
:1027300004F12400FFF7EAFAFFF756FB012070BD11
:1027400021690029F8D000F0A3FA0028F4D00D493F
:102750004FF080500860BFF34F8FBFF36F8FEBE7F0
:102760002E2E5C4672656552544F535C71756575CB
:10277000652E63004572726F723A25732C25640DC5
:102780000A00000004ED00E02DE9FF4782B01D467D
:102790008A464FF00008040005D140F2D92250A12A
:1027A00054A0FEF751FCBAF1000F07D1206C28B1FC
:1027B00040F2DA224AA14FA0FEF746FC022D08D1D2
:1027C000E06B012805D040F2DB2245A149A0FEF7CD
:1027D0003BFC00F07BF938B9049828B140F2DE22C6
:1027E0003FA144A0FEF730FC464F4FF000094FF0E8
:1027F000805600BFFFF7BCFAA06BE16B884207D39D
:10280000022D05D0049808B3B8F1000F21D025E0BF
:102810002A4651462046FEF77AFEA16C21B1294690
:102820002046FEF799FF05E0616A19B104F1240022
:1028300000F02EFA20B13E60BFF34F8FBFF36F8FD1
:10284000FFF7D2FA012006B0BDE8F087FFF7CCFA17
:1028500022E06846FFF710FD4FF00108FFF7C4FAC9
:10286000FFF778FDFFF784FA94F94400401C01D18A
:1028700084F8449094F94500401C01D184F84590B7
:10288000FFF7B2FA04A9684600F0B0F830B120466C
:10289000FFF726F900F048FA0020D4E7FFF768FABE
:1028A000A06BE16B884213D1FFF79EFA04F1100090
:1028B0000499FFF747FC2046FFF712F900F034FABD
:1028C000002897D13E60BFF34F8FBFF36F8F91E722
:1028D000FFF78AFA2046FFF703F900F025FA89E7A7
:1028E0002E2E5C4672656552544F535C717565754A
:1028F000652E63004572726F723A25732C25640D44
:102900000A00000004ED00E02DE9F0479846174664
:102910008946040005D140F29F322BA12FA0FEF77B
:1029200093FBB9F1000F07D1206C28B14FF4687206
:1029300025A12AA0FEF788FBB8F1020F08D1E06BB1
:10294000012805D040F2A1321FA124A0FEF77CFB94
:10295000FFF7DAFA5020EFF3118680F31188BFF306
:102960004F8FBFF36F8FA06BE16B884208D3B8F134
:10297000020F05D05FF0000086F31188BDE8F087F4
:1029800094F94550424649462046FEF7C0FD681C72
:1029900004D06D1C84F845500120EDE7A06C0125A2
:1029A00020B141462046FEF7D7FE06E0606A0028C7
:1029B000F2D004F1240000F06BF90028ECD0002FD5
:1029C000EAD03D60E8E700002E2E5C467265655255
:1029D000544F535C71756575652E63004572726F57
:1029E000723A25732C25640D0A00000070B50D465F
:1029F000040005D140F6CB3214A119A0FEF724FB48
:102A00002DB940F6CC3211A115A0FEF71DFBFFF742
:102A1000AFF9174AD1682868431C0FD02368126A9F
:102A2000934202D062688A420AD96268891A814256
:102A300006D2401A28602046FFF71EFC002400E062
:102A40000124FFF7D1F9204670BD00002E2E5C4610
:102A500072656552544F535C7461736B732E6300DF
:102A60004572726F723A25732C25640D0A000000BE
:102A70001C0000202DE9FF5F8346DDE90E879946A3
:102A800016468A469000FFF767F805001AD05020D6
:102A9000FFF762F8040012D025630021CDE902415E
:102AA000CDE900874B46324651465846FEF7AAFD0F
:102AB0002046FEF761FC012004B0BDE8F09F2846E7
:102AC000FFF7C4F94FF0FF30F6E700000548416911
:102AD00019B1006B18B10020704701207047022027
:102AE000704700001C0000200148C06870470000CB
:102AF0001C0000202DE9F0412D4C0027206B40B137
:102B0000A069401CA061E06900B101273846BDE81A
:102B1000F081E668761CE66011D1606B006828B130
:102B200040F6D91223A128A0FEF78EFA606BA16BA4
:102B30006163A063206A401C2062FEF733FFA06A35
:102B4000DFF89480864209D3606B006880B1606BC7
:102B5000C068C568686886420DD2A0622068C06AF5
:102B600000EB800158F821000128CCD90127CAE7E1
:102B70004FF0FF30F1E7281DFFF7B6F8A86A18B14B
:102B800005F11800FFF7B0F8E86A012122698140D9
:102B90001143216100EB800108EB8100291DFFF743
:102BA000DBF8E86A2168C96A8842CDD30127CBE700
:102BB0001C0000202E2E5C4672656552544F535CFB
:102BC0007461736B732E63004572726F723A257372
:102BD0002C25640D0A0000001401002070B50400CB
:102BE0004FF000063CD01F4D2868844205D040F6C7
:102BF000C7621DA121A0FEF727FA606C28B940F634
:102C0000C96219A11DA0FEF71FFA606C401E606426
:102C1000226CE16A914223D010BB201DFFF764F8BB
:102C20001A4A012150B9E06A00EB800352F82330C0
:102C300023B92B6901FA00F083432B61206CE06219
:102C4000C0F12000A061E06A2B698140194329612D
:102C500000EB800002EB8000211DFFF77DF80126CC
:102C6000304670BD1C0000202E2E5C4672656552F9
:102C7000544F535C7461736B732E63004572726FB3
:102C8000723A25732C25640D0A00000014010020FF
:102C90002DE9F041C068C4682CB940F6613216A134
:102CA0001AA0FEF7D1F904F118000746FFF71CF847
:102CB0001A4D286B012660B139461948FFF74CF8C8
:102CC000E06A2968C96A884213D90120EE61BDE82B
:102CD000F081201DFFF708F8E16A2A6906FA01F081
:102CE0001043286101EB81000E4901EB8000211D9A
:102CF000E4E70020EBE700002E2E5C46726565528B
:102D0000544F535C7461736B732E63004572726F22
:102D1000723A25732C25640D0A0000001C00002067
:102D2000BC030020140100202DE9F0472C4C0025A5
:102D30002E46206B28B94FF4FD622AA12EA0FEF783
:102D400083F9FFF715F8206B401E2063206BE0BB72
:102D5000A1682D4F0120C1B3A7F52A7980463868B4
:102D6000E8B1F868C56805F11800FEF7BDFF281D39
:102D7000FEF7BAFFE86A226908FA00F111432161FF
:102D800000EB800109EB8100291DFEF7E5FFE86AF1
:102D90002168C96A8842E2D3C4F81C80DFE70DB11C
:102DA000FEF700FEA5694DB14FEA0807FFF7A2FE46
:102DB00000B1E7616D1EF9D10020A061E06920B18A
:102DC000124901263007086000E003E0BFF34F8F8F
:102DD000BFF36F8FFFF708F83046BDE8F0870000BB
:102DE0001C0000202E2E5C4672656552544F535CC9
:102DF0007461736B732E63004572726F723A257340
:102E00002C25640D0A000000BC03002004ED00E046
:102E10002DE9F0470746994616460D462820DDF86D
:102E200020A0FEF799FE040014D0B8464F46D146C4
:102E30002DB94FF4C67209A10EA0FEF705F9FEF7F1
:102E400003FB04F11801C4F8008081E8E002201DB2
:102E5000FEF767FF2046BDE8F08700002E2E5C4697
:102E600072656552544F535C74696D6572732E635D
:102E7000000000004572726F723A25732C25640DB4
:102E80000A0000001CB50024FEF7DEFA0C480068BA
:102E900068B10B491F20091DCDE9000100234FF443
:102EA000827208A10948FFF7E5FD040005D140F250
:102EB000331207A10CA0FEF7C7F820461CBD000086
:102EC00058000020546D722053766300BD1A00082C
:102ED0002E2E5C4672656552544F535C74696D6565
:102EE00072732E63000000004572726F723A257390
:102EF0002C25640D0A0000002DE9FF47DDF830A005
:102F0000994690460E4607004FF0000405D14FF455
:102F1000D37212A117A0FEF797F81A4D286880B156
:102F2000CDE900680297062E11DAFFF7CFFD0228DF
:102F30004FF0000309D0002269462868FFF724FCFF
:102F4000044604B02046BDE8F0875246F4E700236B
:102F50004A466946FFF7D8FCF2E700002E2E5C4691
:102F600072656552544F535C74696D6572732E635C
:102F7000000000004572726F723A25732C25640DB3
:102F80000A000000580000200000000000000000BF
:102F900001020304060708090000000001020304FF
:102FA000C02F0008000000209400000088100008D6
:102FB00054300008940000208C3301009810000861
:102FC0000000000000000000000000000100000000
:102FD00010000000000000000095BA0A0000000088
:102FE00000000000000000000000000000000000E1
:102FF00000000000000000000000000000000000D1
:1030000000000000000000000000000000000000C0
:1030100000000000000000000000000000000000B0
:1030200000000000000000000000000000000000A0
:103030000000000000000000000000000000000090
:103040000000000000000000AAAAAAAA00000000D8
:04305000000000007C
:04000005080001AD41
:00000001FF
