:020000040800F2
:1000000018F10020890200081B1C0008F1160008E6
:10001000191C00081B0400087123000800000000E0
:10002000000000000000000000000000D1010008F6
:100030001D040008000000002502000875210008CA
:10004000A3020008A3020008A3020008A3020008FC
:10005000A3020008A3020008A3020008A3020008EC
:10006000A3020008A3020008A3020008A3020008DC
:10007000A3020008A3020008A3020008A3020008CC
:10008000A3020008A3020008A3020008A3020008BC
:10009000A3020008A3020008A3020008A3020008AC
:1000A000A3020008A3020008A3020008A30200089C
:1000B000A3020008A3020008A3020008A30200088C
:1000C000A3020008A3020008A3020008A30200087C
:1000D000A3020008A3020008A3020008A30200086C
:1000E000A3020008A3020008A3020008A30200085C
:1000F000A3020008A3020008A3020008A30200084C
:10010000A3020008A3020008A3020008A30200083B
:10011000A3020008A3020008A3020008A30200082B
:10012000A3020008A3020008A3020008A30200081B
:10013000A30200088D040008A3020008A30200081F
:10014000A3020008A3020008A3020008A3020008FB
:10015000A3020008A3020008A3020008A3020008EB
:10016000A3020008A3020008A3020008A3020008DB
:10017000A3020008A3020008A30200080000000078
:10018000A3020008A3020008A3020008A3020008BB
:10019000A3020008A3020008A3020008A3020008AB
:1001A000A3020008A3020008A3020008DFF80CD095
:1001B00000F004F900480047E160000818F1002051
:1001C00030BF72B6704762B6704780F308887047D8
:1001D0002A4B19680868B0E8F04F80F30988BFF32C
:1001E0006F8F4FF0000080F311887047000000000F
:1001F00006480068006880F3088862B661B6BFF3FD
:100200004F8FBFF36F8F00DF00BF00BF08ED00E02E
:10021000DFF80C00016841F470010160704700BF15
:1002200088ED00E0EFF30980BFF36F8F134B1A687E
:100230001EF0100F08BF20ED108A20E9F04F10606B
:1002400008B44FF0500080F31188BFF34F8FBFF315
:100250006F8F0DF061FE4FF0000080F3118808BC35
:1002600019680868B0E8F04F1EF0100F08BFB0EC36
:10027000108A80F30988BFF36F8F70473000002029
:10028000EFF30580704700000648804706480047A6
:10029000FEE7FEE7FEE7FEE7FEE7FEE7FEE7FEE736
:1002A000FEE7FEE72D220008AD0100082DE9F05F12
:1002B0000546002092469B468846064681464024D5
:1002C0001BE0284641464746224600F067F8534661
:1002D0005A46C01A914110D311461846224600F0E2
:1002E0004EF82D1A67EB01084F46224601200021E7
:1002F00000F045F817EB00094E41201EA4F101045F
:10030000DFDC484631462A464346BDE8F09F40EAD6
:1003100001039B0703D009E008C9121F08C0042A83
:10032000FAD203E011F8013B00F8013B521EF9D26A
:100330007047D2B201E000F8012B491EFBD2704792
:100340000022F6E710B513460A4604461946FFF7A1
:10035000F0FF204610BD421C10F8011B0029FBD104
:10036000801A704730B504460020034600E05B1C4D
:10037000934203D2E05CCD5C401BF8D030BD202A14
:1003800004DB203A00FA02F1002070479140C2F1EC
:10039000200320FA03F3194390407047202A04DB1E
:1003A000203A21FA02F00021704721FA02F3D040EE
:1003B000C2F120029140084319467047064C074D90
:1003C00006E0E06840F0010394E807009847103425
:1003D000AC42F6D3FFF7EEFE34EE000854EE000810
:1003E00030B58C1810F8012B12F00F0301D110F862
:1003F000013B120906D110F8012B03E010F8015B54
:1004000001F8015B5B1EF9D101E001F8013B521ECE
:10041000FBD1A142E6D3002030BDFEE770470000CB
:10042000064908B509684FF4FA52B1FBF2F14143AD
:10043000009100BF491E0091FBD208BD18000020AA
:1004400038B50446006800F58050816941F4801198
:100450008161206800F58050806900900120FFF7DD
:10046000DFFF2068009900F58050816138BD026887
:100470000021002A08DB0268120405D40268D205B4
:1004800002D50068C0F30D410846704710B5094C0D
:1004900002E000BF05F0D6FDA06AFFF7E8FF0028E4
:1004A000F8D12068402100F5805041618902416106
:1004B00010BD0000D80100202DE9F041044621B113
:1004C0004FF40060E060C000A060E06900250028F3
:1004D00061D028462368402619683A4A1140D4E979
:1004E00002273A43024342F4007008431860206830
:1004F0000768012000F0AAF82068076020684660BD
:1005000020684668012000F0A1F820684660206855
:1005100085602068C560216888694FF64172104087
:1005200040F08000886120688669012000F08EF824
:10053000206886612068C5612068C569012000F0D7
:1005400085F82068C561226802F5805290691E49CD
:1005500008401E4901439161206800F5805085697B
:10056000012000F073F8206800F580508561206854
:10057000174900F580500160206800F5805005683B
:10058000012000F063F8206800F580500560A06944
:10059000012803D009E04FF480609BE7206800F554
:1005A0008050C1690B4A1143C16160690A49828860
:1005B0000A640278D0F8010042EA00204864BDE8ED
:1005C000F08100000F8120FF233FDEF804002002AD
:1005D0008020C102400001000080024070B58020F0
:1005E00008F0E4FC084C2060802008F0DFFC41F2B9
:1005F000D0756060284608F0D9FCA060284608F055
:10060000D5FCE060002070BD20000020084810B537
:10061000006810F0FF0F07D0502080F31188BFF35F
:100620004F8FBFF36F8F01E00DF044F9002010BD34
:1006300004ED00E00449096811F0FF0F02D080F3D7
:10064000118870470DF072B904ED00E031B500F08B
:1006500061FC044600F05EFC0099001B8842F9D35F
:1006600038BD2DE9F04390F845400025012C0DD010
:100670004FF0010C80F845C0022480F8444044F259
:10068000F4574FF000495E1E816217E00220BDE87A
:10069000F08301EB4514C4F80090C5EBC51808EBD6
:1006A000480802EB8808C4E90178B54204D204F195
:1006B0002008C4F80C8000E0E1606D1C9D42E8D386
:1006C000026802F58052D16080F844C0002180F8B1
:1006D00045100846DBE72DE9F043914690F84520A8
:1006E0000024012A0AD0012680F84560022280F801
:1006F00044204FF4801C5D1EC1621BE00220BDE857
:10070000F08301EB4412C2F800C0C4EBC41707EB3E
:10071000470809EB88079760C7691FB9176847F44E
:1007200040071760AC4203D202F12007D76000E017
:10073000D160641C9C42E4D3026802F580521161CE
:1007400080F84460002180F845100846D7E710B5CE
:1007500090F84510012913D0012280F8452002218C
:1007600080F84410816A0C680023002C27DB0C6899
:10077000E40518D5846B641C8463012C02D002E06C
:10078000022010BD016341630C68C4F30D44241FB3
:10079000C463046BA4680464C96840F8281F027726
:1007A0004377002010BD0C68A40503D58263C0E91F
:1007B0000C1302E0846B641C8463C968816200F8D6
:1007C000442F4370012010BD2DE9FC474FF0000677
:1007D0000400B146009603D094F8440018B107E035
:1007E0000120BDE8FC8784F84560204600F0E0F871
:1007F0006548016841F480410160006800F4804070
:1008000001906248016821F4000101600168226AD8
:1008100011430160206800F58050016841F001013A
:10082000016000F077FB05464FF4FA7709E000BF5E
:1008300000F070FB401BB84203D9032004F8440FBA
:1008400067E0206800F580500068C007F0D120689C
:10085000006920F01C0500F0C1FC4D494D4A0144DF
:10086000914202D245F0080516E04B494B4A01443B
:10087000914202D245F00C050EE04949494A014433
:10088000914209D3484908444849884202D245F078
:10089000040501E045F01005206805614FF40042B1
:1008A0000021204600F0FEF90125A8BBFF20FFF73C
:1008B000CDFE606888B300F02DFB804641F288379A
:1008C0006A460121204600F0E5F800F023FBA0EB8A
:1008D0000800B84217D800984007F1D54FF480526D
:1008E0000021204600F0DEF9B0B900F013FB80468D
:1008F0006A460121204600F0CDF800F00BFBA0EB8A
:100900000800B8420AD901212046FFF7D5FD04F8B6
:10091000445F0320667064E724E018E000988006D6
:10092000E6D56A461F21204600F0B4F8D0B90098F9
:10093000C10603D54FF40061E16000E0E6604007C6
:1009400001D5A66018E04FF48040A06014E0E06894
:10095000A168C00840EA510082B20021204600F0A0
:10096000A1F930B101212046FFF7A6FD84F84450DB
:1009700036E7FF20FFF76AFE49462046FFF79CFD59
:1009800084F8445000202CE74438024004380140E9
:1009900000D3CEFEC0E1E40040F1E9FD40787D01E6
:1009A00000796CFC005A6202001F0AFA80F0FA0219
:1009B000334800B5026887B0002142F0007202603F
:1009C000026802F000720592026842F080620260E2
:1009D000026802F080620592026842F000620260E2
:1009E000026802F000620592026842F001020260B1
:1009F000026802F001020592026842F002020260FF
:100A0000026802F002020592026842F004020260EB
:100A1000026802F004020592026842F0400202609D
:100A2000006800F040000590862000900220CDE98B
:100A30000101032003900B2004906946114800F047
:100A40006DF94FF40060009069460F4800F066F9B8
:100A50003220009069460D4800F060F94FF4C04024
:100A6000009069460A4800F059F9002206213D200D
:100A700000F0B0FA3D2000F09FFA07B000BD000082
:100A800030380240000002400004024000080240EA
:100A9000001802402DE9F047044690F844009146C2
:100AA00082281DD0822084F84400226810694FF605
:100AB000FF7500F01C03208A05EAC02018434FF49C
:100AC000F86303EA8111014321F0020040F00105BF
:100AD000156100F01FFA064601274FF4803810E038
:100AE0000220BDE8F08700BF00F014FA801B4045EB
:100AF00005D304F8447F002060700320F1E72068EC
:100B00000569E807F0D12068406981B2C9F8001092
:100B100084F844700020E4E7F8B5044690F84500F6
:100B2000012839D0012584F84550022084F844007A
:100B300020680026016841F0080101602068006813
:100B400000902846FFF76CFC216800980860206838
:100B5000016841F0040101602068006800900120F4
:100B6000FFF75EFC2168009808602046FFF768FCEC
:100B7000206800F58050816941F40051816120684E
:100B800000F58050816941F00201816184F8445090
:100B900084F845600020F8BD0220F8BDF0B590F85B
:100BA00045200023012A11D0012780F84570022238
:100BB00080F84420002459B1C66A3268002A0ADA53
:100BC000122100F8441F44700120F0BD0220F0BD46
:100BD00000F8447FF7E740F2F455A9420BD9B1FB86
:100BE000F5FCB1FBF5F205FB1C1CBCF1000F00D0BD
:100BF000521C012A43D1326842F040523260C26A2C
:100C0000C1F30C015160C16A0A6842F000420A60F7
:100C1000C16AC968C16234E0D6F800C02CF0405CFB
:100C2000C6F800C033B9C66AD6F800C04CF0805C84
:100C3000C6F800C0C66A7560561EB34214D1C66AB3
:100C4000D6F800C04CF0005CC6F800C0C2F1010646
:100C5000C6EBC61606EB4606D0F82CC001EB86069E
:100C6000C6F30C06CCF80460C66AD6F800C04CF097
:100C7000004CC6F800C0C66A5B1CF668C6629342A8
:100C8000CAD3016801F580514A69520705D504228B
:100C90004A61016801F580514C6000F8447F44705E
:100CA0000020F0BD2DE9F041044690F844004228B0
:100CB0001ED0422084F84400236818694FF6FF765E
:100CC00000F01C05208A06EAC02028434FF4F8658E
:100CD00005EA8111014390B241F003055861206893
:100CE000056100F017F9064601274FF4803810E03F
:100CF0000220BDE8F08100BF00F00CF9801B4045E8
:100D000005D304F8447F002060700320F1E72068D9
:100D10000569E807F0D184F84470EAE72DE9F84F57
:100D200000224FF0010803254FF00F0E0B6808FA60
:100D300002F42340A3426ED14E68012E05D0022E4C
:100D400003D0112E01D0122E12D186684FEA420C28
:100D500005FA0CF7BE43CF6807FA0CF737438760F4
:100D60004668A6430C79C4F30014944034434460AD
:100D7000C668570005FA07FC8C6826EA0C06BC40DA
:100D80003443C4604C68022C01D0122C13D1D40817
:100D900000EB8404A346D4F8209054074FEAD46AA9
:100DA0000EFA0AF629EA06090E6906FA0AF646EA72
:100DB0000906CBF8206004680E7924EA0C0406F0DA
:100DC0000306BE40264306604C68E4006FD53B4CEA
:100DD000266846F480462660246822F0030604F460
:100DE00080440094364C3444A446D4F8084896070E
:100DF000360F0EFA06F7BC43324FB84201D1002736
:100E00002EE0314FB84201D1012729E02F4FB842DF
:100E100002D1022724E04AE02D4FB84201D1032736
:100E20001EE02C4FB84201D1042719E02A4FB842E6
:100E300001D1052714E0294FB84201D106270FE060
:100E4000274FB84201D107270AE0264FB84201D107
:100E5000082705E0244FB84201D1092700E00A27FE
:100E6000B7402743CCF80878204E34684F689C433D
:100E7000FF0300D51C4334601C4E361D34684F6898
:100E80009C43BF0300D51C433460184E08363468B9
:100E90004F689C43FF0200D51C433460134E0C3650
:100EA00034684F689C43BF0200D51C433460521C19
:100EB000102AFFF43BAFBDE8F88F00004438024031
:100EC00000300140000002400004024000080240DF
:100ED000000C0240001002400014024000180240C2
:100EE000001C02400020024000240240003C01405F
:100EF0000069084000D001207047426931EA0202CF
:100F000000D10904816170470AB181617047090409
:100F1000FBE7000001488068704700000C000020DB
:100F20000248816802781144816070470C000020FB
:100F30000B4810B5016841F400710160016841F48B
:100F400080610160016841F480710160032000F05C
:100F500061F8002000F006F800F016F8002010BD3F
:100F6000003C024010B5044600F038F94FF47A71A5
:100F7000B0FBF1F000F038FB00222146501E00F0DB
:100F800029F8002010BD00000A4808B5016841F4A6
:100F900080410160006800F4804000900548001F17
:100FA000016841F080510160006800F080500090BD
:100FB00008BD000044380240002809DB00F01F0291
:100FC000012191404009800000F1E020C0F80011AB
:100FD00070470000F0B40E4B1B680C46C3F30223AD
:100FE000C3F10705042D00D90425191D072901D2D5
:100FF000002300E0DB1E012606FA05F1491E214010
:1010000099409E40761E16403143F0BC01F0C2B9B3
:101010000CED00E0064900F0070208684FF6FF03F8
:10102000184040EA0220034A10430860704700005D
:101030000CED00E00000FA052DE9F84317480168BF
:1010400041F0805101600068154F00F0805001268A
:1010500000903E64FFF75EFF05464FF47A78114C2E
:1010600005E000BFFFF756FF401B40450DD8606804
:10107000C003F7D57E64FFF74DFF0546464607E0FF
:10108000FFF748FF401BB04202D90320BDE8F883B8
:1010900060688003F4D50020F8E700004038024083
:1010A00000000E42007000402DE9F0470E4605009A
:1010B00065D0DFF81481D8F80000F7B200F00F0017
:1010C000B04207D288F80070D8F8000000F00F0096
:1010D000B04254D128683D4C810712D5400703D552
:1010E000206840F4E05020602878000703D520688D
:1010F00040F4604020602068A96820F0F0000843B8
:1011000020602878C0072DD0304968680839012848
:1011100012D0022813D0032811D0096889070029AA
:101120002DDA216821F0030101432160FFF7F2FE6F
:10113000814641F2883A0EE009688903EFE70968C1
:101140008901ECE7FFF7E6FEA0EB0901514502D962
:101150000320BDE8F0872068696800F00C00B0EB60
:10116000810FEFD1D8F80010404601F00F01B142D5
:1011700007D90770006800F00F00B04201D00120CD
:10118000E7E72878400705D52068E96820F4E050B3
:10119000084320602878000706D52068296920F4D4
:1011A000604040EAC100206000F03EF82168084A33
:1011B000C1F30311515CC840064908600648006845
:1011C000FFF7D0FE0020C4E7003C02400838024090
:1011D000C4EB00081800002010000020014800683F
:1011E000704700001800002004480549006809689D
:1011F000044AC1F38221515CC840704718000020A6
:1012000008380240D4EB0008044805490068096822
:10121000044AC1F34231515CC840704718000020B5
:1012200008380240D4EB0008154810B5006810F0EB
:101230000C02144813D01449042A0FD0082A0ED1E6
:101240000F4C241F2268236802F03F025B0207D57F
:101250002068C0F38810A0FB010106E0084610BD1D
:101260002168C1F38811A1FB00010023FFF71EF8DC
:101270002168C1F30141491C4900B0FBF1F010BDE8
:10128000083802400024F40040787D012DE9F84F31
:1012900004006ED02078DFF83C93C007A9F1040564
:1012A0004AD009F104000168C1F38101012908D085
:1012B0000068C0F3810002280AD1D9F8000040027A
:1012C00006D52868800337D560680028E1D033E070
:1012D0006068B0F5803F10D0B0F5A02F286810D01E
:1012E00020F480302860286820F48020286060681E
:1012F000A8B1FFF70FFE06460DE0286840F48030E5
:10130000F4E740F480202860F7E700BFFFF702FE13
:10131000801B642873D828688003F7D50CE0FFF79A
:10132000F9FD064605E000BFFFF7F4FD801B6428C9
:10133000F0D828688003F7D42078DFF89C828007F3
:101340004FF0000A3ED5A348001D016811F00C0FB4
:1013500008D00068C0F3810002280BD1D9F8000042
:10136000400207D42868800716D5E068012800D11C
:1013700012E02BE1E068B8B10120C8F80000FFF7E7
:10138000C9FD064605E000BFFFF7C4FD801B02282B
:10139000C0D828688007F7D52868216920F0F800B0
:1013A00040EAC10028600DE0C8F800A0FFF7B2FDD8
:1013B000064604E0FFF7AEFD801B02281FD8286810
:1013C0008007F7D42078000722D5824E83486169D0
:1013D000703671B101210160FFF79CFD074604E002
:1013E000FFF798FDC01B022809D830688007F7D5A1
:1013F0000EE0C0F800A0FFF78DFD074605E082E093
:10140000FFF788FDC01B02287DD830688007F7D41D
:101410002078400768D5DFF8BCB100270BF13C0B02
:10142000DBF80000C0000BD4DBF8001041F0805165
:10143000CBF80010DBF80000012700F0805000908E
:10144000674E3068C00510D4306840F4807030605A
:10145000FFF760FD009005E0FFF75CFD0099401A82
:10146000022850D83068C005F6D55A4EA0686C36B0
:1014700001280FD00528306810D020F0010030601E
:10148000306820F004003060A068B8B1FFF742FD7A
:1014900000900FE0306840F00100F4E740F00400F5
:1014A0003060F7E7FFF736FD0099411A41F28830C6
:1014B000814266D830688007F4D50EE0FFF72AFD38
:1014C000009007E0FFF726FD0099411A41F28830AD
:1014D000814256D830688007F4D42FB1DBF8001071
:1014E00021F08051CBF80010A069C8B33949091D1B
:1014F0000968C1F3810102294AD00228504607D069
:10150000C8F8600000E03CE0FFF704FD04463BE063
:101510004746C8F86000FFF7FDFC064605E000BF3F
:10152000FFF7F8FC801B02282BD828688001F7D42D
:10153000D4E907010843A16A2A4A490802EB01419C
:10154000626A41EA8211084394F82C1040EA016172
:10155000C9F8001001203866FFF7DCFC044606E0FD
:1015600036E000BFFFF7D6FC001B022809D8286828
:101570008001F7D52CE000BFFFF7CCFC001B022850
:1015800002D90320BDE8F88F28688001F4D41FE059
:101590000128F7D0D9F80000E26900F480019142F7
:1015A00014D1226A00F03F0191420FD147F6C07179
:1015B000626A0140914209D1A26A00F4403191422D
:1015C00004D1E16A00F07060884201D00120D9E7BF
:1015D0000020D7E70438024000004742800E47420F
:1015E000007000400000FFFF10B5401EB0F1807F8A
:1015F00001D3012010BD4FF0E02460610F2160177E
:1016000000F0C8FE0020A06107202061002010BD6E
:1016100070B5040004D094F83900002510B106E03C
:10162000012070BD84F83850204600F023F82420B3
:1016300084F839002068C16821F40051C160204657
:1016400000F002FE2068016921F4904101612068E8
:10165000416921F02A0141612068C16841F40051CB
:10166000C160E563202084F8390084F83A00002046
:1016700070BD000010B500681A4986B088422FD1AD
:101680001948016841F001010160006800F00100A3
:10169000059015481430016841F0100101600068A0
:1016A000012100F0100005904FF40070009002201E
:1016B000CDE90101039007200C4C049069462046B7
:1016C000FFF72CFB2015009069462046FFF726FB0C
:1016D0002520FFF771FC002202212520FFF77AFC6C
:1016E00006B010BD0010014030380240000002403A
:1016F000FEE7000070B50D4C0025C4F890520C4870
:10170000016821F440610160016841F48061016079
:10171000C4F89452022004F5247400F0D5FF01208F
:101720002060022000F0D0FF256070BD00804342A1
:10173000001C02400E4810B5016886B041F08001DF
:1017400001600068012400F0800005903020CDE9A0
:1017500000040220CDE9024069460648FFF7DEFAA0
:101760000548C0F89442C0F8904206B010BD000091
:1017700030380240001C02400080434270B50D4CDE
:101780000025C4F890520C48016821F440610160C2
:10179000016841F4806101600126C4F8946202206E
:1017A00004F5247400F090FF2660022000F08CFF06
:1017B000256070BD00804342001C02402DE9F047C7
:1017C000814616480024016821F4406101600168E7
:1017D0000160134E254627464FF00108C6F8907267
:1017E000022000F071FFC6F890826006040ED6F861
:1017F000140208B1641CE4B2012000F065FF6D1C06
:10180000EDB2082DEAD3B9F1000F04D0FFF772FF53
:101810002046BDE8F087FFF7B1FFF9E7001C024062
:10182000008043422DE9F04106461448016821F446
:1018300040610160016841F480610160104C002743
:10184000C4F890723D464FF00108F009C4F89402C4
:101850007006060E022000F037FFC4F890820220C6
:1018600000F032FFC4F89072022000F02DFF6D1CD2
:10187000EDB2082DE9D3BDE8F0810000001C024064
:101880000080434270B50D48016821F44061016059
:10189000016841F480610160094C0120C4F89402A0
:1018A000C4F89002042004F5247400F00DFF002514
:1018B0006560042000F008FF256070BD001C024038
:1018C000008043420E4810B5016821F44061016078
:1018D000016841F4806101600A4C0020C4F8900264
:1018E000C4F89402042004F5247400F0EDFE0120F5
:1018F00020606060BDE81040042000F0E5BE0000FC
:10190000001C02400080434270B512480024016868
:1019100021F440610160016801600F4D0126C5F8A6
:101920009462304600F0D0FEC5F89062012000F0CD
:10193000CBFE07E0641CE4B2FA2C03D9FFF7C2FF28
:10194000012070BDD5F814020028F3D1C5F890022B
:1019500070BD0000001C0240008043421CB5FEF731
:1019600030FC0121072000F097F9642000F0A0FE70
:101970000021072000F090F9642000F099FEFEF7A6
:1019800022FC154801788DF8001041788DF801107F
:1019900081788DF80210C1788DF8031001798DF8E7
:1019A000041040798DF805000D480C4901600121B3
:1019B0008A03C0E90112CA02C26000220282C0F892
:1019C00014D0C0E90612C9050162FEF7FDFE002829
:1019D00000D001201CBD00006CE10020008002400E
:1019E000D80100202DE9F05FDFF830A105468B46D5
:1019F0005446DAF80400FEF7AEFC8146A068FEF714
:101A0000AAFC8046E068FEF7A6FC064609EB080043
:101A100087191020287010370124394640A000F0A3
:101A2000A9FCF81707EB506121F07F00381ACF119D
:101A3000C0B2002F02DD00BF40F08000285504F145
:101A40000104EEDC4FF00000285504F101044FF0D2
:101A50000401295504F101044FF04D022A5504F107
:101A600001044FF051022A5504F101044FF05402D1
:101A70002A5504F1010457462A5504F101044A4647
:101A8000295504F101044FF0C201295504F1010464
:101A9000285504F101044FF03C00285504F10104DD
:101AA0004FEA1920285504F1010405F8049004F1C7
:101AB000010405EB0400DAF80410FEF728FC4C449E
:101AC00049461BA000F056FCB8F1000F10DD4FEAAC
:101AD00018202855641C424605F80480641C281907
:101AE000B968FEF714FC4444414616A000F042FCDD
:101AF000002E0EDD300A2855641C32462E55641C1B
:101B00002819F968FEF703FC3444314612A000F0AE
:101B100031FC0020CBF80040BDE8F09FA40000207D
:101B2000446174616C656E3D25640D0A000000001F
:101B3000636C69656E7449446C656E3D25640D0A7D
:101B400000000000557365726E616D656C656E3DD9
:101B500025640D0A0000000050617373776F726492
:101B60006C656E3D25640D0A000000002DE9F0470C
:101B70001D46174688468246DDF82090FEF7EBFBAF
:101B80000646002F03D000BF4FF0010001E04FF0E8
:101B90000000304400F1040002D04FF0820101E067
:101BA0004FF0A20129704FF0010400BF4FEAE0712D
:101BB00000EB516222F07F01A0EB0100C1B24FEABD
:101BC000E210002802DD00BF41F08001295504F138
:101BD0000104EBDC4FF00000285504F101044FF044
:101BE0000100285504F101044FEA1620285504F19C
:101BF000010432462E5504F1010405EB0400514660
:101C0000FEF785FBA01917B105F80080401CC9F844
:101C100000000020BDE8F087FEE7FEE7144810B59D
:101C2000026886B0002142F002020260006800F003
:101C3000020005904FF48050CDE900010120029090
:101C40000320039069460B48FFF768F8FFF772FD21
:101C5000FFF718FE4020FFF7E5FDFFF755FE0446AD
:101C6000FFF730FEFF2000F027F806B0204610BD39
:101C7000303802400004024010B5FFF703FE412057
:101C8000FFF7D0FDFFF740FE0020FFF797FD044669
:101C9000FFF718FE204610BD70B50C460546FFF74D
:101CA000EBFF0122AA402CB10243D0B2BDE8704044
:101CB00000F002B89043F9E710B50446FFF7E2FDE3
:101CC0004020FFF7AFFDFFF71FFE2046FFF7AAFDFC
:101CD000FFF71AFEFFF7F6FDBDE810400A2000F0FE
:101CE000E7BC0000084C002000F01EF8012803D1DA
:101CF00002212046FFF701F904A000F03BFB64201D
:101D00000BF058FFEFE700000004024020534B594E
:101D10005F4150502054485241442049532072752D
:101D20006E6E696E670D0A002DE9F0470126304C92
:101D30007703DFF8C080DFF8C090304D01281DD058
:101D40002078A0B108212846FFF7D2F8C0B10421BD
:101D50002846FFF7CDF898B139464046FFF7C8F856
:101D600070B101214846FFF7C3F8012808D00821C7
:101D70002846FFF7BDF8012826D037E02670E1E7B6
:101D80000A2000F095FC0020207008212846FFF76B
:101D9000AFF880B104212846FFF7AAF870B13946A0
:101DA0004046FFF7A5F858B101214846FFF7A0F8D3
:101DB000012807D01AE00120BDE8F0870220FBE7E8
:101DC0000320F9E70420F7E704212846FFF790F8FD
:101DD00001280BD139464046FFF78AF8012805D182
:101DE00001214846FFF784F800B926700020E3E798
:101DF0001C0000200008024000000240001C0240BD
:101E00001CB502E019A000F0B5FA03F0F3FF0028BA
:101E1000F8D11BA000F0AEFA00F05AF91D4800906E
:101E2000002301224DF6C0211BA00CF00FFE1D4C1B
:101E30000023211DA0600720CDE900014FF40072AE
:101E400019A11B480CF034FC0CF06CFC024600207D
:101E5000034600900121A0680CF06CFE20680BF096
:101E6000DFFEBDE81C400CF005B800004C5749509F
:101E700020696E6974206661696C0D0A00000000BB
:101E80004C57495020696E697420537563636573BC
:101E9000730D0A00292100086D7174742068656152
:101EA00072740000000000206170707461736B0038
:101EB000E51C00082DE9FE435F4C604E40F25B706C
:101EC0006080B079D6F80710002540EA012004F1BF
:101ED0000C012A460860257065702946102005F01F
:101EE0008DF86061628804F10C0104F03DFE38B1A8
:101EF000606904F099FEBDE8FE4351A000F03ABAD3
:101F000060694D4A0A21121DC161012302F10C01D1
:101F100004F0E8FFA288717ACDE90012B046337A66
:101F2000F279B1794BA000F025FAC82007F03EF80D
:101F30004149A0611C31FFF755FD51A0E16900F056
:101F400019FAD4E9060104F0B1F8A0690BF020FDFC
:101F50004F4F4FF47A796078B0B92078012813D1C7
:101F6000642007F023F83449A0611C310091034636
:101F700001220021A068FFF7F9FDD4E9060104F071
:101F800095F8A0690BF004FD02A9606905F0ECF872
:101F900028B110F10C0F33D0C01C45D047E00BF036
:101FA00089FC49463A48FEF7CBF90298066810E0EA
:101FB0007289C5F57A718A4200D90A467819716822
:101FC000FEF7A5F9708905444D4501D94D4602E05B
:101FD0003668002EECD129462D4804F08BFC0026F3
:101FE00005E0B95D2BA000F0C5F9761CF6B2AE4253
:101FF000F7D300250BF09AFC029804F0B9FC16E028
:10200000606904F04FFD606904F00EFE98F8091055
:10201000009198F8083098F8072098F8061020A04A
:1020200000F0A8F9BDE8FE8324A000F0A3F90A207F
:102030000BF0C0FD8FE70000B40000206CE1002031
:10204000C1ACBDD3B7FECEF1C6F7CAA7B0DC0D0A4E
:1020500000000000C1ACBDD3C9CFB7FECEF1C6F7BA
:1020600025642E25642E25642E25642CB1BEB5D89A
:10207000B6CBBFDABAC5CEAA3A25640D0A00000075
:102080007463705F6C656E203D25640D0A0000006E
:10209000B4E1002030782578202020200D0A0000AF
:1020A000B7FECEF1C6F725642E25642E25642E25B5
:1020B00064B6CFBFAAC1ACBDD30D0A002074637053
:1020C000207461736B2054494D454F55540D0A00DF
:1020D0001CB509490B20CDE9000100234FF4007223
:1020E00006A109480CF0E4FA012804D0BDE81C4020
:1020F00006A000F03FB91CBDD40000207463705FDF
:102100006369656E74000000B51E0008546370209A
:10211000436C69656E742054687265616420466121
:10212000696C0D0A00000000084810B5007801280D
:1021300006D1002201210648FEF7E6FE04F012FC5B
:10214000BDE8104003A000F015B90000B400002065
:10215000000402404D51545420486561727420546B
:10216000494D45522069732072756E6E696E670D18
:102170000A00000010B50CF0C7FA012801D00BF0DE
:1021800091FFBDE81040FEF7CBBE000030B593B024
:1021900030216846FEF7D4F814210CA8FEF7D0F8D9
:1021A00020480025016841F080510160006800F07E
:1021B000805011901C48016841F440410160006862
:1021C000022400F44040119001200090000401908E
:1021D0008001CDE90640192008904FF4B470CDE994
:1021E000090404200B906846FFF750F808B172B656
:1021F000FEE7FEF721FF08B172B6FEE70CA90F203B
:1022000081E831004FF4A0500F904FF480501090AF
:1022100005210CA8FEF748FF002801D072B6FEE7A2
:1022200013B030BD403802400070004005480168DE
:1022300041F47001016003494FF00060803908608B
:102240007047000088ED00E02DE9F0410446006889
:102250000169E26821F44051114301612169A068DC
:10226000E26908436169114308432168CA6849F279
:102270000C639A430243CA6020684169A26921F451
:10228000407111434161E069192764253226B0F598
:10229000004F354A354920684FF0000806D0884283
:1022A00001D0904236D1FEF7AFFF35E0884201D031
:1022B000904202D1FEF7A8FF01E0FEF795FF6168AA
:1022C0004A18A0FB070148EB0803FDF7EFFF0146A2
:1022D000B0FBF5F00201B1FBF5F06FF018035843C5
:1022E00001EB800006EBC000B0FBF5F000F0F80059
:1022F00002EB4002B1FBF5F0584301EB800006EB26
:10230000C000B0FBF5F000F00700216810448860C1
:10231000BDE8F081FEF768FF61688B0F8A00A0FBC3
:102320000701FDF7C3FF0146B0FBF5F06FF018029F
:10233000504301EB800006EB0010B0FBF5F000F01D
:10234000F002B1FBF5F002EB0012B1FBF5F06FF01B
:102350001803584301EB800006EB0010B0FBF5F0CA
:1023600000F00F00D1E70000001401400010014010
:10237000FEE700000FB4054B10B503A9044A02980C
:1023800000F028F810BC5DF814FB0000A547000819
:10239000940100200907090E002804DB00F1E02069
:1023A00080F80014704700F00F0000F1E02080F882
:1023B000141D704702E008C8121F08C1002AFAD194
:1023C00070477047002001E001C1121F002AFBD1B5
:1023D000704700002DE9FF4F8DB09B460F46044625
:1023E000002606E025280BD05A460F999047641C1A
:1023F000761C20780028F5D111B03046BDE8F08F6A
:102400000025A8460122984900E0054314F8013F41
:10241000203B02FA03F00842F7D120782E2817D18A
:1024200014F8010F45F004052A280ED06FF02F0292
:102430002078A0F1300109290AD808EB880102EBC5
:10244000410100EB0108641CF2E757F8048B641C9F
:1024500020786C280DD004DC4C2812D06A2811D1C9
:1024600004E074280DD07A280CD10AE045F4001558
:1024700007E0617845F48015814202D1641C05F5BE
:102480008015641C2278692A45D008DC002AB3D064
:10249000582A69D0632A10D0642A08D13BE0702AF8
:1024A00067D0732A13D0752A5CD0782A5CD0104686
:1024B0005A460F999047761CD3E017F8040B8DF815
:1024C000000000208DF80100E946012003E057F8E4
:1024D000049B4FF0FF3069074FF0000501D40AE07C
:1024E0006D1C45450DDA8542FADB19F80510002907
:1024F000F6D106E06D1C8542FCDB19F805100029B9
:10250000F8D12E4404E019F8010B5A460F99904770
:102510006D1EF8D2A5E00A200021CDE90801C5F31F
:10252000025002280DD001CFC117031E71F1000324
:102530000DDA4FF0000CD0EB0C006CEB01012D23F9
:1025400008E0FF1D27F00707F7E80201EDE72B057C
:1025500004D52B238DF8283001233BE0EB0739D03D
:102560002023F7E70A2000E010200021CDE9080130
:1025700007E01020002145F00405CDE908014FF0E7
:102580000808C5F3025002280FD001CF00214FF0F8
:10259000000A2B071FD5702A0DD0DDE908C38CF087
:1025A000100C5CEA030C0CD015E0FF1D27F00707A8
:1025B000F7E80201EBE740228DF828204FF0010AEE
:1025C0000BE050EA010306D030238DF828308DF857
:1025D000292002239A46582A04D024A20DF120096A
:1025E0000B9209E026A2F9E7DDE90823FDF75EFE7C
:1025F0000B9B9B5C09F8013D50EA0102F4D1ADEB65
:10260000090020300890680701D44FF001080899AC
:10261000884502DDA8EB010000E00020804600258F
:1026200006E00AA85A46405D0F9990476D1C761C3B
:102630005545F6DB04E030205A460F999047761C4A
:10264000B8F10001A8F10108F5DC05E019F8010B6B
:102650005A460F999047761C0899481E0890002901
:10266000F4DC641CC5E60000092801003031323377
:1026700034353637383961626364656600000000BE
:1026800030313233343536373839414243444546A8
:102690000000000010B501F0EBFEBDE81040002284
:1026A000024941F2883007F033B90000952600084E
:1026B00030B504464FF47A7502E0284600F004F87D
:1026C000641EA4B2F9D230BD70B54FF0E0240022F0
:1026D0006569B421A3694843A1698B4201D95B1A9A
:1026E00001E06E1A33441A440B468242F4D370BDA3
:1026F00070B50646C0EBC600324900EB800001EB26
:10270000C004042E06D330A340F2812237A13EA09C
:10271000FFF730FE2078002842D0C6EBC601294BD7
:1027200001EB810103EBC103002501220C330128D9
:102730000CD0022811D003283FD0BDE8704022A35E
:1027400040F2C5223BA130A0FFF714BE022020704A
:102750006570A2702846E5700DE0A078401E10F06C
:10276000FF00A0701CD1E078401CC0B2E0700428CB
:1027700007D0A07060783246BDE87040194600F07E
:1027800065B960780146401C02280AD2314E06EB3A
:1027900081010E1D05D0496819B16070A270E57005
:1027A00070BDD4F8106126B100211846D4F8142168
:1027B000B0472570C4F8105170BDA068401EA060DD
:1027C000F7D070BD64E600202E2E5C4C5749505C5B
:1027D0006C7769702D312E342E315C7372635C63BB
:1027E0006F72655C646E732E6300000061727261CB
:1027F0007920696E646578206F7574206F66206239
:102800006F756E6473000000417373657274696F55
:102810006E2022257322206661696C6564206174D4
:10282000206C696E6520256420696E2025730D0A71
:1028300000000000756E6B6E6F776E20646E735FC4
:102840007461626C6520656E747279207374617452
:10285000653A0000E800002038B50F480F4C20F022
:102860000300A0600EA003F031F80090606800281B
:1028700011D10AF0FBFE606000280CD000220C4948
:102880000AF04CFD00220B4960680AF0FCFE694624
:10289000002000F0ABF938BDC7EA0020DC000020C2
:1028A0003230382E36372E3232322E32323200006B
:1028B0007CEC0008DD2800085FF0030210F8011B23
:1028C000B2EB911F08D002E0491EC9B2401C00299A
:1028D000FAD101780029F1D1401C70472DE9FE4F53
:1028E00016461289B2F5007F71D81A2A6FD3544C5C
:1028F00000233046A16805F0F3FA3189884266D199
:10290000A768A046388803F081FB04285FD2C0EB9B
:10291000C00000EB80014B4800EBC1042078022886
:1029200055D14FF0030984F80090F87800F00F00BB
:102930006071B88803F06AFB8346F88803F066FB91
:102940000546B8784FF0000A000666D56079E8BB06
:10295000BBF1010F61D1D8F8080004F10C010C3073
:102960008B4603464FEA090710F8012BB7EB921F7D
:1029700010D009E091F800C090F80080C4454CD117
:10298000521E401CD2B2491C002AF3D10278491CC5
:10299000002AE9D11846FFF78FFF4FF480784FF4F3
:1029A0008069001D37E000BFFFF786FF074600681B
:1029B000009078680190BDF800103889ADF80800E3
:1029C000414520D1BDF80210414501E025E031E04C
:1029D00019D1BDF80800484515D1019803F02DFB29
:1029E0001949A060884200D9A160D7F80A00C4F84C
:1029F0000C01D4F81031EBB104F586715846D4F8C7
:102A00001421984716E0BDF8080003F0FFFA6D1E88
:102A10003844ADB20A30002DC6D1D4F810312BB1F4
:102A2000002104F10C00D4F81421984784F800A088
:102A3000C4F810A13046BDE8FE4F05F0DBBA000037
:102A4000DC00002064E60020803A09002DE9F04710
:102A500090460E460446022806D339A34FF40F725F
:102A600040A146A0FFF786FC4F4810EB840702D038
:102A700050F8240030B932A340F23D224BA13FA0D0
:102A8000FFF778FC00224FF48871104604F07AFEBC
:102A9000050050D0286830B129A340F243224CA150
:102AA00036A0FFF767FC6C684FF000094046C4F899
:102AB0000090C4F80490C4F8089003F0A7FA24F832
:102AC000020B012004F8020B010224F8081B761EF9
:102AD0002346641C002003E0401C04F8012BC0B214
:102AE00016F8012F2E2A01D0002AF5D1187030785F
:102AF0000028EDD104F8019B61F30F0861F31F4832
:102B0000C4F80080A888201A001D81B2284605F06C
:102B1000B3FB254C39460C3C352260680AF08AFC30
:102B20003A463523294660680AF0C6FD0446284621
:102B300005F060FA01E04FF0FF342046BDE8F08771
:102B40002E2E5C4C5749505C6C7769702D312E34B9
:102B50002E315C7372635C636F72655C646E732E9E
:102B600063000000646E7320736572766572206F77
:102B70007574206F662061727261790041737365AC
:102B80007274696F6E2022257322206661696C65FC
:102B900064206174206C696E6520256420696E2054
:102BA00025730D0A00000000E8000020646E732009
:102BB00073657276657220686173206E6F2049506C
:102BC0002061646472657373207365740000000093
:102BD00070627566206D75737420626520696E2061
:102BE0006F6E6520706965636500000002280CD275
:102BF000064A5268002A08D0002906D00968002930
:102C000003D0024A0C3242F820107047DC0000204A
:102C100010B500F00BF8BDE81040002202494FF457
:102C20007A7006F075BE0000112C0008064810B539
:102C30004068002807D000242046FFF759FD641C97
:102C4000E4B2042CF8D310BDDC00002010B504461B
:102C50000068417800290DD002290BD00078102897
:102C600006D01CA340F2B15224A12CA0FFF782FB96
:102C7000FB2014E0426812B10278102A01D0FA2039
:102C80000DE0227A032A01D0022907D0D10701D012
:102C900003F0DCFF2068816A51B907E0F32020715E
:102CA0002068BDE810400C3006F00EBE406A30B11E
:102CB00008A340F2BC5224A118A0FFF75BFB2168D7
:102CC00004204870206884622068BDE8104000F04D
:102CD00049B800002E2E5C4C5749505C6C776970E7
:102CE0002D312E342E315C7372635C6170695C61CE
:102CF00070695F6D73672E63000000006D73672D50
:102D00003E636F6E6E2D3E74797065203D3D204EA2
:102D10004554434F4E4E5F5443500000417373651A
:102D20007274696F6E2022257322206661696C655A
:102D300064206174206C696E6520256420696E20B2
:102D400025730D0A00000000616C726561647920D2
:102D500077726974696E67206F7220636C6F736934
:102D60006E6700002DE9F041040006D152A34FF434
:102D70003C725BA15EA0FFF7FDFA2078102806D018
:102D80004DA340F2F12265A159A0FFF7F3FA607854
:102D9000042806D048A340F2F22268A154A0FFF70D
:102DA000E9FA606830B944A340F2F3226CA150A064
:102DB000FFF7E0FAA06A30B93FA34FF43D726DA16E
:102DC0004BA0FFF7D7FAA06A007A00F0010700F0E5
:102DD000020603281FD000256068017E012920D04B
:102DE00037B1002108F09CFF0021606806F017FF52
:102DF0001EB10021606809F0C5F9BDB104220021AF
:102E0000606808F0B5F90021606807F095FA60681D
:102E100006F086FF0FE001250021606806F07EFFC6
:102E2000DAE7002106F0FBFE002DF0D132463946EC
:102E3000606809F0F3F920B16068007E012821D0B4
:102E400027E0A16A00200871A062607035B160605F
:102E5000E36A1BB100220421204698472FB1E36AA0
:102E60001BB100221146204698472EB1E36A1BB1E0
:102E7000002202212046984704F10C00BDE8F041F1
:102E800006F022BD0CA340F22D3241A118A0FFF79D
:102E900071FA4849606809F075F90422464960688A
:102EA00008F066F94549606807F046FA214660680F
:102EB000BDE8F04106F032BF2E2E5C4C5749505C05
:102EC0006C7769702D312E342E315C7372635C61C6
:102ED00070695C6170695F6D73672E63000000004C
:102EE000696E76616C696420636F6E6E000000002D
:102EF000417373657274696F6E2022257322206698
:102F000061696C6564206174206C696E652025645C
:102F100020696E2025730D0A000000007468697333
:102F200020697320666F7220746370206E6574630D
:102F30006F6E6E73206F6E6C79000000636F6E6E43
:102F4000206D75737420626520696E2073746174DE
:102F500065204E4554434F4E4E5F434C4F53450002
:102F600070636220616C726561647920636C6F7359
:102F700065640000636F6E6E2D3E63757272656EE0
:102F8000745F6D736720213D204E554C4C0000004E
:102F9000436C6F73696E672061206C697374656E32
:102FA00020706362206D6179206E6F7420666169A4
:102FB0006C2100000D9500089186000899380008E2
:102FC00010B5044600684368002B11D0017801F069
:102FD000F001102919D0202911D040290AD021A3AD
:102FE00040F2034229A12FA0FFF7C4F9FA202BE0F9
:102FF000F42029E01846A16806F084F824E0A289AC
:103000001846A1680AF016FA1EE0417809B1F720C7
:103010001AE006F0E1FA2068A289A16840682C4B0A
:1030200006F05AFF207180B92168032291F8200030
:103030004A70C0F340000028206810F8201F0AD012
:1030400041F004010170FB2020712068BDE81040B0
:103050000C3006F039BC21F0040101702068846254
:1030600010BD00002E2E5C4C5749505C6C77697087
:103070002D312E342E315C7372635C6170695C613A
:1030800070695F6D73672E6300000000496E7661A2
:103090006C6964206E6574636F6E6E207479706500
:1030A00000000000417373657274696F6E20222501
:1030B0007322206661696C6564206174206C696E9E
:1030C0006520256420696E2025730D0A000000002C
:1030D000D530000870B5154604000CD06078032880
:1030E00006D023A340F2B6322BA133A0FFF742F95A
:1030F000A06A18B10FE06FF0050070BD94F82000D1
:10310000400709D41AA340F2B73236A12AA0FFF72C
:1031100031F9A06A00B105712078102803D115B9E2
:10312000204606F059FA94F82000002640F3800566
:1031300020F0040084F82000A66266706D1C09D19E
:10314000FDF764FA94F9081011F1090F00DB2672FB
:10315000FDF770FAE36A1BB100220221204698476E
:103160001DB104F10C0006F0AFFB002070BD0000A3
:103170002E2E5C4C5749505C6C7769702D312E3483
:103180002E315C7372635C6170695C6170695F6D44
:1031900073672E6300000000636F6E6E2D3E7374C4
:1031A000617465203D3D204E4554434F4E4E5F4374
:1031B0004F4E4E4543540000417373657274696FFE
:1031C0006E2022257322206661696C65642061741B
:1031D000206C696E6520256420696E2025730D0AB8
:1031E0000000000028636F6E6E2D3E63757272657D
:1031F0006E745F6D736720213D204E554C4C292025
:103200007C7C20636F6E6E2D3E696E5F6E6F6E5FAD
:10321000626C6F636B696E675F636F6E6E6563741C
:103220000000000070B501680446487800281BD0F3
:10323000022819D003280CD00878102806D030A313
:1032400040F2473238A140A0FFF794F8FB202071EC
:1032500031E091F82000400706D429A340F24A3219
:1032600044A139A0FFF786F8206803F0EFFC20683E
:103270004168A1B1027802F0F002102A27D000259F
:10328000202A05D0402A08D1084605F095FF04E021
:10329000CD61206840680AF0F9F92068456020682F
:1032A000C36A43B10022114698472068C36A13B12C
:1032B00000220221984720680C3006F00BFB002802
:1032C0001CD02068BDE870400C3006F0FDBA816A61
:1032D00009B9406A30B10AA340F25F322DA11AA0A9
:1032E000FFF748F821680420487003202072206806
:1032F00084622068BDE87040FFF734BD70BD0000F7
:103300002E2E5C4C5749505C6C7769702D312E34F1
:103310002E315C7372635C6170695C6170695F6DB2
:1033200073672E63000000006D73672D3E636F6E40
:103330006E2D3E74797065203D3D204E4554434FBF
:103340004E4E5F5443500000417373657274696F51
:103350006E2022257322206661696C656420617489
:10336000206C696E6520256420696E2025730D0A26
:1033700000000000626C6F636B696E6720636F6EA4
:103380006E65637420696E2070726F677265737307
:1033900000000000616C7265616479207772697465
:1033A000696E67206F7220636C6F73696E670000CF
:1033B00010B5044600686FF00C014068002825D065
:1033C000227C002AA26801D0006800E040681060FA
:1033D000002020712068027802F0F002102A21D02B
:1033E000202A15D0402A0CD013A340F29B521CA1D6
:1033F00021A0FEF7BFFF2068BDE810400C3006F0AA
:1034000063BA227C12B14068007C11E02171F2E7BE
:10341000227C40680AB1408A0AE0027C5207F5D556
:10342000808A05E0217C406809B1408B00E0808BF8
:10343000E1680880DFE700002E2E5C4C5749505CA5
:103440006C7769702D312E342E315C7372635C6140
:1034500070695C6170695F6D73672E6300000000C6
:10346000696E76616C6964206E6574636F6E6E5F01
:103470007479706500000000417373657274696F40
:103480006E2022257322206661696C656420617458
:10349000206C696E6520256420696E2025730D0AF5
:1034A0000000000010B5044600202071206840682C
:1034B00010B9204604F0B2FF2068BDE810400C307F
:1034C00006F002BA2DE9F04105460020287128686F
:1034D000416891B1007810280FD1AC6807034FF60E
:1034E000FF78BC4201D3464600E0A6B228683146C8
:1034F000406808F073FCA41BF3D12868BDE8F041D4
:103500000C3006F0E1B9000010B50446006890F9EF
:10351000081011F1090F07DB0178102901D0FA21F9
:1035200002E0417831B1FB212171BDE810400C303F
:1035300006F0CAB94168002920D0012141702068F5
:10354000816A09B9406A30B10DA340F24C5216A10C
:103550001CA0FEF70FFFE06830B909A340F24E52FD
:1035600023A118A0FEF706FF2068846221680020CE
:1035700048622068BDE8104000F044B8F321D3E76A
:103580002E2E5C4C5749505C6C7769702D312E346F
:103590002E315C7372635C6170695C6170695F6D30
:1035A00073672E6300000000616C726561647920AE
:1035B00077726974696E67206F7220636C6F7369CC
:1035C0006E670000417373657274696F6E20222507
:1035D0007322206661696C6564206174206C696E79
:1035E0006520256420696E2025730D0A0000000007
:1035F0006D73672D3E6D73672E772E6C656E20217F
:103600003D2030002DE9F047044690F82000A16AE3
:103610004FF0000880070E7C01D4700701D5012708
:1036200000E0002734B959A340F2C34261A165A06C
:10363000FEF7A0FE6078012806D054A340F2C442F1
:103640006BA160A0FEF796FEA06A30B94FA340F2CE
:10365000C5426FA15BA0FEF78DFE606830B94BA339
:1036600040F2C64271A157A0FEF784FED4E90901D9
:10367000C968884206D345A340F2C74271A151A050
:10368000FEF778FEA06A616A826802EB010AC268EE
:10369000501AB0F5803F04D34FF6FF7546F002068E
:1036A00000E085B260684FF00009B0F86600A842FB
:1036B00007D205461FB125B96FF0060616E046F0A1
:1036C00002064819904206D930A340F2F5426AA199
:1036D0003CA0FEF74FFE33462A465146606809F08B
:1036E000D9F8060001D0701C3BD187B1A06AC06830
:1036F000A8420CD9E36A1BB12A4603212046984709
:1037000094F8200040F0100084F8200010E0606879
:1037100040F66932B0F86610914203D9B0F86800FB
:10372000052805D3E36A1BB12A46032120469847A2
:1037300016B1701C14D014E0606A28446062A16A5B
:10374000CA68904200D027B1C8604FF00108C4F8A1
:103750002490606807F0C6F9B8F1000F04D10DE0BD
:103760007FB1A16AC1F80C90A06A0671C4F82890D4
:1037700084F8019004F10C0006F0A6F80020BDE8E2
:10378000F087606807F0AEF9F8E700002E2E5C4C79
:103790005749505C6C7769702D312E342E315C7333
:1037A00072635C6170695C6170695F6D73672E63E1
:1037B00000000000636F6E6E20213D204E554C4C82
:1037C00000000000417373657274696F6E202225DA
:1037D0007322206661696C6564206174206C696E77
:1037E0006520256420696E2025730D0A0000000005
:1037F000636F6E6E2D3E7374617465203D3D204E87
:103800004554434F4E4E5F57524954450000000007
:10381000636F6E6E2D3E63757272656E745F6D734D
:103820006720213D204E554C4C000000636F6E6EAA
:103830002D3E7063622E74637020213D204E554CE6
:103840004C000000636F6E6E2D3E77726974655F89
:103850006F6666736574203C20636F6E6E2D3E63E9
:10386000757272656E745F6D73672D3E6D73672E32
:10387000772E6C656E000000646F5F777269746507
:103880006D6F72653A20696E76616C6964206C6553
:103890006E677468210000002DE9F0410E460400B7
:1038A00006D133A34FF4B1723BA13FA0FEF762FDF6
:1038B00000276760FCF7AAFE2672FCF7BBFE65785E
:1038C0006770E36A7BB10022042120469847E36ACF
:1038D0004BB10022114620469847E36A1BB10022F3
:1038E00002212046984704F11000804605F0D0FFE1
:1038F00018B10021404605F09BFF04F114008046FA
:1039000005F0C6FF18B10021404605F091FF012DDA
:103910000FD0042D0DD0032D0BD0A06A002824D089
:10392000BDE8F04112A34FF4C9722AA11EA0FEF710
:1039300021BD94F82010C1F3800021F0040184F827
:103940002010002811D1A06A30B909A340F28B12CF
:1039500027A115A0FEF70EFDA06A067104F10C0068
:10396000A762BDE8F04105F0AFBFBDE8F0810000FF
:103970002E2E5C4C5749505C6C7769702D312E347B
:103980002E315C7372635C6170695C6170695F6D3C
:1039900073672E6300000000636F6E6E20213D2070
:1039A0004E554C4C00000000417373657274696F92
:1039B0006E2022257322206661696C656420617423
:1039C000206C696E6520256420696E2025730D0AC0
:1039D00000000000636F6E6E2D3E63757272656E3F
:1039E000745F6D7367203D3D204E554C4C000000C8
:1039F000636F6E6E2D3E63757272656E745F6D736C
:103A00006720213D204E554C4C0000002DE9F84F19
:103A100090468946050010D0B8F80A002A2864D3D9
:103A2000D8F804604FF4807A344634F80E0F5045CD
:103A30005BD12079062858D108E02EA340F2BB22A2
:103A400036A13AA0FEF796FCBDE8F88F607904280D
:103A50004BD16088082848D1D4F80E000090A169A5
:103A6000281D06D0686820B1814202D101273B465B
:103A700001E00027022304F108026946284600F00D
:103A80001BFDE088504530D1002F2ED0022002F0DF
:103A9000BDFAE080D4F80E00A0616868C4F80E009A
:103AA00095F82200062806D012A340F211322A49C6
:103AB0001EA0FEF75FFCA068C4F81200A089E08297
:103AC000A0683060A089B080D9F80010A160B9F872
:103AD0000400A081D9F80010C6F80610B9F8040057
:103AE0007081AA69414628469047404604F082FA10
:103AF000AAE700002E2E5C4C5749505C6C77697029
:103B00002D312E342E315C7372635C6E6574696680
:103B10005C6574686172702E630000006E65746984
:103B20006620213D204E554C4C00000041737365CA
:103B30007274696F6E2022257322206661696C653C
:103B400064206174206C696E6520256420696E2094
:103B500025730D0A0000000020ED00082DE9F34F49
:103B600085B04FF00A0B00240646DA465F46029401
:103B7000D9460194CDF800404F4904EB840001EB95
:103B80008008039098F812500A2F16D0002D24D0E8
:103B9000012D08D0022D06D248A340F22B1251A1CC
:103BA00060A0FEF7E7FB66B13168D8F804008142F7
:103BB00007D160B207B0BDE8F08F002DE8D167B241
:103BC0000BE0012D17D0022D07D398F813000199AF
:103BD000884202D34FFA84FA0190641CE4B20A2CA2
:103BE000CAD3069881074FF0FF30E3D40A2F18D0CC
:103BF0001ADAFCB242E03048039950F8210000285C
:103C000098F8130006D000998842E6D34FFA84F959
:103C10000090E2E702998842DFD34FFA84FB0290DA
:103C2000DBE70699C907C5D0BAF10A0F0FDA0AF027
:103C3000FF04214804EB840150F8210090B11FA338
:103C400040F2711242A137A0FEF794FB0AE0BBF1EB
:103C50000A0F02DA0BF0FF0404E0B9F10A0FA9DA47
:103C600009F0FF040A2C06D314A340F283123EA1EC
:103C70002CA0FEF77FFB204600F096F80A2C06D316
:103C80000EA340F2871238A126A0FEF773FB0A4864
:103C900004EB840100EB8105A87C30B107A34FF44D
:103CA000C47236A11FA0FEF765FB0EB130686860D4
:103CB0000020E8747DE700009CE500202E2E5C4C7F
:103CC0005749505C6C7769702D312E342E315C73FE
:103CD00072635C6E657469665C6574686172702E8F
:103CE000630000007374617465203D3D20455448B5
:103CF0004152505F53544154455F50454E44494EE4
:103D000047207C7C207374617465203E3D204554BF
:103D1000484152505F53544154455F535441424CC3
:103D200045000000417373657274696F6E2022252F
:103D30007322206661696C6564206174206C696E11
:103D40006520256420696E2025730D0A000000009F
:103D50006172705F7461626C655B695D2E71203D9C
:103D60003D204E554C4C000069203C204152505F94
:103D70005441424C455F53495A4500006172705F9F
:103D80007461626C655B695D2E7374617465203D5E
:103D90003D204554484152505F53544154455F457E
:103DA0004D5054590000000070B50C4D00EB8006DA
:103DB000002455F8260018B104F01CF945F82640F7
:103DC00005EB860006498474C47484604460D1F8AD
:103DD0000620C2604989018270BD00009CE5002078
:103DE000DEEB00082DE9FC4115460E46040006D125
:103DF00046A340F275324FA152A0FEF7BBFA36B986
:103E000042A340F276325AA14EA0FEF7B3FA35B97A
:103E10003EA340F2773259A14AA0FEF7ABFA0E2139
:103E2000304604F09DF918B16FF00100BDE8FC8147
:103E30002146286800F0AEFE08B1544B3CE02868EB
:103E4000C0F303110E2922D0A168636800EA0102C1
:103E50000B409A420BD080B2A0F57E41A93906D022
:103E600014F10C0F2FD0E06868B304F10C05484A38
:103E70004849137803EB830001EB8000877C022F15
:103E800024D32F684068874220D11A462EE00120B3
:103E90008DF8000000208DF801005E208DF80200F2
:103EA00068786B4600F07F008DF80300A8788DF8E5
:103EB0000400E8788DF8050004F12302314620461D
:103EC00000F086FAB2E76FF00300AFE75FF00000A2
:103ED00000EB800301EB83039F7C022F0BD32F6841
:103EE0005B689F4207D1C0B210700246314620463F
:103EF00000F052F89AE7401C40B20A28E8DB32464C
:103F00002946204600F0B6F890E700002E2E5C4CC3
:103F10005749505C6C7769702D312E342E315C73AB
:103F200072635C6E657469665C6574686172702E3C
:103F3000630000006E6574696620213D204E554C7B
:103F40004C000000417373657274696F6E20222506
:103F50007322206661696C6564206174206C696EEF
:103F60006520256420696E2025730D0A000000007D
:103F70007120213D204E554C4C0000006970616459
:103F8000647220213D204E554C4C0000DEEB0008B1
:103F9000D80000209CE5002070B505460E46134869
:103FA00002EB820100EB8104A07C022806D210A360
:103FB0004FF4537218A124A0FEF7DCF9A07C02286C
:103FC00009D1E07CE42806D3211D284600F0EEF953
:103FD00008B90320A07404F10C0305F12302314653
:103FE0002846BDE8704000F0F3B900009CE50020D1
:103FF0002E2E5C4C5749505C6C7769702D312E34F5
:104000002E315C7372635C6E657469665C6574689E
:104010006172702E630000006172705F7461626C87
:10402000655B6172705F6964785D2E73746174653D
:10403000203E3D204554484152505F535441544521
:104040005F535441424C4500417373657274696F0C
:104050006E2022257322206661696C65642061747C
:10406000206C696E6520256420696E2025730D0A19
:10407000000000002DE9F74F82B0884602984FF00B
:10408000FF3B23300090086814465E46029900F01A
:1040900081FD002829D1D8F80000C0F303110E29B2
:1040A00023D0B8F1000F20D000281ED001214046B7
:1040B000FFF754FD07001AD4DFF8D8A007EB8709F3
:1040C0000AEB8905A87C002814D0012814D0022806
:1040D00009D231A340F2194239A143A0FEF74AF9AF
:1040E000A87C012808D03CB10DE06FF00D0005B0B0
:1040F000BDE8F08F0120A8744146029800F056F9FF
:104100000646002CF3D0A87CD04602280AD34148AA
:1041100005F10C0321460770009A029800F058F947
:10412000064634E0012832D1254640F23E466889F1
:104130002989884207D1286828B117A3324636A1B9
:1041400029A0FEF717F9287B01280ED02989002223
:10415000032003F017FB050018D0214603F0D0FD23
:1041600058B1284603F046FF10E02D68002DDED13F
:104170002546204604F044F945B158F8290008B115
:1041800003F038FF48F82950002600E05E4630462C
:10419000ADE700009CE500202E2E5C4C5749505C9A
:1041A0006C7769702D312E342E315C7372635C6EC6
:1041B000657469665C6574686172702E63000000E6
:1041C0006172705F7461626C655B695D2E737461AE
:1041D0007465203D3D2050454E44494E47206F7246
:1041E00020535441424C4500417373657274696FAA
:1041F0006E2022257322206661696C6564206174DB
:10420000206C696E6520256420696E2025730D0A77
:1042100000000000D80000206E6F207061636B65A5
:10422000742071756575657320616C6C6F7765645A
:10423000210000002DE9F05FDDF82CB09846914692
:104240008A46070006D132A340F2A5423AA13EA019
:10425000FEF790F800222A21032003F093FA0600CB
:1042600053D070892A2806D229A34FF4966241A11F
:1042700035A0FEF77FF875680D9805F10E0401F082
:10428000C5FEE08097F82200062806D020A34FF450
:10429000976245492CA0FEF76DF8D8F80010A16090
:1042A000B8F80400A081DBF80010C4F81210BBF8C5
:1042B0000400E082D9F800102960B9F80400A88051
:1042C000DAF80010C5F80610BAF8040068810A98F8
:1042D00031460068C4F80E000C980068A0614FF4E5
:1042E000807020800820608006202071042060718A
:1042F0004FF4C160A881BA693846904704463046F9
:1043000003F078FE2046BDE8F09F4FF0FF30FAE75B
:104310002E2E5C4C5749505C6C7769702D312E34D1
:104320002E315C7372635C6E657469665C6574687B
:104330006172702E630000006E6574696620213D15
:10434000204E554C4C000000417373657274696FC8
:104350006E2022257322206661696C656420617479
:10436000206C696E6520256420696E2025730D0A16
:1043700000000000636865636B20746861742066E8
:104380006972737420706275662063616E20686F55
:104390006C642073747275637420657468617270E4
:1043A0005F6864720000000020ED00081FB5012363
:1043B000064C021DCDE90213CDE9002400F12303D0
:1043C0001946A21FFFF736FF04B010BDE4EB00084A
:1043D0002DE9F041054690F822004C681E4617462C
:1043E0008846062806D00CA340F2A312144915A053
:1043F000FDF7C0FF30682060B088A0803868C4F83E
:104400000600B88860810820A08141462846AA6934
:10441000BDE8F041104700002E2E5C4C5749505C1F
:104420006C7769702D312E342E315C7372635C6E43
:10443000657469665C6574686172702E6300000063
:1044400020ED0008417373657274696F6E20222538
:104450007322206661696C6564206174206C696EEA
:104460006520256420696E2025730D0A0000000078
:1044700070B5104D002400BF04EB840005EB8001F3
:10448000887C90B1CA7C521CD2B2CA74F02A06D27F
:10449000012802D0032806D007E0022A05D32046CF
:1044A000FFF782FC01E002208874641CE4B20A2C4D
:1044B000E2D370BD9CE500202DE9F041044690F860
:1044C00022001F4616460D46062806D01EA340F2BF
:1044D000C31227A130A0FDF74DFF85B3286870B344
:1044E000214600F057FB50BB2878C0F303100E287C
:1044F00026D039462846FFF731FB00281DDB00EBAC
:1045000080013048022300EB810293749460336889
:10451000D360B38813820023D37450F821505DB167
:1045200040F82130334604F1230229462046FFF7A4
:104530004FFF284603F05EFD0020BDE8F081FFE755
:104540006FF00D00F9E700002E2E5C4C5749505CCF
:104550006C7769702D312E342E315C7372635C6E12
:10456000657469665C6574686172702E6300000032
:104570006E657469662D3E6877616464725F6C6510
:104580006E203D3D204554484152505F48574144BC
:1045900044525F4C454E0000417373657274696FFD
:1045A0006E2022257322206661696C656420617427
:1045B000206C696E6520256420696E2025730D0AC4
:1045C000000000009CE5002070B5044640890D46BF
:1045D0000E2842D9606801788689CA0714D001295B
:1045E00005D006221F49FBF7BDFE48B10CE041781B
:1045F00051B980785E2807D1607B40F0100002E05E
:10460000607B40F008006073082E03D0B6F5C16FE0
:1046100023D116E095F8290080061ED56FF00D0114
:10462000204603F09DFD38B10FA340F24F5218A170
:1046300020A0FDF79FFE10E02946204600F0FEFB7B
:1046400009E095F82900800607D5224605F12301E7
:104650002846FFF7DBF9002070BD204603F0CAFCB6
:10466000F9E70000DEEB00082E2E5C4C5749505C49
:104670006C7769702D312E342E315C7372635C6EF1
:10468000657469665C6574686172702E6300000011
:1046900043616E2774206D6F7665206F766572209A
:1046A00068656164657220696E207061636B657412
:1046B00000000000417373657274696F6E202225DB
:1046C0007322206661696C6564206174206C696E78
:1046D0006520256420696E2025730D0A0000000006
:1046E00010B5040005D10AA3C42214A116A0FDF739
:1046F00041FE652084F82A006E2084F82B001D48B6
:1047000060611D48A061204601F052FA002010BDF2
:104710002E2E5C4C5749505C6C7769702D312E34CD
:104720002E315C7372635C6E657469665C65746877
:1047300065726E657469662E630000006E6574694B
:1047400066213D4E554C4C00417373657274696F20
:104750006E2022257322206661696C656420617475
:10476000206C696E6520256420696E2025730D0A12
:1047700000000000E53D0008F15C000870B505464A
:1047800001F054FA040009D02A692946904705002F
:1047900002D0204603F02EFC284670BD4FF0FF30BB
:1047A00070BD000003490A685206FCD5C2B24A60D7
:1047B00070470000001001400A46032100F040B994
:1047C0002DE9FE4F456804468A4628780007870E83
:1047D00079428846204603F0C3FC00287AD120891C
:1047E000042877D36068007800287FD008287DD11E
:1047F000414901260868C0F303120E2A00D10026A1
:104800008946514600F0C6F900286FD1002E6DD0C0
:10481000208908286AD3204600F098F9002865D13D
:104820002221204603F09CFC002831D03946204646
:1048300003F096FC18B131A398223AA147E02189F0
:104840000022022002F09EFF06004FD0718907F17E
:104850000800814205D229A3A1223FA14CA0FDF767
:1048600089FD2146304603F04BFA18B123A3A52257
:1048700052A12CE041463046756803F071FC10B13E
:104880001EA3AB220CE0204603F0B4FB344609E043
:104890006FF02101204603F063FC18B117A3B52285
:1048A00050A114E06068D9F80010E9605A49002668
:1048B0000968296106704680FF2028726E8139469A
:1048C000204603F04DFC30B10CA3DA2253A130A0F6
:1048D000FDF750FD0AE00121CDE90061FF23002230
:1048E000CDF808A00449204600F0AAFB2046BDE808
:1048F000FE4F03F07FBB0000780100202E2E5C4CA1
:104900005749505C6C7769702D312E342E315C73B1
:1049100072635C636F72655C697076345C69636D49
:10492000702E630069636D705F696E7075743A20F4
:104930006D6F76696E6720702D3E7061796C6F6166
:104940006420746F206970206865616465722066F8
:1049500061696C65640A0000636865636B20746854
:104960006174206669727374207062756620636179
:104970006E20686F6C642073747275637420746841
:10498000652049434D5020686561646572000000F0
:10499000417373657274696F6E20222573222066DD
:1049A00061696C6564206174206C696E65202564A2
:1049B00020696E2025730D0A0000000069636D7088
:1049C0005F696E7075743A20636F7079696E6720E5
:1049D000746F206E65772070627566206661696C01
:1049E00065640A0069636D705F696E7075743A2062
:1049F000726573746F72696E67206F726967696E32
:104A0000616C20702D3E7061796C6F61642066610D
:104A1000696C65640A0000007401002043616E2720
:104A200074206D6F7665206F7665722068656164AD
:104A3000657220696E207061636B65740000000010
:104A40002DE9FE4391460E4607460022242101200F
:104A500002F098FE05002DD06889242806D216A3FE
:104A60004FF499721EA129A0FDF784FC6C68D7F859
:104A700004801C22267084F801900026A680E6801F
:104A8000686879680830FBF742FC668069892046CF
:104A900000F056F86080D8F80C0002900120CDE9B3
:104AA0000060FF2302AA0021284600F075FA28467C
:104AB00003F0A0FABDE8FE832E2E5C4C5749505CF3
:104AC0006C7769702D312E342E315C7372635C63A8
:104AD0006F72655C697076345C69636D702E63001B
:104AE000636865636B2074686174206669727374AF
:104AF00020706275662063616E20686F6C64206947
:104B0000636D70206D6573736167650041737365D4
:104B10007274696F6E2022257322206661696C654C
:104B200064206174206C696E6520256420696E20A4
:104B300025730D0A000000000A460B21FFF780BF15
:104B400010B501F087FAC04380B210BD70B50024E3
:104B50002646054613E06989686801F07BFA20441F
:104B6000010C11FA80F4A87AC00707D0C6F1010041
:104B7000C6B2E0B2C4F3072141EA00242D68002D3B
:104B8000E9D126B1E0B2C4F3072141EA0024E043B1
:104B900080B270BD421C12D088B191F829209207D2
:104BA0000BD54B68834208D0896800EA01020B40AC
:104BB0009A4202D10143491C01D0002070470120D4
:104BC000704700002DE9F74F8AB004460B98142770
:104BD0000025068C60680690C08801F030FAC0F3AA
:104BE0000C0B00F40050089020891438143E1FFA72
:104BF00080F8F01706EB5070C0F3CF0007960590D1
:104C00008DE00799884501DC012000E00020089A2A
:104C1000CBF30C0111430491002825D0404680B20B
:104C2000039000221421022002F0ACFD5FEA00098B
:104C300020D06089142806D240A340F2FB224AA16A
:104C400051A0FDF797FB1422D9F804000699FBF751
:104C50005EFBD9F8040002906068384460606089A7
:104C6000C01B6081039E31E041F400500490059820
:104C7000C000D4E74FF0FF300DB0BDE8F08F65897C
:104C8000B54200D9354605B3062001F0C1FD070045
:104C90004BD06068CDE900053B460222294603203F
:104CA00002F01CFF5FEA000A43D0204603F0A8FB95
:104CB0004048C7E904045146484602F07BFF701B98
:104CC0000604360C04D02468D9E72468002ED6D117
:104CD0002F46049801F09AF90299C880039814307D
:104CE00080B201F093F90299488002980021418135
:104CF00014210298FFF724FF029948810B98494636
:104D00000C9A43699847484603F074F90398A8EB56
:104D100000001FFA80F8059858441FFA80FBB8F18C
:104D2000000F7FF46EAF0020A6E7484603F062F95B
:104D3000A0E7384600F040F8F7E700002E2E5C4C64
:104D40005749505C6C7769702D312E342E315C736D
:104D500072635C636F72655C697076345C69705F06
:104D6000667261672E63000074686973206E656502
:104D700064732061207062756620696E206F6E65B5
:104D80002070696563652100417373657274696F92
:104D90006E2022257322206661696C65642061742F
:104DA000206C696E6520256420696E2025730D0ACC
:104DB000000000004D5A000810B5040006D106A3FB
:104DC00040F279220FA112A0FDF7D4FA2146BDE8E6
:104DD0001040062001F094BC2E2E5C4C5749505CCC
:104DE0006C7769702D312E342E315C7372635C6385
:104DF0006F72655C697076345C69705F667261675A
:104E00002E6300007020213D204E554C4C000000C8
:104E1000417373657274696F6E2022257322206658
:104E200061696C6564206174206C696E652025641D
:104E300020696E2025730D0A000000002DE9F05F47
:104E4000456806460F4628780421B1EB101F0FD1A4
:104E500000F00F004FF6FF7101EA8004688801F04E
:104E6000EEF801467089A04202D33089884203D20D
:104E7000304603F0BFF854E0304603F0FDF94448F3
:104E80002969A0F1040A0160EA68DFF808B14FF06F
:104E900001083C468146CAF8002000BF94F829006A
:104EA000C0070CD0201D0AD0606840B1D9F800209E
:104EB000824212D021461046FFF76CFE68B9B8F165
:104EC000000F04D04FF00008DBF8004000E0246839
:104ED000BC4200D12468002CE0D1D0463946DAF833
:104EE0000000FFF757FE0028C2D198F80000C0F379
:104EF00003100E28BCD0002CBAD0E88830F0C000D7
:104F000005D0304600F04EF906000AD07568204CF6
:104F10003946103C3046C4E9017504F0F9F818B17F
:104F20002DE00020BDE8F09F687A012814D0062803
:104F30000DD0112806D03946D9F80000FFF72AFE17
:104F400078B119E03946304608F09CFA17E0394646
:104F5000304605F06FFA12E039463046FFF730FC74
:104F60000DE099F80000C0F303100E2804D00221D0
:104F700030467560FFF720FC304603F03BF8002018
:104F80006060A060C8F80000C9F80000C9E7000030
:104F9000780100200C0100202DE9FE430446DDE9E4
:104FA0000A65C089984617468946012806D00CA391
:104FB00040F2393214A117A0FDF7DCF9384600F0B1
:104FC00065FC50B10096CDE9015043463A4649464A
:104FD000204600F035F8BDE8FE836FF00300FAE7E5
:104FE0002E2E5C4C5749505C6C7769702D312E34F5
:104FF0002E315C7372635C636F72655C69707634CA
:105000005C69702E63000000702D3E726566203D65
:105010003D203100417373657274696F6E202225E3
:105020007322206661696C6564206174206C696E0E
:105030006520256420696E2025730D0A000000009C
:105040002DE9F84F0546DDE90BA6C089DDF828B04B
:10505000984617468946012806D02DA34FF427729B
:1050600035A138A0FDF786F9002F3CD01421284641
:1050700003F076F818B16FF00100BDE8F88F688989
:105080006C68142806D222A340F2C92238A12DA0B0
:10509000FDF770F984F8088084F809A03868206169
:1050A0004520207084F801B0288900F0AFFFDFF8B8
:1050B000F08060804FF0000AA4F806A0B8F8000065
:1050C00000F0A4FFA080B8F80000401CA8F8000081
:1050D000B9F1000F02D0D9F8000000B97068E060A3
:1050E000A4F80AA003E068686F4600690090308C5D
:1050F00040B12989814205D93A4631462846FFF711
:1051000061FDBAE773693A46294630469847B4E7E5
:105110002E2E5C4C5749505C6C7769702D312E34C3
:105120002E315C7372635C636F72655C6970763498
:105130005C69702E63000000702D3E726566203D34
:105140003D203100417373657274696F6E202225B2
:105150007322206661696C6564206174206C696EDD
:105160006520256420696E2025730D0A000000006B
:10517000636865636B207468617420666972737418
:1051800020706275662063616E20686F6C642073A6
:1051900074727563742069705F6864720000000047
:1051A000680100202DE9F14F4FF0000A0098456892
:1051B000287800F00F0005287ED1E88800F03FFF36
:1051C000C0044FEA1049688800F039FF297801F0DF
:1051D0000F01494200EB81001FFA80F8009802F0AD
:1051E00086FD524E0746308838440A2809D9394688
:1051F000284600F0F1FA00285ED0308838440A28AA
:105200005AD84FF0000B74680DE06069E968884275
:1052100007D1A0692969884203D1A089A988884259
:1052200004D0A2462468002CEFD106E02CB1E88817
:1052300000F005FFC0041DD027E0052001F0E8FACA
:1052400004000AD13946284600F0C6FAB84268DBA5
:10525000052001F0DDFA040063D02021FBF770F88F
:105260000320E077706820601422294604F10800CA
:10527000746008E0E08900F0E2FEC00405D014226A
:10528000294604F10800FBF742F8308838443080A2
:10529000A879800606D4A07F40F00100A07709EB32
:1052A0000800A0832046009900F042F8002836D07C
:1052B000A08B1430A08300E033E06068142204F176
:1052C0000801456828462F68FBF721F8A08B00F0FD
:1052D0009DFE6880A5F806B0A5F80AB014212846FE
:1052E000FFF72EFC68816FF01309D4F8048009E001
:1052F000494638467D6802F033FF3946404602F0A1
:1053000059FC2F68002FF3D15146204600F04EF98A
:10531000404602F0ECFC3188081A30804046BDE877
:10532000F88F009802F066FE0020F8E77C0100206C
:105330002DE9F0474C68064688460025012760881D
:1053400000F07DFE217801F00F01494200EB810958
:10535000E08800F074FEC004D8F80440010C00207E
:10536000206001EB0900A18083B2E38072681FE036
:105370005068B0F804C061450FD222604DB1B5F855
:1053800006C0614579D38088834276D8C5F800800D
:1053900001E0C6F804806AB12BE06ED0C288914269
:1053A0006BD31DB1EA88624500D00027026805462C
:1053B000002ADDD195B1E888A188884206D935A3B5
:1053C00040F293123EA146A0FCF7D4FFC5F800803E
:1053D000E888A18888420CD000270AE0706830B1C4
:1053E0002CA340F29B1249A13DA0FCF7C3FFC6F8D5
:1053F0000480B07FC0073DD0002F3AD0726850685B
:10540000808838B92046216808E04C68C088A188A7
:10541000884201D000272CE0216820460029F4D1E1
:10542000002F26D032B91BA34FF4DE7245A12CA069
:10543000FCF7A0FF70684068A04206D115A340F2B7
:10544000BD1240A126A0FCF795FF206830B111A342
:1054500040F2BF123FA122A0FCF78CFFE088B18B85
:10546000884206D00BA340F2C11243A11CA0FCF756
:1054700081FF3846BDE8F087FFE7404602F037FC81
:1054800049490A88101A0880404602F0B3FD0020FE
:10549000F0E700002E2E5C4C5749505C6C77697029
:1054A0002D312E342E315C7372635C636F72655CD8
:1054B000697076345C69705F667261672E630000A4
:1054C000636865636B20667261676D656E747320D7
:1054D000646F6E2774206F7665726C6170000000D7
:1054E000417373657274696F6E2022257322206682
:1054F00061696C6564206174206C696E6520256447
:1055000020696E2025730D0A000000006E6F207068
:10551000726576696F757320667261676D656E740A
:105520002C2074686973206D757374206265207413
:10553000686520666972737420667261676D656E56
:105540007421000073616E69747920636865636B10
:105550000000000076616C69646174655F64617469
:10556000616772616D3A6E6578745F70627566210D
:105570003D4E554C4C00000076616C696461746569
:105580005F646174616772616D3A646174616772CE
:10559000616D20656E64213D646174616772616D47
:1055A000206C656E000000007C01002070B5044690
:1055B0000B480D464168A14202D12168416009E0D3
:1055C00035B908A340F2391211A118A0FCF7D2FE98
:1055D000206828602146BDE87040052001F090B8A1
:1055E0007C0100202E2E5C4C5749505C6C77697012
:1055F0002D312E342E315C7372635C636F72655C87
:10560000697076345C69705F667261672E63000052
:1056100073616E69747920636865636B206C696E71
:105620006B6564206C6973740000000041737365DE
:105630007274696F6E2022257322206661696C6521
:1056400064206174206C696E6520256420696E2079
:1056500025730D0A000000002DE9F04705460024DF
:105660000F46A94205D12EA3A52238A13AA0FCF7E6
:1056700081FE47B13868A84205D029A3A72241A1DD
:1056800035A0FCF777FE6E684FF48038706881882B
:1056900000291AD100686860142205F108017068B9
:1056A000FAF735FE01213046FFF746FA304602F0A0
:1056B0001EFB0446404505D319A3B62236A126A0F9
:1056C000FCF758FE304602F095FC6E6812E07068F8
:1056D000B1460668484602F00AFB0444444505D337
:1056E0000FA3C6222CA11CA0FCF744FEA4B248467E
:1056F00002F080FC002EEAD139462846FFF756FF1B
:105700002D4D2888A04205D205A3CC222BA112A0A2
:10571000FCF730FE2888001B28802046BDE8F08773
:105720002E2E5C4C5749505C6C7769702D312E34AD
:105730002E315C7372635C636F72655C6970763482
:105740005C69705F667261672E63000070726576D7
:1057500020213D2069707200417373657274696F16
:105760006E2022257322206661696C656420617455
:10577000206C696E6520256420696E2025730D0AF2
:1057800000000000707265762D3E6E657874203DD5
:105790003D2069707200000070627566735F66720A
:1057A000656564202B20636C656E203C3D2030785D
:1057B00066666666000000007C01002069705F720A
:1057C000656173735F70627566636F756E74203E9A
:1057D0003D20636C656E00002DE9F041184F88464E
:1057E0000646002400221146154678681AE04369EF
:1057F000D6F80CC0634509D18369D6F810C063455B
:1058000004D18389B6F804C0634507D06D1C22B16A
:10581000C37F92F81FC0634500D80246036803B1F6
:10582000014618460028E2D11AB11046FFF714FFCE
:105830000444444501DA012DD4DC2046BDE8F08162
:105840007C01002010B500F00BF8BDE810400022EC
:1058500002494FF47A7004F05BB800004558000824
:1058600070B50948002544680BE0E07F20B1401E78
:10587000E0772546246804E0204624682946FFF79F
:10588000EBFE002CF1D170BD7C01002010B502466A
:105890000C480AE090F82910C90706D081681368FF
:1058A00044680B400C40A3420AD000680028F1D1A4
:1058B0000548006818B190F82910C90700D10020E8
:1058C00010BD00000C0100201001002008B5694641
:1058D00000F006F808B1009808BD4FF0FF3008BD91
:1058E0002DE9FF410D4690F800206946A2F13003F2
:1058F0000A2B5ED200240A23302A06D110F8012F89
:10590000782A09D0582A07D00823A2F13006092E98
:1059100004D804FB036414E0102312E0102B13D10D
:10592000A2F16106052E03D9A2F14107052F0BD87C
:10593000192E01D8612600E04126921B0A3242EA64
:10594000041410F8012FE0E72E2A0DD09AB1202A76
:1059500011D00C2A0FD00A2A0DD00D2A0BD0092AFB
:1059600009D00B2A25D106E003AA914221D210C109
:1059700010F8012FBAE76846081A012101EBA000D0
:10598000052824D2DFE800F01529030A1300B4F13A
:10599000807F0ED2009844EA00641EE0B4F5803F98
:1059A00007D200980199000640EA01400DE0FF2C63
:1059B00003D9002004B0BDE8F081009801990006E9
:1059C00040EA0140029940EA0120044305E006A3B1
:1059D000F32210A112A0FCF7CDFC1DB1204600F06F
:1059E00013FB28600120E5E72E2E5C4C5749505CE4
:1059F0006C7769702D312E342E315C7372635C6369
:105A00006F72655C697076345C69705F6164647242
:105A10002E630000756E68616E646C656400000042
:105A2000417373657274696F6E202225732220663C
:105A300061696C6564206174206C696E6520256401
:105A400020696E2025730D0A0000000010B50400C7
:105A500006D108A340F2832211A114A0FCF78AFC0E
:105A6000606908B102F0C6FA2046BDE81040FFF7B1
:105A7000A3B900002E2E5C4C5749505C6C776970BE
:105A80002D312E342E315C7372635C636F72655CF2
:105A9000697076345C69705F667261672E630000BE
:105AA00070637220213D204E554C4C00417373654C
:105AB0007274696F6E2022257322206661696C659D
:105AC00064206174206C696E6520256420696E20F5
:105AD00025730D0A0000000070B51B4886B0002534
