:020000040800F2
:10000000B8E6002089020008F71900080117000867
:10001000F519000851040008391D0008000000000F
:10002000000000000000000000000000D1010008F6
:100030005304000800000000250200083D1B0008D2
:10004000A3020008A3020008A3020008A3020008FC
:10005000A3020008A3020008A3020008A3020008EC
:10006000A3020008A3020008A3020008A3020008DC
:10007000A3020008A3020008A3020008A3020008CC
:10008000A3020008A3020008A3020008A3020008BC
:10009000A3020008A3020008A3020008A3020008AC
:1000A000A3020008A3020008A3020008A30200089C
:1000B000A3020008A3020008A3020008A30200088C
:1000C000A3020008A3020008A3020008A30200087C
:1000D000A3020008A3020008A3020008A30200086C
:1000E000A3020008A3020008A3020008A30200085C
:1000F000A3020008A3020008A3020008A30200084C
:10010000A3020008A3020008A3020008A30200083B
:10011000A3020008A3020008A3020008A30200082B
:10012000A3020008A3020008A3020008A30200081B
:10013000A3020008C1040008A3020008A3020008EB
:10014000A3020008A3020008A3020008A3020008FB
:10015000A3020008A3020008A3020008A3020008EB
:10016000A3020008A3020008A3020008A3020008DB
:10017000A3020008A3020008A30200080000000078
:10018000A3020008A3020008A3020008A3020008BB
:10019000A3020008A3020008A3020008A3020008AB
:1001A000A3020008A3020008A3020008DFF80CD095
:1001B00000F014F900480047495E0008B8E6002046
:1001C00030BF72B6704762B6704780F308887047D8
:1001D0002A4B19680868B0E8F04F80F30988BFF32C
:1001E0006F8F4FF0000080F311887047000000000F
:1001F00006480068006880F3088862B661B6BFF3FD
:100200004F8FBFF36F8F00DF00BF00BF08ED00E02E
:10021000DFF80C00016841F470010160704700BF15
:1002200088ED00E0EFF30980BFF36F8F134B1A687E
:100230001EF0100F08BF20ED108A20E9F04F10606B
:1002400008B44FF0500080F31188BFF34F8FBFF315
:100250006F8F0BF077FC4FF0000080F3118808BC23
:1002600019680868B0E8F04F1EF0100F08BFB0EC36
:10027000108A80F30988BFF36F8F70472800002031
:10028000EFF30580704700000648804706480047A6
:10029000FEE7FEE7FEE7FEE7FEE7FEE7FEE7FEE736
:1002A000FEE7FEE7F51B0008AD0100082DE9F05F51
:1002B0000546002092469B468846064681464024D5
:1002C0001BE0284641464746224600F076F8534652
:1002D0005A46C01A914110D311461846224600F0E2
:1002E0005DF82D1A67EB01084F46224601200021D8
:1002F00000F054F817EB00094E41201EA4F1010450
:10030000DFDC484631462A464346BDE8F09F40EAD6
:1003100001039B0703D009E008C9121F08C0042A83
:10032000FAD203E011F8013B00F8013B521EF9D26A
:100330007047D2B201E000F8012B491EFBD2704792
:100340000022F6E710B513460A4604461946FFF7A1
:10035000F0FF204610BD30B504460020034600E003
:100360005B1C934203D2E05CCD5C401BF8D030BDF7
:1003700030B50B46014600202022012409E021FA75
:1003800002F59D4205D303FA02F5491B04FA02F572
:100390002844151EA2F10102F1DC30BD202A04DB45
:1003A000203A00FA02F1002070479140C2F1200388
:1003B00020FA03F3194390407047202A04DB203AC7
:1003C00021FA02F00021704721FA02F3D040C2F175
:1003D000200291400843194670470000064C074D23
:1003E00006E0E06840F0010394E807009847103405
:1003F000AC42F6D3FFF7DEFE4CCA00086CCA000818
:1004000030B58C1810F8012B12F00F0301D110F841
:10041000013B120906D110F8012B03E010F8015B33
:1004200001F8015B5B1EF9D101E001F8013B521EAE
:10043000FBD1A142E6D3002030BD00000348406854
:100440000BF004FA01200BF0CBF9FBE700000020D1
:10045000FEE77047064908B509684FF4FA52B1FB48
:10046000F2F14143009100BF491E0091FBD208BD4B
:100470001400002038B50446006800F580508169FA
:1004800041F480118161206800F5805080690090FE
:100490000120FFF7DFFF2068009900F5805081619F
:1004A00038BD02680021002A08DB0268120405D466
:1004B0000268D20502D50068C0F30D4108467047B6
:1004C00010B5094C02E000BF05F08AFCA06AFFF7F6
:1004D000E8FF0028F8D12068402100F580504161F4
:1004E0008902416110BD0000900100202DE9F0411A
:1004F000044621B14FF40060E060C000A060E069F4
:100500000025002861D028462368402619683A4A09
:100510001140D4E902273A43024342F400700843F1
:10052000186020680768012000F0AAF820680760BA
:100530002068466020684668012000F0A1F8206825
:100540004660206885602068C560216888694FF62C
:100550004172104040F08000886120688669012067
:1005600000F08EF8206886612068C5612068C56942
:10057000012000F085F82068C561226802F58052EC
:1005800090691E4908401E4901439161206800F5A9
:1005900080508569012000F073F8206800F58050D4
:1005A00085612068174900F580500160206800F5DA
:1005B00080500568012000F063F8206800F5805045
:1005C0000560A069012803D009E04FF480609BE733
:1005D000206800F58050C1690B4A1143C161606910
:1005E0000A4982880A640278D0F8010042EA0020B1
:1005F0004864BDE8F08100000F8120FF233FDEF852
:10060000040020028020C10240000100008002405E
:1006100070B5802007F024FC084C2060802007F093
:100620001FFC41F2D0756060284607F019FCA060FD
:10063000284607F015FCE060002070BD180000207F
:10064000084810B5006810F0FF0F07D0502080F365
:100650001188BFF34F8FBFF36F8F01E00AF078FF6F
:10066000002010BD04ED00E00449096811F0FF0FFF
:1006700002D080F3118870470AF0A6BF04ED00E0B5
:1006800031B500F04FFC044600F04CFC0099001B13
:100690008842F9D338BD2DE9F04390F84540002554
:1006A000012C0DD04FF0010C80F845C0022480F8D9
:1006B000444044F2F4574FF000495E1E816217E057
:1006C0000220BDE8F08301EB4514C4F80090C5EBAF
:1006D000C51808EB480802EB8808C4E90178B54260
:1006E00004D204F12008C4F80C8000E0E1606D1C25
:1006F0009D42E8D3026802F58052D16080F844C080
:10070000002180F845100846DBE72DE9F0439146CB
:1007100090F845200024012A0AD0012680F845607F
:10072000022280F844204FF4801C5D1EC1621BE051
:100730000220BDE8F08301EB4412C2F800C0C4EB14
:10074000C41707EB470809EB88079760C7691FB90B
:10075000176847F440071760AC4203D202F1200744
:10076000D76000E0D160641C9C42E4D3026802F5CB
:100770008052116180F84460002180F845100846DD
:10078000D7E710B590F84510012913D0012280F861
:100790004520022180F84410816A0C680023002C57
:1007A00027DB0C68E40518D5846B641C8463012C7A
:1007B00002D002E0022010BD016341630C68C4F363
:1007C0000D44241FC463046BA4680464C96840F822
:1007D000281F02774377002010BD0C68A40503D5BD
:1007E0008263C0E90C1302E0846B641C8463C968F3
:1007F000816200F8442F4370012010BD2DE9FC47B1
:100800004FF000060400B146009603D094F844006F
:1008100018B107E00120BDE8FC8784F84560204658
:1008200000F0E0F86548016841F48041016000682B
:1008300000F4804001906248016821F400010160E9
:100840000168226A11430160206800F58050016848
:1008500041F00101016000F065FB05464FF4FA77B5
:1008600009E000BF00F05EFB401BB84203D9032043
:1008700004F8440F67E0206800F580500068C00766
:10088000F0D12068006920F01C0500F0AFFC4D4954
:100890004D4A0144914202D245F0080516E04B4909
:1008A0004B4A0144914202D245F00C050EE0494901
:1008B000494A0144914209D3484908444849884279
:1008C00002D245F0040501E045F0100520680561FD
:1008D0004FF400420021204600F0FEF90125A8BB9C
:1008E000FF20FFF7CDFE606888B300F01BFB804659
:1008F00041F288376A460121204600F0E5F800F011
:1009000011FBA0EB0800B84217D800984007F1D5BA
:100910004FF480520021204600F0DEF9B0B900F01B
:1009200001FB80466A460121204600F0CDF800F028
:10093000F9FAA0EB0800B8420AD901212046FFF7D6
:10094000D5FD04F8445F0320667064E724E018E0F6
:1009500000988006E6D56A461F21204600F0B4F8CC
:10096000D0B90098C10603D54FF40061E16000E002
:10097000E660400701D5A66018E04FF48040A06013
:1009800014E0E068A168C00840EA510082B200218A
:10099000204600F0A1F930B101212046FFF7A6FD65
:1009A00084F8445036E7FF20FFF76AFE49462046A8
:1009B000FFF79CFD84F8445000202CE744380240A7
:1009C0000438014000D3CEFEC0E1E40040F1E9FD6F
:1009D00040787D0100796CFC005A6202001F0AFA1F
:1009E00080F0FA02334800B5026887B0002142F077
:1009F00000720260026802F000720592026842F022
:100A000080620260026802F080620592026842F031
:100A100000620260026802F000620592026842F021
:100A200001020260026802F001020592026842F0CF
:100A300002020260026802F002020592026842F0BD
:100A400004020260026802F004020592026842F0A9
:100A500040020260006800F040000590862000908F
:100A60000220CDE90101032003900B200490694688
:100A7000114800F06DF94FF40060009069460F488E
:100A800000F066F93220009069460D4800F060F9E8
:100A90004FF4C040009069460A4800F059F900221E
:100AA00006213D2000F09EFA3D2000F08DFA07B0AF
:100AB00000BD000030380240000002400004024047
:100AC00000080240001802402DE9F047044690F863
:100AD0004400914682281DD0822084F84400226878
:100AE00010694FF6FF7500F01C03208A05EAC0204C
:100AF00018434FF4F86303EA8111014321F0020027
:100B000040F00105156100F00DFA064601274FF48B
:100B1000803810E00220BDE8F08700BF00F002FA44
:100B2000801B404505D304F8447F002060700320FB
:100B3000F1E720680569E807F0D12068406981B2D3
:100B4000C9F8001084F844700020E4E7F8B50446C2
:100B500090F84500012839D0012584F8455002203D
:100B600084F8440020680026016841F00801016013
:100B70002068006800902846FFF76CFC2168009808
:100B800008602068016841F0040101602068006885
:100B900000900120FFF75EFC216800980860204665
:100BA000FFF768FC206800F58050816941F400512E
:100BB0008161206800F58050816941F00201816106
:100BC00084F8445084F845600020F8BD0220F8BD48
:100BD000F0B590F845200023012A11D0012780F8B4
:100BE0004570022280F84420002459B1C66A326858
:100BF000002A0ADA122100F8441F44700120F0BDD7
:100C00000220F0BD00F8447FF7E740F2F455A94216
:100C10000BD9B1FBF5FCB1FBF5F205FB1C1CBCF1DB
:100C2000000F00D0521C012A43D1326842F04052DA
:100C30003260C26AC1F30C015160C16A0A6842F0B5
:100C400000420A60C16AC968C16234E0D6F800C0D7
:100C50002CF0405CC6F800C033B9C66AD6F800C0B4
:100C60004CF0805CC6F800C0C66A7560561EB34280
:100C700014D1C66AD6F800C04CF0005CC6F800C0BB
:100C8000C2F10106C6EBC61606EB4606D0F82CC02C
:100C900001EB8606C6F30C06CCF80460C66AD6F8EB
:100CA00000C04CF0004CC6F800C0C66A5B1CF66879
:100CB000C6629342CAD3016801F580514A6952075E
:100CC00005D504224A61016801F580514C6000F8A5
:100CD000447F44700020F0BD2DE9F041044690F8B7
:100CE000440042281ED0422084F84400236818693A
:100CF0004FF6FF7600F01C05208A06EAC020284344
:100D00004FF4F86505EA8111014390B241F0030503
:100D100058612068056100F005F9064601274FF487
:100D2000803810E00220BDE8F08100BF00F0FAF842
:100D3000801B404505D304F8447F002060700320E9
:100D4000F1E720680569E807F0D184F84470EAE724
:100D50002DE9F84F00224FF0010803254FF00F0E48
:100D60000B6808FA02F42340A3426ED14E68012EAC
:100D700005D0022E03D0112E01D0122E12D186687A
:100D80004FEA420C05FA0CF7BE43CF6807FA0CF79E
:100D9000374387604668A6430C79C4F30014944037
:100DA00034434460C668570005FA07FC8C6826EA9D
:100DB0000C06BC403443C4604C68022C01D0122C99
:100DC00013D1D40800EB8404A346D4F82090540730
:100DD0004FEAD46A0EFA0AF629EA06090E6906FAFB
:100DE0000AF646EA0906CBF8206004680E7924EA80
:100DF0000C0406F00306BE40264306604C68E4007F
:100E00006FD53B4C266846F480462660246822F065
:100E1000030604F480440094364C3444A446D4F8C9
:100E200008489607360F0EFA06F7BC43324FB84211
:100E300001D100272EE0314FB84201D1012729E02E
:100E40002F4FB84202D1022724E04AE02D4FB8428A
:100E500001D103271EE02C4FB84201D1042719E02D
:100E60002A4FB84201D1052714E0294FB84201D1D9
:100E700006270FE0274FB84201D107270AE0264F87
:100E8000B84201D1082705E0244FB84201D1092713
:100E900000E00A27B7402743CCF80878204E346892
:100EA0004F689C43FF0300D51C4334601C4E361D25
:100EB00034684F689C43BF0300D51C433460184E10
:100EC000083634684F689C43FF0200D51C433460E9
:100ED000134E0C3634684F689C43BF0200D51C4348
:100EE0003460521C102AFFF43BAFBDE8F88F0000BD
:100EF000443802400030014000000240000402403B
:100F000000080240000C02400010024000140240A1
:100F100000180240001C0240002002400024024051
:100F2000003C014001488068704700000800002034
:100F300002488168027811448160704708000020EF
:100F40000B4810B5016841F400710160016841F47B
:100F500080610160016841F480710160032000F04C
:100F600061F8002000F006F800F016F8002010BD2F
:100F7000003C024010B5044600F038F94FF47A7195
:100F8000B0FBF1F000F038FB00222146501E00F0CB
:100F900029F8002010BD00000A4808B5016841F496
:100FA00080410160006800F4804000900548001F07
:100FB000016841F080510160006800F080500090AD
:100FC00008BD000044380240002809DB00F01F0281
:100FD000012191404009800000F1E020C0F800119B
:100FE00070470000F0B40E4B1B680C46C3F302239D
:100FF000C3F10705042D00D90425191D072901D2C5
:10100000002300E0DB1E012606FA05F1491E2140FF
:1010100099409E40761E16403143F0BC00F09EBEC3
:101020000CED00E0064900F0070208684FF6FF03E8
:10103000184040EA0220034A10430860704700004D
:101040000CED00E00000FA052DE9F84317480168AF
:1010500041F0805101600068154F00F0805001267A
:1010600000903E64FFF75EFF05464FF47A78114C1E
:1010700005E000BFFFF756FF401B40450DD86068F4
:10108000C003F7D57E64FFF74DFF0546464607E0EF
:10109000FFF748FF401BB04202D90320BDE8F883A8
:1010A00060688003F4D50020F8E700004038024073
:1010B00000000E42007000402DE9F0470E4605008A
:1010C00065D0DFF81481D8F80000F7B200F00F0007
:1010D000B04207D288F80070D8F8000000F00F0086
:1010E000B04254D128683D4C810712D5400703D542
:1010F000206840F4E05020602878000703D520687D
:1011000040F4604020602068A96820F0F0000843A7
:1011100020602878C0072DD0304968680839012838
:1011200012D0022813D0032811D00968890700299A
:101130002DDA216821F0030101432160FFF7F2FE5F
:10114000814641F2883A0EE009688903EFE70968B1
:101150008901ECE7FFF7E6FEA0EB0901514502D952
:101160000320BDE8F0872068696800F00C00B0EB50
:10117000810FEFD1D8F80010404601F00F01B142C5
:1011800007D90770006800F00F00B04201D00120BD
:10119000E7E72878400705D52068E96820F4E050A3
:1011A000084320602878000706D52068296920F4C4
:1011B000604040EAC100206000F03EF82168084A23
:1011C000C1F30311515CC840064908600648006835
:1011D000FFF7D0FE0020C4E7003C02400838024080
:1011E000F0C70008140000200C000020014800682F
:1011F0007047000014000020044805490068096891
:10120000044AC1F38221515CC84070471400002099
:101210000838024000C80008044805490068096809
:10122000044AC1F34231515CC840704714000020A9
:101230000838024000C80008154810B5006810F0D2
:101240000C02144813D01449042A0FD0082A0ED1D6
:101250000F4C241F2268236802F03F025B0207D56F
:101260002068C0F38810A0FB010106E0084610BD0D
:101270002168C1F38811A1FB00010023FFF716F8D4
:101280002168C1F30141491C4900B0FBF1F010BDD8
:10129000083802400024F40040787D012DE9F84F21
:1012A00004006ED02078DFF83C93C007A9F1040554
:1012B0004AD009F104000168C1F38101012908D075
:1012C0000068C0F3810002280AD1D9F8000040026A
:1012D00006D52868800337D560680028E1D033E060
:1012E0006068B0F5803F10D0B0F5A02F286810D00E
:1012F00020F480302860286820F48020286060680E
:10130000A8B1FFF70FFE06460DE0286840F48030D4
:10131000F4E740F480202860F7E700BFFFF702FE03
:10132000801B642873D828688003F7D50CE0FFF78A
:10133000F9FD064605E000BFFFF7F4FD801B6428B9
:10134000F0D828688003F7D42078DFF89C828007E3
:101350004FF0000A3ED5A348001D016811F00C0FA4
:1013600008D00068C0F3810002280BD1D9F8000032
:10137000400207D42868800716D5E068012800D10C
:1013800012E02BE1E068B8B10120C8F80000FFF7D7
:10139000C9FD064605E000BFFFF7C4FD801B02281B
:1013A000C0D828688007F7D52868216920F0F800A0
:1013B00040EAC10028600DE0C8F800A0FFF7B2FDC8
:1013C000064604E0FFF7AEFD801B02281FD8286800
:1013D0008007F7D42078000722D5824E83486169C0
:1013E000703671B101210160FFF79CFD074604E0F2
:1013F000FFF798FDC01B022809D830688007F7D591
:101400000EE0C0F800A0FFF78DFD074605E082E082
:10141000FFF788FDC01B02287DD830688007F7D40D
:101420002078400768D5DFF8BCB100270BF13C0BF2
:10143000DBF80000C0000BD4DBF8001041F0805155
:10144000CBF80010DBF80000012700F0805000907E
:10145000674E3068C00510D4306840F4807030604A
:10146000FFF760FD009005E0FFF75CFD0099401A72
:10147000022850D83068C005F6D55A4EA0686C36A0
:1014800001280FD00528306810D020F0010030600E
:10149000306820F004003060A068B8B1FFF742FD6A
:1014A00000900FE0306840F00100F4E740F00400E5
:1014B0003060F7E7FFF736FD0099411A41F28830B6
:1014C000814266D830688007F4D50EE0FFF72AFD28
:1014D000009007E0FFF726FD0099411A41F288309D
:1014E000814256D830688007F4D42FB1DBF8001061
:1014F00021F08051CBF80010A069C8B33949091D0B
:101500000968C1F3810102294AD00228504607D058
:10151000C8F8600000E03CE0FFF704FD04463BE053
:101520004746C8F86000FFF7FDFC064605E000BF2F
:10153000FFF7F8FC801B02282BD828688001F7D41D
:10154000D4E907010843A16A2A4A490802EB01418C
:10155000626A41EA8211084394F82C1040EA016162
:10156000C9F8001001203866FFF7DCFC044606E0ED
:1015700036E000BFFFF7D6FC001B022809D8286818
:101580008001F7D52CE000BFFFF7CCFC001B022840
:1015900002D90320BDE8F88F28688001F4D41FE049
:1015A0000128F7D0D9F80000E26900F480019142E7
:1015B00014D1226A00F03F0191420FD147F6C07169
:1015C000626A0140914209D1A26A00F4403191421D
:1015D00004D1E16A00F07060884201D00120D9E7AF
:1015E0000020D7E70438024000004742800E4742FF
:1015F000007000400000FFFF10B5401EB0F1807F7A
:1016000001D3012010BD4FF0E02460610F2160176D
:1016100000F0A4FB0020A06107202061002010BD85
:1016200070B5040004D094F83900002510B106E02C
:10163000012070BD84F83850204600F023F82420A3
:1016400084F839002068C16821F40051C160204647
:1016500000F0DEFA2068016921F490410161206800
:10166000416921F02A0141612068C16841F40051BB
:10167000C160E563202084F8390084F83A00002036
:1016800070BD000010B500681A4986B088422FD19D
:101690001948016841F001010160006800F0010093
:1016A000059015481430016841F010010160006890
:1016B000012100F0100005904FF40070009002200E
:1016C000CDE90101039007200C4C049069462046A7
:1016D000FFF73EFB2015009069462046FFF738FBD8
:1016E0002520FFF771FC002202212520FFF77AFC5C
:1016F00006B010BD0010014030380240000002402A
:10170000FEE7000070B50D4C0025C4F890520C485F
:10171000016821F440610160016841F48061016069
:10172000C4F89452022004F5247400F02DFC01202A
:101730002060022000F028FC256070BD008043423C
:10174000001C02400E4810B5016886B041F08001CF
:1017500001600068012400F0800005903020CDE990
:1017600000040220CDE9024069460648FFF7F0FA7E
:101770000548C0F89442C0F8904206B010BD000081
:1017800030380240001C02400080434270B50D4CCE
:101790000025C4F890520C48016821F440610160B2
:1017A000016841F4806101600126C4F8946202205E
:1017B00004F5247400F0E8FB2660022000F0E4FB4E
:1017C000256070BD00804342001C02402DE9F047B7
:1017D000814616480024016821F4406101600168D7
:1017E0000160134E254627464FF00108C6F8907257
:1017F000022000F0C9FBC6F890826006040ED6F8FD
:10180000140208B1641CE4B2012000F0BDFB6D1CA1
:10181000EDB2082DEAD3B9F1000F04D0FFF772FF43
:101820002046BDE8F087FFF7B1FFF9E7001C024052
:10183000008043422DE9F04106461448016821F436
:1018400040610160016841F480610160104C002733
:10185000C4F890723D464FF00108F009C4F89402B4
:101860007006060E022000F08FFBC4F89082022062
:1018700000F08AFBC4F89072022000F085FB6D1C1A
:10188000EDB2082DE9D3BDE8F0810000001C024054
:101890000080434270B50D48016821F44061016049
:1018A000016841F480610160094C0120C4F8940290
:1018B000C4F89002042004F5247400F065FB0025B0
:1018C0006560042000F060FB256070BD001C0240D4
:1018D000008043420E4810B5016821F44061016068
:1018E000016841F4806101600A4C0020C4F8900254
:1018F000C4F89402042004F5247400F045FB012090
:1019000020606060BDE81040042000F03DBB000096
:10191000001C02400080434270B512480024016858
:1019200021F440610160016801600F4D0126C5F896
:101930009462304600F028FBC5F89062012000F068
:1019400023FB07E0641CE4B2FA2C03D9FFF7C2FFC3
:10195000012070BDD5F814020028F3D1C5F890021B
:1019600070BD0000001C0240008043421CB5FEF721
:1019700028FC0121072000F07DF8642000F0F8FA2F
:101980000021072000F076F8642000F0F1FAFEF75D
:101990001AFC154801788DF8001041788DF8011077
:1019A00081788DF80210C1788DF8031001798DF8D7
:1019B000041040798DF805000D480C4901600121A3
:1019C0008A03C0E90112CA02C26000220282C0F882
:1019D00014D0C0E90612C9050162FEF70FFF002806
:1019E00000D001201CBD000024E100200080024046
:1019F00090010020FEE7FEE7144810B5026886B0AB
:101A0000002142F002020260006800F0020005902E
:101A10004FF48050CDE90001012002900320039093
:101A200069460B48FFF794F9FFF78CFEFFF732FF8A
:101A30004020FFF7FFFEFFF76FFF0446FFF74AFF66
:101A4000FF2000F027F806B0204610BD30380240D5
:101A50000004024010B5FFF71DFF4120FFF7EAFE2A
:101A6000FFF75AFF0020FFF7B1FE0446FFF732FFF1
:101A7000204610BD70B50C460546FFF7EBFF01226E
:101A8000AA402CB10243D0B2BDE8704000F002B8C9
:101A90009043F9E710B50446FFF7FCFE4020FFF73E
:101AA000C9FEFFF739FF2046FFF7C4FEFFF734FFFA
:101AB000FFF710FFBDE810400A2000F059BA0000FF
:101AC0001CB502E00FA000F039F903F087FF0028F1
:101AD000F8D111A000F032F903F056FF13490720A6
:101AE000CDE9000100234FF4007211A112480AF061
:101AF000F5FB0E48001F006809F0A8FEBDE81C4079
:101B000009F0CEBF4C57495020696E697420666158
:101B1000696C0D0A000000004C57495020696E693D
:101B20007420537563636573730D0A00040000200D
:101B30006170707461736B003D04000810B50AF0A9
:101B4000F9FB012801D00AF0C3F8BDE81040FFF707
:101B5000EFB9000030B593B030216846FEF7F0FBD6
:101B600014210CA8FEF7ECFB20480025016841F089
:101B700080510160006800F0805011901C4801689D
:101B800041F4404101600068022400F4404011909B
:101B900001200090000401908001CDE90640192049
:101BA00008904FF4B470CDE9090404200B90684606
:101BB000FFF774FB08B172B6FEE7FFF745FA08B10C
:101BC00072B6FEE70CA90F2081E831004FF4A05057
:101BD0000F904FF48050109005210CA8FFF76CFA7D
:101BE000002801D072B6FEE713B030BD4038024085
:101BF000007000400548016841F47001016003492C
:101C00004FF00060803908607047000088ED00E008
:101C10002DE9F041044600680169E26821F4405171
:101C2000114301612169A068E269084361691143B8
:101C300008432168CA6849F20C639A430243CA60A8
:101C400020684169A26921F4407111434161E06952
:101C5000192764253226B0F5004F354A35492068EA
:101C60004FF0000806D0884201D0904236D1FFF7ED
:101C7000D3FA35E0884201D0904202D1FFF7CCFA86
:101C800001E0FFF7B9FA61684A18A0FB070148EBC9
:101C90000803FEF70BFB0146B0FBF5F00201B1FBB8
:101CA000F5F06FF01803584301EB800006EBC0001D
:101CB000B0FBF5F000F0F80002EB4002B1FBF5F0EC
:101CC000584301EB800006EBC000B0FBF5F000F0DC
:101CD0000700216810448860BDE8F081FFF78CFAA6
:101CE00061688B0F8A00A0FB0701FEF7DFFA01464F
:101CF000B0FBF5F06FF01802504301EB800006EBEB
:101D00000010B0FBF5F000F0F002B1FBF5F002EBD3
:101D10000012B1FBF5F06FF01803584301EB80009F
:101D200006EB0010B0FBF5F000F00F00D1E700006B
:101D30000014014000100140FEE700000FB4054B05
:101D400010B503A9044A029800F028F810BC5DF809
:101D500014FB0000B54400084C0100200907090EDF
:101D6000002804DB00F1E02080F80014704700F048
:101D70000F0000F1E02080F8141D704702E008C851
:101D8000121F08C1002AFAD170477047002001E0F5
:101D900001C1121F002AFBD1704700002DE9FF4F3F
:101DA0008BB09A460F460546002606E025280BD044
:101DB00052460D9990476D1C761C28780028F5D165
:101DC0000FB03046BDE8F08F0024A04601226049E4
:101DD00000E0044315F8013F203B02FA03F00842FB
:101DE000F7D128782E2817D115F8010F44F00404F4
:101DF0002A280ED06FF02F022878A0F1300109298F
:101E00000AD808EB880102EB410100EB01086D1CC8
:101E1000F2E757F8048B6D1C287869283ED006DC61
:101E20000028CDD063280BD0642804D136E0732875
:101E300010D075284BD052460D999047761C85E0FE
:101E400017F8040B8DF8000000208DF80100E9461A
:101E5000012003E057F8049B4FF0FF3061074FF07B
:101E6000000401D40AE0641C44450DDA8442FADB24
:101E700019F804100029F6D106E0641C8442FCDB4A
:101E800019F804100029F8D1264404E019F8010BD0
:101E900052460D999047641EF8D257E001CF4FF09B
:101EA0000A0B002802DA40422D2102E0210504D568
:101EB0002B218DF82410012103E0E10705D020211A
:101EC000F7E70DF1200908910CE00021F9E701CFB7
:101ED0004FF00A0BF9E75946FEF74AFA01F13002D2
:101EE00009F8012D0028F6D1ADEB090000F1200B17
:101EF000600701D44FF00108D84502DDA8EB0B00C4
:101F000000E000208046002406E009A85246005D5B
:101F10000D999047641C761C08988442F5DB04E018
:101F2000302052460D999047761CB8F10001A8F177
:101F30000108F5DC05E019F8010B52460D999047B0
:101F4000761CBBF10001ABF1010BF4DC6D1C34E736
:101F50000928010010B502F013F9BDE81040002275
:101F6000024941F2883006F08BB90000551F000885
:101F700030B504464FF47A7502E0284600F004F8C4
:101F8000641EA4B2F9D230BD70B54FF0E024002237
:101F90006569B421A3694843A1698B4201D95B1AE1
:101FA00001E06E1A33441A440B468242F4D370BDEA
:101FB00058B1026A002A0FD0137B082B0CD1096894
:101FC000526A914208D100F081BA04A340F225324E
:101FD0000BA10FA0FFF7B2BE704700002E2E5C4C85
:101FE0005749505C6C7769702D312E342E315C73FB
:101FF00072635C636F72655C646863702E6300007B
:102000006E6574696620213D204E554C4C000000E1
:10201000417373657274696F6E2022257322206686
:1020200061696C6564206174206C696E652025644B
:1020300020696E2025730D0A000000002DE9FC4187
:10204000050017D02C6AD4B1616B4FF03C034F1CD4
:102050004FF480364FF001024FF6FF7019D01E3159
:10206000B1FBF3F1B14200D301460904090CA1838D
:102070000ED00EE028A34FF4697230A103E026A32E
:1020800040F2A63234A13AA0FFF758FEBDE8FC8129
:10209000A283A16B4F1C0AD01E31B1FBF3F1B142F8
:1020A00000D301460904090CE18300D1E283A28B2D
:1020B000E18B8A4202D309B10021A183A17B09B13E
:1020C000A06A09E094F824107F2901D8FF2003E0DA
:1020D000C02901D36FF07F400090E06A019028B9D9
:1020E000606A0099084040F08070019004F124017A
:1020F000284604F043FB6946284604F073FB01A917
:10210000284604F036FB284604F070FB0A212046DE
:1021100001F062F9BAE700002E2E5C4C5749505C82
:102120006C7769702D312E342E315C7372635C6371
:102130006F72655C646863702E630000646863702E
:102140005F62696E643A206E6574696620213D2085
:102150004E554C4C00000000646863705F62696E0D
:10216000643A206468637020213D204E554C4C0039
:10217000417373657274696F6E2022257322206625
:1021800061696C6564206174206C696E65202564EA
:1021900020696E2025730D0A0000000070B5046AE6
:1021A00005460821204601F017F9002204F1240118
:1021B000284601F0E7FD607B4FF4FA71401C607324
:1021C00040F2E730B0FBF1F0608370BD164810B507
:1021D000046825E0216A11B3C88B421ECA83012816
:1021E00006D0226A918B481E908301290CD016E0FC
:1021F000216A2046097B012903D00A2901D005293B
:102200000DD100F089FE0AE0216A2046097B0129F0
:1022100003D00A2901D0052901D101F027F824684B
:10222000002CD7D110BD0000C40000202DE9F041E2
:1022300017460C4606002CD0002C35D0206930B152
:1022400058A340F27E6260A169A0FFF777FD606944
:1022500030B154A340F27F6270A165A0FFF76EFD1C
:1022600000224FF49A752946104604F0CFFA2061F7
:10227000002823D04089A84206D24AA340F28662B1
:1022800070A15BA0FFF75AFD617B7E48002918D042
:102290001AE044A340F27C627BA155A0FFF74EFDFB
:1022A0006FF00D00BDE8F0813EA340F27D627EA19B
:1022B0004FA0FFF743FD6FF00500F3E74FF0FF304D
:1022C000F0E70168491C0160006820602069002572
:1022D000416801206161087061694870616996F820
:1022E000260088706069C570206803F05DFD616933
:1022F000082F486060690581606945816069C56033
:1023000008D0042F06D0032F07D1207B052801D049
:10231000042802D161697068C860606905616069FC
:10232000456160698561002096F82610814203D9D5
:10233000311891F8271000E0002100F11C026369B8
:10234000401C80B299541028EED3002000F12C01DB
:102350006269401C80B255544028F7D35FF00000FA
:1023600000F16C016269401C80B255548028F7D39B
:1023700061695548C1F8EC0025830020626900F1CD
:10238000F0015054401C80B24428F7D3012235217B
:10239000204600F005FA3946204600F04BFA0020AE
:1023A00080E700002E2E5C4C5749505C6C776970BA
:1023B0002D312E342E315C7372635C636F72655CF9
:1023C000646863702E630000646863705F637265A5
:1023D0006174655F6D73673A20646863702D3E7049
:1023E0005F6F7574203D3D204E554C4C0000000041
:1023F000417373657274696F6E20222573222066A3
:1024000061696C6564206174206C696E6520256467
:1024100020696E2025730D0A000000006468637057
:102420005F6372656174655F6D73673A20646863AA
:10243000702D3E6D73675F6F7574203D3D204E5566
:102440004C4C0000646863705F6372656174655F23
:102450006D73673A20636865636B207468617420EC
:10246000666972737420706275662063616E20689D
:102470006F6C642073747275637420646863705F3A
:102480006D736700A4000020646863705F63726509
:102490006174655F6D73673A206E657469662021AB
:1024A0003D204E554C4C0000646863705F6372655C
:1024B0006174655F6D73673A206468637020213DC5
:1024C000204E554C4C00000063825363F8B5046AFB
:1024D00006460C21204600F07FFF042221463046AC
:1024E000FFF7A4FE05001ED104223221204600F091
:1024F00057F9606A03F06FFC0146204600F0F6F9D8
:10250000204600F0B1FA208BF03081B2206904F04F
:10251000F7FE009643230A4A2169606808F02EFFFF
:10252000204600F00FF8607B4FF4FA71401C607396
:1025300042F60310B0FBF1F060832846F8BD0000BE
:10254000A4C8000810B5040002D0206948B10FE00B
:10255000BDE810400FA340F2C96217A11EA0FFF70B
:10256000EDBB0CA340F2CA6226A11BA0FFF7E6FB5D
:10257000606930B907A340F2CB622CA116A0FFF727
:10258000DDFB206908B104F079FD00202061606165
:1025900010BD00002E2E5C4C5749505C6C77697062
:1025A0002D312E342E315C7372635C636F72655C07
:1025B000646863702E630000646863705F64656CB8
:1025C0006574655F6D73673A206468637020213DB0
:1025D000204E554C4C000000417373657274696F56
:1025E0006E2022257322206661696C656420617407
:1025F000206C696E6520256420696E2025730D0AA4
:1026000000000000646863705F64656C6574655FFA
:102610006D73673A20646863702D3E705F6F7574E8
:1026200020213D204E554C4C000000006468637032
:102630005F64656C6574655F6D73673A2064686399
:10264000702D3E6D73675F6F757420213D204E5570
:102650004C4C0000F8B5046A054600206062062173
:10266000204600F0B9FE012221462846FFF7DEFD94
:10267000060030D102223921204600F091F8A98CC1
:10268000204600F0A9F904223721204600F088F8FE
:102690000121204600F0CEF80321204600F0CAF8C0
:1026A0001C21204600F0C6F80621204600F0C2F8A2
:1026B000204600F0D9F9208BF03081B2206904F077
:1026C0001FFE00954323114A2169606808F056FEF9
:1026D0002046FFF737FF607B401CC0B260730628BE
:1026E00002D20121814000E03C2101EB4100C0EB1E
:1026F000C1104FF6FF7101EAC0004FF4FA7100F209
:10270000F310B0FBF1F060833046F8BDA4C80008B8
:1027100070B50B48002504680EE0206A58B1418B63
:10272000012903D9A1F10101418304E003D14583CB
:10273000204600F073FF2468002CEED170BD00002D
:10274000C400002070B5046A0020144DA062E0624D
:10275000E978A5F1280609B1F1682163297909B161
:10276000316901E0216B49086163697909B17169D7
:1027700000E0216BA163A16809696162A97921B1B7
:10278000B06903F011FBA0620120A073E879002872
:1027900003D0F06903F008FBE06270BD60E2002046
:1027A00070B50E460446018B901C0844154644281B
:1027B00006D90BA340F2F642124913A0FFF7BEFA66
:1027C000208B61690144401C208381F8F060208BDC
:1027D00061690144401C208381F8F05070BD000005
:1027E0002E2E5C4C5749505C6C7769702D312E341D
:1027F0002E315C7372635C636F72655C64686370D6
:102800002E63000034C90008417373657274696FE8
:102810006E2022257322206661696C6564206174D4
:10282000206C696E6520256420696E2025730D0A71
:102830000000000070B50446008B0D46442806D306
:1028400007A340F201520FA11DA0FFF777FA208BDA
:1028500061690144401C208381F8F05070BD000084
:102860002E2E5C4C5749505C6C7769702D312E349C
:102870002E315C7372635C636F72655C6468637055
:102880002E630000646863705F6F7074696F6E5FC1
:10289000627974653A20646863702D3E6F70746964
:1028A0006F6E735F6F75745F6C656E203C2044487B
:1028B00043505F4F5054494F4E535F4C454E0000BC
:1028C000417373657274696F6E20222573222066CE
:1028D00061696C6564206174206C696E6520256493
:1028E00020696E2025730D0A0000000070B50446B3
:1028F000008B0D46001D442806D913A34FF4A26295
:102900001AA12AA0FFF71AFA208B6269290E024445
:10291000401C208382F8F010208B6269290C02444D
:10292000401C208382F8F010208B6269290A02443F
:10293000401C208382F8F010208B61690144401C08
:10294000208381F8F05070BD2E2E5C4C5749505CAE
:102950006C7769702D312E342E315C7372635C6339
:102960006F72655C646863702E63000064686370F6
:102970005F6F7074696F6E5F6C6F6E673A2064682A
:1029800063702D3E6F7074696F6E735F6F75745FE7
:102990006C656E202B2034203C3D20444843505F22
:1029A0004F5054494F4E535F4C454E004173736531
:1029B0007274696F6E2022257322206661696C65CE
:1029C00064206174206C696E6520256420696E2026
:1029D00025730D0A0000000070B50446008B0D46FB
:1029E000801C442806D90BA34FF4A162124913A0FE
:1029F000FFF7A4F9208B6269290A0244401C208356
:102A000082F8F010208B61690144401C208381F81A
:102A1000F05070BD2E2E5C4C5749505C6C7769703D
:102A20002D312E342E315C7372635C636F72655C82
:102A3000646863702E630000F0C80008417373651A
:102A40007274696F6E2022257322206661696C653D
:102A500064206174206C696E6520256420696E2095
:102A600025730D0A0000000010B5040002D0606953
:102A700048B10FE0BDE8104015A340F2DE621DA191
:102A800025A0FFF75BB912A340F2DF622DA122A0BF
:102A9000FFF754F9208B442806D30DA34FF4DC62D2
:102AA00033A11DA0FFF74AF9208B6269FF21024480
:102AB000401C208382F8F010002105E06269024486
:102AC000401C208382F8F010208B4428F6D310BDE0
:102AD0002E2E5C4C5749505C6C7769702D312E342A
:102AE0002E315C7372635C636F72655C64686370E3
:102AF0002E630000646863705F6F7074696F6E5F4F
:102B0000747261696C65723A206468637020213D5B
:102B1000204E554C4C000000417373657274696F10
:102B20006E2022257322206661696C6564206174C1
:102B3000206C696E6520256420696E2025730D0A5E
:102B400000000000646863705F6F7074696F6E5F8F
:102B5000747261696C65723A20646863702D3E6DB1
:102B600073675F6F757420213D204E554C4C0A00F1
:102B7000646863705F6F7074696F6E5F74726169AF
:102B80006C65723A20646863702D3E6F7074696F73
:102B90006E735F6F75745F6C656E203C20444843B4
:102BA000505F4F5054494F4E535F4C454E0A000002
:102BB0002DE9FE4F04460020894602900A219E48D6
:102BC000FDF7BEFBB9F80A002C2814D3D9F804008D
:102BD000A060B9F80800DFF86082F0254F4604E0F5
:102BE0006A1A401A3F6895B280B227B17989A94222
:102BF000F6D98346F0E06FF00100BDE8FE8F00BF1C
:102C0000A81C80B201907A89681C4FF0FF3682427E
:102C100003D90AEB0500407803E0386808B1406842
:102C20000078342904465CD00BDC032934D003DC63
:102C300029B301290DD127E0062936D0332908D13F
:102C400046E0352955D036295CD03A2962D03B2957
:102C500068D000242844801C85B2002C0ED00020AF
:102C600000900A2E06D375A340F2AD527CA181A03C
:102C7000FFF764F818F8060000285BD09CE00020FD
:102C80006D1E0446ADB2E5E7042803D06BA340F205
:102C90007B5222E00626DDE70424042803D267A342
:102CA0004FF4B06210E00726D4E7810704D063A395
:102CB00040F285527AA16AE0082800D30824A04295
:102CC00004D25EA34FF4B16279A160E00826C1E7A7
:102CD000042804D059A340F28C527AA157E003266D
:102CE000B8E7012803D055A34FF4B26206E00026EE
:102CF000B0E7012804D051A340F2945274A146E0F9
:102D00000126A7E7042803D04CA34FF4B362E4E7FD
:102D100002269FE7042803D048A340F29C52DCE738
:102D2000042697E7042803D044A34FF4B462D4E701
:102D300005268FE7042C01D2224600E004226946D2
:102D40003846019B04F010F9042C18D9A00704D0D0
:102D50003AA340F2B35261A119E0012108F806102C
:102D6000009803F021F83449241F2839E4B241F8CF
:102D700026000198001D80B2761C019071E7042C9A
:102D80000BD0012C0DD02DA340F2BD5258A139A07B
:102D9000FEF7D4FF6FF005002FE7009803F01BF853
:102DA00001E09DF800000090012008F8060022488C
:102DB0000099283840F826107889A84217D8291A8F
:102DC000ABEB00008DB21FFA80FB5D4517D2BBF163
:102DD000000F14D03F6817B1D7F804A008E017A37C
:102DE00040F2C95247A123A0FEF7A8FF07E037B180
:102DF0001AF80510FF2902D05D45FFF401AF98F8DD
:102E0000000058B10C4800222838006888F80020DB
:102E100001280DD0022804D0032807D002980028EA
:102E2000BAD000202C2502906C20D7E60120029019
:102E30006C25EC20D2E6000060E200202E2E5C4CD7
:102E40005749505C6C7769702D312E342E315C738C
:102E500072635C636F72655C646863702E6300000C
:102E6000636865636B206465636F64655F6964783C
:102E700000000000417373657274696F6E20222533
:102E80007322206661696C6564206174206C696ED0
:102E90006520256420696E2025730D0A000000005E
:102EA0006C656E20252034203D3D20300000000060
:102EB0006C656E203E3D206465636F64655F6C6584
:102EC0006E0000006C656E203D3D20340000000067
:102ED0006C656E203D3D2031000000006465636F2D
:102EE00064655F6C656E20252034203D3D203000F8
:102EF000696E76616C6964206465636F64655F6C9C
:102F0000656E00006E65787420706275662077616A
:102F100073206E756C6C0000F8B5046A05460421D8
:102F2000204600F059FA032221462846FFF77EF991
:102F300006001BD1022239212046FFF731FCA98C63
:102F40002046FFF749FD2046FFF78EFD208BF0302D
:102F500081B2206904F0D4F9009543230F4A216916
:102F6000606808F00BFA2046FFF7ECFA607B401C23
:102F7000C0B260730A2804D24FF47A7110FB01F0DA
:102F800001E042F2107080B24FF4FA7100F2F310D7
:102F9000B0FBF1F060833046F8BD0000A4C8000823
:102FA000F8B5046A06460321204600F015FA03220C
:102FB00021463046FFF73AF9050028D1022239218F
:102FC0002046FFF7EDFB4FF410712046FFF704FD9C
:102FD000042232212046FFF7E3FB606A02F0FBFE89
:102FE00001462046FFF782FC2046FFF73DFD208B7F
:102FF000F03081B2206904F083F9009643230F4A30
:103000002169606808F0BAF92046FFF79BFA607BF7
:10301000401CC0B260730A2804D24FF47A7110FBCE
:1030200001F001E042F2107080B24FF4FA7100F248
:10303000F310B0FBF1F060832846F8BDA4C8000887
:103040002DE9F041056A04465768A868164630B174
:1030500042A340F211624AA14EA0FEF76FFE7089B2
:103060004FF000082C2872D3387802286FD1002046
:1030700094F8261008E022183B1892F827201B7FAE
:103080009A4264D1401CC0B28142F4D8786802F000
:10309000A2FE296888425AD131462846FFF788FDAA
:1030A00000BB47494878E8B1A1F12802107905280A
:1030B00004D0062817D0022836D048E0287B012803
:1030C00006D003280BD0042809D0052807D03EE0FD
:1030D0002046FFF737FB2046FFF760F837E0204631
:1030E000FEF7ACFF33E0287B032805D0012803D08E
:1030F000042801D005282AD12046276A03F02CFB9A
:103100003049204603F03AFB2E49204603F031FBBC
:103110002C49204603F066FB0C21384600F05CF990
:103120002046FFF797FA12E0287B06280FD1A5F872
:103130001A802746246A887848B1906802F034FEE5
:103140002062A06800696062384600F0D1F830461D
:10315000C5F80880BDE8F04103F090BF2E2E5C4C0E
:103160005749505C6C7769702D312E342E315C7369
:1031700072635C636F72655C646863702E630000E9
:103180007265706C79207761736E27742066726542
:1031900065640000417373657274696F6E20222547
:1031A0007322206661696C6564206174206C696EAD
:1031B0006520256420696E2025730D0A000000003B
:1031C00060E20020A0C80008F8B5046A05460021A6
:1031D000204600F001F9002020626062A062E062F7
:1031E000A06360632063072221462846FFF71EF88C
:1031F000060013D12046FFF737FC208BF03081B258
:10320000206904F07DF80095432304F12002216930
:10321000606808F0B3F82046FFF794F9607B401C23
:10322000C0B260730A2804D24FF47A7110FB01F027
:1032300001E042F2107080B24FF4FA7100F2F31024
:10324000B0FBF1F06083284603F086FA0649284671
:1032500003F094FA0449284603F08BFA0249284601
:1032600003F0C0FA3046F8BDA0C80008F8B5046AFB
:1032700005460521204600F0AFF8032221462846E6
:10328000FEF7D4FF06001CD1022239212046FFF7A9
:1032900087FAA98C2046FFF79FFB2046FFF7E4FB47
:1032A000208BF03081B2206904F02AF80095432386
:1032B00004F120022169606808F060F82046FFF7F9
:1032C00041F9607B401CC0B260730A2804D24FF4FD
:1032D000FA6110FB01F001E044F6206080B24FF487
:1032E000FA7100F2F310B0FBF1F060833046F8BDE4
:1032F000F8B5046A05460121204600F06DF8032266
:1033000021462846FEF792FF060048D102223921C5
:103310002046FFF745FAA98C2046FFF75DFB042203
:1033200032212046FFF73CFA606A02F054FD014664
:103330002046FFF7DBFA042236212046FFF730FA59
:10334000206A02F048FD01462046FFF7CFFA04222A
:1033500037212046FFF724FA01212046FFF76AFAB9
:1033600003212046FFF766FA1C212046FFF762FA88
:1033700006212046FFF75EFA2046FFF775FB208BFB
:10338000F03081B2206903F0BBFF00954323114A5E
:103390002169606807F0F2FF2046FFF7D3F8607BF1
:1033A000401CC0B26073062802D20121814000E0B7
:1033B0003C2101EB4100C0EBC1104FF6FF7101EA67
:1033C000C0004FF4FA7100F2F310B0FBF1F060832B
:1033D0003046F8BDA4C80008027B8A4203D00173BE
:1033E000002141734183704770B505006FF00D06F1
:1033F00049D095F82D002C6A20F0080085F82D00A2
:1034000080064FD5A88C3611B0F5107F4AD3002C1A
:1034100041D0606808B107F09BFF206930B125A357
:1034200040F29E222CA132A0FEF788FCA06830B1A9
:1034300020A340F29F2239A12DA0FEF77FFC3C2162
:103440002046FCF77DFF07F073FF6060002829D05D
:10345000017A442241F0200101723549606807F089
:10346000A9FD43223249606807F030FE2A463149FF
:10347000606807F06AFF2846FFF7ECF8A0B128461D
:1034800000F062F80EE00BA340F27A222AA118A005
:10349000FEF754FC06E03C2002F014FE040001D0CC
:1034A0002C62CCE7304670BD15F82D1F41F00801A5
:1034B000297070BD2E2E5C4C5749505C6C7769703A
:1034C0002D312E342E315C7372635C636F72655CD8
:1034D000646863702E6300007062756620705F6FB1
:1034E0007574207761736E27742066726565640059
:1034F000417373657274696F6E2022257322206692
:1035000061696C6564206174206C696E6520256456
:1035100020696E2025730D0A000000007265706C32
:1035200079207761736E2774206672656564000088
:10353000A0C80008413000086E6574696620213D0E
:10354000204E554C4C00000010B500281CD050F8FF
:10355000204F417B002C21F0080141731DD0606891
:1035600018B107F0F5FE00206060A06830B10BA331
:1035700040F2DA4212A117A0FEF7E0FB2046BDE8B8
:1035800010400021FFF728BFBDE8104003A340F220
:10359000C7421BA10FA0FEF7D1BB10BD2E2E5C4C65
:1035A0005749505C6C7769702D312E342E315C7325
:1035B00072635C636F72655C646863702E630000A5
:1035C0007265706C79207761736E277420667265FE
:1035D00065640000417373657274696F6E20222503
:1035E0007322206661696C6564206174206C696E69
:1035F0006520256420696E2025730D0A00000000F7
:10360000646863705F73746F703A206E6574696686
:1036100020213D204E554C4C0000000010B5026AA0
:103620000446117B0C2913D0062911D0012913D08F
:1036300008291ED0052928D004292AD0032930D1F1
:10364000507B022813D22046BDE81040FFF7A8BCEB
:10365000BDE81040FEF7FEBF507B052804D8204689
:10366000BDE81040FFF744BE2046FFF7ADFD204601
:10367000EEE7507B0128204603D8BDE81040FEF756
:103680008DBDBDE81040FEF7D9BCBDE81040FFF786
:10369000EDBD507B0828E7D82046BDE81040FFF775
:1036A0003BBC10BD10B5FEF791FDBDE810400022F7
:1036B00002494EF6602004F0E3BD0000A536000884
:1036C00010B5FFF725F8BDE81040002202494FF47D
:1036D000FA7004F0D5BD0000C13600082DE9F84F9E
:1036E00090468946050010D0B8F80A002A286DD304
:1036F000D8F804604FF4807A344634F80E0F504501
:1037000064D12079062861D108E032A340F2BB22BF
:103710003AA13EA0FEF712FBBDE8F88F60790428BD
:1037200054D16088082851D1D4F80E000090A169C6
:10373000281D06D0686820B1814202D101273B468E
:1037400001E00027022304F108026946284600F040
:103750003BFDE088504503D0B0F5007F36D131E025
:10376000002F33D0022002F021FBE080D4F80E00BD
:10377000A0616868C4F80E0095F82600062806D0F7
:1037800014A340F211322C4920A0FEF7D7FAA0680A
:10379000C4F81200A089E082A0683060A089B080DF
:1037A000D9F80010A160B9F80400A081D9F8001080
:1037B000C6F80610B9F804007081AA694146284687
:1037C000904703E069462846FEF7F2FB404603F0C7
:1037D00055FCA1E72E2E5C4C5749505C6C77697004
:1037E0002D312E342E315C7372635C6E65746966A4
:1037F0005C6574686172702E630000006E657469A8
:103800006620213D204E554C4C00000041737365ED
:103810007274696F6E2022257322206661696C655F
:1038200064206174206C696E6520256420696E20B7
:1038300025730D0A00000000ACC8000870B50A4DE1
:103840000646002404EB840005EB8000817C29B14E
:103850008068B04202D1204600F02EF9641CE4B228
:103860000A2CEFD370BD000070E100202DE9F34F6A
:1038700085B04FF00A0B00240646DA465F460294F4
:10388000D9460194CDF800404F4904EB840001EB88
:103890008008039098F812500A2F16D0002D24D0DB
:1038A000012D08D0022D06D248A340F22B1251A1BF
:1038B00060A0FEF743FA66B13168D8F8040081428F
:1038C00007D160B207B0BDE8F08F002DE8D167B234
:1038D0000BE0012D17D0022D07D398F813000199A2
:1038E000884202D34FFA84FA0190641CE4B20A2C95
:1038F000CAD3069881074FF0FF30E3D40A2F18D0BF
:103900001ADAFCB242E03048039950F8210000284E
:1039100098F8130006D000998842E6D34FFA84F94C
:103920000090E2E702998842DFD34FFA84FB0290CD
:10393000DBE70699C907C5D0BAF10A0F0FDA0AF01A
:10394000FF04214804EB840150F8210090B11FA32B
:1039500040F2711242A137A0FEF7F0F90AE0BBF184
:103960000A0F02DA0BF0FF0404E0B9F10A0FA9DA3A
:1039700009F0FF040A2C06D314A340F283123EA1DF
:103980002CA0FEF7DBF9204600F096F80A2C06D3AF
:103990000EA340F2871238A126A0FEF7CFF90A48FD
:1039A00004EB840100EB8105A87C30B107A34FF440
:1039B000C47236A11FA0FEF7C1F90EB1306868606D
:1039C0000020E8747DE7000070E100202E2E5C4CA2
:1039D0005749505C6C7769702D312E342E315C73F1
:1039E00072635C6E657469665C6574686172702E82
:1039F000630000007374617465203D3D20455448A8
:103A00004152505F53544154455F50454E44494ED6
:103A100047207C7C207374617465203E3D204554B2
:103A2000484152505F53544154455F535441424CB6
:103A300045000000417373657274696F6E20222522
:103A40007322206661696C6564206174206C696E04
:103A50006520256420696E2025730D0A0000000092
:103A60006172705F7461626C655B695D2E71203D8F
:103A70003D204E554C4C000069203C204152505F87
:103A80005441424C455F53495A4500006172705F92
:103A90007461626C655B695D2E7374617465203D51
:103AA0003D204554484152505F53544154455F4571
:103AB0004D5054590000000070B50C4D00EB8006CD
:103AC000002455F8260018B103F0D8FA45F826402E
:103AD00005EB860006498474C47484604460D1F8A0
:103AE0000620C2604989018270BD000070E100209B
:103AF00008C800082DE9FC4115460E46040006D111
:103B000046A340F275324FA152A0FEF717F936B91D
:103B100042A340F276325AA14EA0FEF70FF935B912
:103B20003EA340F2773259A14AA0FEF707F90E21D1
:103B3000304603F059FB18B16FF00100BDE8FC817D
:103B40002146286800F0AEFE08B1544B3CE02868DE
:103B5000C0F303110E2922D0A168636800EA0102B4
:103B60000B409A420BD080B2A0F57E41A93906D015
:103B700014F10C0F2FD0E06868B304F10C05484A2B
:103B80004849137803EB830001EB8000877C022F08
:103B900024D32F684068874220D11A462EE00120A6
:103BA0008DF8000000208DF801005E208DF80200E5
:103BB00068786B4600F07F008DF80300A8788DF8D8
:103BC0000400E8788DF8050004F12702314620460C
:103BD00000F086FAB2E76FF00300AFE75FF0000095
:103BE00000EB800301EB83039F7C022F0BD32F6834
:103BF0005B689F4207D1C0B2107002463146204632
:103C000000F052F89AE7401C40B20A28E8DB32463E
:103C10002946204600F0B6F890E700002E2E5C4CB6
:103C20005749505C6C7769702D312E342E315C739E
:103C300072635C6E657469665C6574686172702E2F
:103C4000630000006E6574696620213D204E554C6E
:103C50004C000000417373657274696F6E202225F9
:103C60007322206661696C6564206174206C696EE2
:103C70006520256420696E2025730D0A0000000070
:103C80007120213D204E554C4C000000697061644C
:103C9000647220213D204E554C4C000008C800089D
:103CA000A000002070E1002070B505460E461348C4
:103CB00002EB820100EB8104A07C022806D210A353
:103CC0004FF4537218A124A0FEF738F8A07C022804
:103CD00009D1E07CE42806D3211D284600F0EEF946
:103CE00008B90320A07404F10C0305F12702314642
:103CF0002846BDE8704000F0F3B9000070E10020F4
:103D00002E2E5C4C5749505C6C7769702D312E34E7
:103D10002E315C7372635C6E657469665C65746891
:103D20006172702E630000006172705F7461626C7A
:103D3000655B6172705F6964785D2E737461746530
:103D4000203E3D204554484152505F535441544514
:103D50005F535441424C4500417373657274696FFF
:103D60006E2022257322206661696C65642061746F
:103D7000206C696E6520256420696E2025730D0A0C
:103D8000000000002DE9F74F82B0884602984FF0FE
:103D9000FF3B27300090086814465E46029900F009
:103DA00081FD002829D1D8F80000C0F303110E29A5
:103DB00023D0B8F1000F20D000281ED001214046AA
:103DC000FFF754FD07001AD4DFF8D8A007EB8709E6
:103DD0000AEB8905A87C002814D0012814D00228F9
:103DE00009D231A340F2194239A143A0FDF7A6FF41
:103DF000A87C012808D03CB10DE06FF00D0005B0A3
:103E0000BDE8F08F0120A8744146029800F056F9F1
:103E10000646002CF3D0A87CD04602280AD341489D
:103E200005F10C0321460770009A029800F058F93A
:103E3000064634E0012832D1254640F23E466889E4
:103E40002989884207D1286828B117A3324636A1AC
:103E500029A0FDF773FF287B01280ED029890022B5
:103E6000032002F0D3FC050018D0214602F08CFF9D
:103E700058B1284603F002F910E02D68002DDED17C
:103E80002546204603F000FB45B158F8290008B14B
:103E900003F0F4F848F82950002600E05E4630466A
:103EA000ADE7000070E100202E2E5C4C5749505CBD
:103EB0006C7769702D312E342E315C7372635C6EB9
:103EC000657469665C6574686172702E63000000D9
:103ED0006172705F7461626C655B695D2E737461A1
:103EE0007465203D3D2050454E44494E47206F7239
:103EF00020535441424C4500417373657274696F9D
:103F00006E2022257322206661696C6564206174CD
:103F1000206C696E6520256420696E2025730D0A6A
:103F200000000000A00000206E6F207061636B65D0
:103F3000742071756575657320616C6C6F7765644D
:103F4000210000002DE9F05FDDF82CB09846914685
:103F50008A46070006D132A340F2A5423AA13EA00C
:103F6000FDF7ECFE00222A21032002F04FFC0600A0
:103F700053D070892A2806D229A34FF4966241A112
:103F800035A0FDF7DBFE75680D9805F10E0401F014
:103F90000DFFE08097F82600062806D020A34FF4F6
:103FA000976245492CA0FDF7C9FED8F80010A16022
:103FB000B8F80400A081DBF80010C4F81210BBF8B8
:103FC0000400E082D9F800102960B9F80400A88044
:103FD000DAF80010C5F80610BAF8040068810A98EB
:103FE00031460068C4F80E000C980068A0614FF4D8
:103FF000807020800820608006202071042060717D
:104000004FF4C160A881BA693846904704463046EB
:1040100003F034F82046BDE8F09F4FF0FF30FAE798
:104020002E2E5C4C5749505C6C7769702D312E34C4
:104030002E315C7372635C6E657469665C6574686E
:104040006172702E630000006E6574696620213D08
:10405000204E554C4C000000417373657274696FBB
:104060006E2022257322206661696C65642061746C
:10407000206C696E6520256420696E2025730D0A09
:1040800000000000636865636B20746861742066DB
:104090006972737420706275662063616E20686F48
:1040A0006C642073747275637420657468617270D7
:1040B0005F68647200000000ACC800081FB50123EF
:1040C000064C021DCDE90213CDE9002400F12703BF
:1040D0001946A21FFFF736FF04B010BD0EC8000836
:1040E0002DE9F041054690F826004C681E4617461B
:1040F0008846062806D00CA340F2A312144915A046
:10410000FDF71CFE30682060B088A0803868C4F8D5
:104110000600B88860810820A08141462846AA6927
:10412000BDE8F041104700002E2E5C4C5749505C12
:104130006C7769702D312E342E315C7372635C6E36
:10414000657469665C6574686172702E6300000056
:10415000ACC80008417373657274696F6E202225C4
:104160007322206661696C6564206174206C696EDD
:104170006520256420696E2025730D0A000000006B
:1041800070B5104D002400BF04EB840005EB8001E6
:10419000887C90B1CA7C521CD2B2CA74F02A06D272
:1041A000012802D0032806D007E0022A05D32046C2
:1041B000FFF782FC01E002208874641CE4B20A2C40
:1041C000E2D370BD70E100202DE9F041044690F883
:1041D00026001F4616460D46062806D01EA340F2AE
:1041E000C31227A130A0FDF7A9FD85B3286870B3DD
:1041F000214600F057FB50BB2878C0F303100E286F
:1042000026D039462846FFF731FB00281DDB00EB9E
:1042100080013048022300EB81029374946033687C
:10422000D360B38813820023D37450F821505DB15A
:1042300040F82130334604F1270229462046FFF793
:104240004FFF284602F01AFF0020BDE8F081FFE78B
:104250006FF00D00F9E700002E2E5C4C5749505CC2
:104260006C7769702D312E342E315C7372635C6E05
:10427000657469665C6574686172702E6300000025
:104280006E657469662D3E6877616464725F6C6503
:104290006E203D3D204554484152505F48574144AF
:1042A00044525F4C454E0000417373657274696FF0
:1042B0006E2022257322206661696C65642061741A
:1042C000206C696E6520256420696E2025730D0AB7
:1042D0000000000070E1002070B5044640890D46E2
:1042E0000E2842D9606801788689CA0714D001294E
:1042F00005D006221F49FCF72EF848B10CE04178A2
:1043000051B980785E2807D1607B40F0100002E050
:10431000607B40F008006073082E03D0B6F5C16FD3
:1043200023D116E095F82D0080061ED56FF00D0103
:10433000204602F059FF38B10FA340F24F5218A1A6
:1043400020A0FDF7FBFC10E02946204600F0FEFB14
:1043500009E095F82D00800607D5224605F12701D2
:104360002846FFF7BBF9002070BD204602F086FE0C
:10437000F9E7000008C800082E2E5C4C5749505C35
:104380006C7769702D312E342E315C7372635C6EE4
:10439000657469665C6574686172702E6300000004
:1043A00043616E2774206D6F7665206F766572208D
:1043B00068656164657220696E207061636B657405
:1043C00000000000417373657274696F6E202225CE
:1043D0007322206661696C6564206174206C696E6B
:1043E0006520256420696E2025730D0A00000000F9
:1043F00010B5040005D10AA3C42214A116A0FDF72C
:104400009DFC652084F82E006E2084F82F001D4846
:1044100060611D48A061204601F098F9002010BDA0
:104420002E2E5C4C5749505C6C7769702D312E34C0
:104430002E315C7372635C6E657469665C6574686A
:1044400065726E657469662E630000006E6574693E
:1044500066213D4E554C4C00417373657274696F13
:104460006E2022257322206661696C656420617468
:10447000206C696E6520256420696E2025730D0A05
:1044800000000000F53A00088D58000870B5054698
:1044900001F09AF9040009D02A69294690470500DD
:1044A00002D0204602F0EAFD284670BD4FF0FF30F2
:1044B00070BD000003490A685206FCD5C2B24A60CA
:1044C00070470000001001400A46032100F040B987
:1044D0002DE9FE4F456804468A4628780007870E76
:1044E00079428846204602F07FFE00287AD1208952
:1044F000042877D36068007800287FD008287DD111
:10450000414901260868C0F303120E2A00D1002693
:104510008946514600F0C6F900286FD1002E6DD0B3
:10452000208908286AD3204600F098F9002865D130
:104530002221204602F058FE002831D0394620467C
:1045400002F052FE18B131A398223AA147E0218926
:104550000022022002F05AF906004FD0718907F1BB
:104560000800814205D229A3A1223FA14CA0FDF75A
:10457000E5FB2146304602F007FC18B123A3A52233
:1045800052A12CE041463046756802F02DFE10B174
:104590001EA3AB220CE0204602F070FD344609E079
:1045A0006FF02101204602F01FFE18B117A3B522BB
:1045B00050A114E06068D9F80010E9605A4900265B
:1045C0000968296106704680FF2028726E8139468D
:1045D000204602F009FE30B10CA3DA2253A130A02C
:1045E000FDF7ACFB0AE00121CDE90061FF230022C9
:1045F000CDF808A00449204600F0BAFB2046BDE8EB
:10460000FE4F02F03BBD0000300100202E2E5C4C1E
:104610005749505C6C7769702D312E342E315C73A4
:1046200072635C636F72655C697076345C69636D3C
:10463000702E630069636D705F696E7075743A20E7
:104640006D6F76696E6720702D3E7061796C6F6159
:104650006420746F206970206865616465722066EB
:1046600061696C65640A0000636865636B20746847
:10467000617420666972737420706275662063616C
:104680006E20686F6C642073747275637420746834
:10469000652049434D5020686561646572000000E3
:1046A000417373657274696F6E20222573222066D0
:1046B00061696C6564206174206C696E6520256495
:1046C00020696E2025730D0A0000000069636D707B
:1046D0005F696E7075743A20636F7079696E6720D8
:1046E000746F206E65772070627566206661696CF4
:1046F00065640A0069636D705F696E7075743A2055
:10470000726573746F72696E67206F726967696E24
:10471000616C20702D3E7061796C6F616420666100
:10472000696C65640A0000002C01002043616E275B
:1047300074206D6F7665206F7665722068656164A0
:10474000657220696E207061636B65740000000003
:104750002DE9FE4391460E46074600222421012002
:1047600002F054F805002DD06889242806D216A33B
:104770004FF499721EA129A0FDF7E0FA6C68D7F8F2
:1047800004801C22267084F801900026A680E68012
:10479000686879680830FBF7BAFD66806989204649
:1047A00000F056F86080D8F80C0002900120CDE9A6
:1047B0000060FF2302AA0021284600F085FA28465F
:1047C00002F05CFCBDE8FE832E2E5C4C5749505C29
:1047D0006C7769702D312E342E315C7372635C639B
:1047E0006F72655C697076345C69636D702E63000E
:1047F000636865636B2074686174206669727374A2
:1048000020706275662063616E20686F6C64206939
:10481000636D70206D6573736167650041737365C7
:104820007274696F6E2022257322206661696C653F
:1048300064206174206C696E6520256420696E2097
:1048400025730D0A000000000A460B21FFF780BF08
:1048500010B501F0CDFAC04380B210BD70B5002490
:104860002646054613E06989686801F0C1FA2044CC
:10487000010C11FA80F4A87AC00707D0C6F1010034
:10488000C6B2E0B2C4F3072141EA00242D68002D2E
:10489000E9D126B1E0B2C4F3072141EA0024E043A4
:1048A00080B270BD421C12D088B191F82D209207C1
:1048B0000BD54B68834208D0896800EA01020B409F
:1048C0009A4202D10143491C01D0002070470120C7
:1048D000704700002DE9F74F8AB004460B98142763
:1048E0000025868C60680690C08801F076FAC0F3D7
:1048F0000C0B00F40050089020891438143E1FFA65
:1049000080F8F01706EB5070C0F3CF0007960590C3
:104910008DE00799884501DC012000E00020089A1D
:10492000CBF30C0111430491002825D0404680B2FE
:10493000039000221421022001F068FF5FEA0009C1
:1049400020D06089142806D240A340F2FB224AA15D
:1049500051A0FDF7F3F91422D9F804000699FBF7EA
:10496000D6FCD9F804000290606838446060608921
:10497000C01B6081039E31E041F400500490059813
:10498000C000D4E74FF0FF300DB0BDE8F08F65896F
:10499000B54200D9354605B3062001F0EDFD07000C
:1049A0004BD06068CDE900053B4602222946032032
:1049B00002F0D8F85FEA000A43D0204602F064FD16
:1049C0004048C7E904045146484602F037F9701BD5
:1049D0000604360C04D02468D9E72468002ED6D10A
:1049E0002F46049801F0E2F90299C8800398143028
:1049F00080B201F0DBF902994880029800214181E0
:104A000014210298FFF724FF029948810B98494628
:104A10000C9A43699847484602F030FB0398A8EB8C
:104A200000001FFA80F8059858441FFA80FBB8F17F
:104A3000000F7FF46EAF0020A6E7484602F01EFB91
:104A4000A0E7384600F040F8F7E700002E2E5C4C57
:104A50005749505C6C7769702D312E342E315C7360
:104A600072635C636F72655C697076345C69705FF9
:104A7000667261672E63000074686973206E6565F5
:104A800064732061207062756620696E206F6E65A8
:104A90002070696563652100417373657274696F85
:104AA0006E2022257322206661696C656420617422
:104AB000206C696E6520256420696E2025730D0ABF
:104AC00000000000FD55000810B5040006D106A343
:104AD00040F279220FA112A0FDF730F92146BDE87E
:104AE0001040062001F0C0BC2E2E5C4C5749505C93
:104AF0006C7769702D312E342E315C7372635C6378
:104B00006F72655C697076345C69705F667261674C
:104B10002E6300007020213D204E554C4C000000BB
:104B2000417373657274696F6E202225732220664B
:104B300061696C6564206174206C696E6520256410
:104B400020696E2025730D0A000000002DE9F05F3A
:104B5000456806460F4628780421B1EB101F0FD197
:104B600000F00F004FF6FF7101EA8009688801F03C
:104B700034F9728901464A4502D33089884203D20A
:104B8000304602F07BFA63E0304602F0B9FB4C4855
:104B90002969A0F1040A0160EA684FF001083C4667
:104BA0008346CAF8002000BF94F82D00C0070ED03D
:104BB000201D0CD0606850B1DBF80020824204D088
:104BC00021461046FFF76EFE08B174B116E0B8F149
:104BD000000F04D03B484FF00008046800E0246850
:104BE000BC4200D12468002CDED1687A112805D19E
:104BF00005EB09004088B0F5884F27D0DAF800208F
:104C000062B1D04639461046FFF74CFE0028B7D1B6
:104C100098F80000C0F303100E28B1D0002CAFD0DC
:104C2000E88830F0C00005D0304600F053F90600A7
:104C30000ED07568DFF888803946A8F11008304634
:104C4000C8E9017503F0B8F928B12FE03C46E5E763
:104C50000020BDE8F09F687A012815D006280ED004
:104C6000112807D05C463946DBF80000FFF71AFE32
:104C700078B118E03946304606F050FA16E0394669
:104C8000304603F085FF11E039463046FFF720FC3F
:104C90000CE02078C0F303100E2804D00221304627
:104CA0007560FFF711FC304602F0E8F90020C8F803
:104CB0000400C8F80800CAF80000CBF80000C7E7F5
:104CC00030010020C40000202DE9FE430446DDE948
:104CD0000A65C089984617468946012806D00CA364
:104CE00040F2393214A117A0FDF728F8384600F039
:104CF00065FC50B10096CDE9015043463A4649461D
:104D0000204600F035F8BDE8FE836FF00300FAE7B7
:104D10002E2E5C4C5749505C6C7769702D312E34C7
:104D20002E315C7372635C636F72655C697076349C
:104D30005C69702E63000000702D3E726566203D38
:104D40003D203100417373657274696F6E202225B6
:104D50007322206661696C6564206174206C696EE1
:104D60006520256420696E2025730D0A000000006F
:104D70002DE9F84F0546DDE90BA6C089DDF828B01E
:104D8000984617468946012806D02DA34FF427726E
:104D900035A138A0FCF7D2FF002F3CD014212846C3
:104DA00002F022FA18B16FF00100BDE8F88F6889AF
:104DB0006C68142806D222A340F2C92238A12DA083
:104DC000FCF7BCFF84F8088084F809A038682061EB
:104DD0004520207084F801B0288900F0E7FFDFF853
:104DE000F08060804FF0000AA4F806A0B8F8000038
:104DF00000F0DCFFA080B8F80000401CA8F800001C
:104E0000B9F1000F02D0D9F8000000B97068E06075
:104E1000A4F80AA003E068686F4600690090B08CAF
:104E200040B12989814205D93A4631462846FFF7E3
:104E300051FDBAE773693A46294630469847B4E7C8
:104E40002E2E5C4C5749505C6C7769702D312E3496
:104E50002E315C7372635C636F72655C697076346B
:104E60005C69702E63000000702D3E726566203D07
:104E70003D203100417373657274696F6E20222585
:104E80007322206661696C6564206174206C696EB0
:104E90006520256420696E2025730D0A000000003E
:104EA000636865636B2074686174206669727374EB
:104EB00020706275662063616E20686F6C64207379
:104EC00074727563742069705F686472000000001A
:104ED000200100202DE9F14F4FF0000A00984568AD
:104EE000287800F00F0005287ED1E88800F075FFD3
:104EF000C0044FEA1049688800F06FFF297801F07C
:104F00000F01494200EB81001FFA80F8009801F080
:104F100032FF524E0746308838440A2809D93946AC
:104F2000284600F0F1FA00285ED0308838440A287C
:104F30005AD84FF0000B74680DE06069E968884248
:104F400007D1A0692969884203D1A089A98888422C
:104F500004D0A2462468002CEFD106E02CB1E888EA
:104F600000F03BFFC0041DD027E0052001F004FB4A
:104F700004000AD13946284600F0C6FAB84268DB78
:104F8000052001F0F9FA040063D02021FBF7D8F9DD
:104F90000320E077706820601422294604F108009D
:104FA000746008E0E08900F018FFC00405D0142206
:104FB000294604F10800FBF7AAF93088384430800C
:104FC000A879800606D4A07F40F00100A07709EB05
:104FD0000800A0832046009900F042F8002836D04F
:104FE000A08B1430A08300E033E06068142204F149
:104FF0000801456828462F68FBF789F9A08B00F067
:10500000D5FE6880A5F806B0A5F80AB01421284698
:10501000FFF71EFC68816FF01309D4F8048009E0E3
:10502000494638467D6802F0DFF83946404601F0CF
:1050300005FE2F68002FF3D15146204600F04EF9AF
:10504000404601F098FE3188081A30804046BDE89D
:10505000F88F009802F012F80020F8E734010020E1
:105060002DE9F0474C6806468846002501276088F0
:1050700000F0B3FE217801F00F01494200EB8109F5
:10508000E08800F0AAFEC004D8F80440010C00201B
:10509000206001EB0900A18083B2E38072681FE009
:1050A0005068B0F804C061450FD222604DB1B5F828
:1050B00006C0614579D38088834276D8C5F80080E0
:1050C00001E0C6F804806AB12BE06ED0C28891423C
:1050D0006BD31DB1EA88624500D0002702680546FF
:1050E000002ADDD195B1E888A188884206D935A388
:1050F00040F293123EA146A0FCF720FEC5F80080C6
:10510000E888A18888420CD000270AE0706830B196
:105110002CA340F29B1249A13DA0FCF70FFEC6F85C
:105120000480B07FC0073DD0002F3AD0726850682D
:10513000808838B92046216808E04C68C088A1887A
:10514000884201D000272CE0216820460029F4D1B4
:10515000002F26D032B91BA34FF4DE7245A12CA03C
:10516000FCF7ECFD70684068A04206D115A340F240
:10517000BD1240A126A0FCF7E1FD206830B111A3CB
:1051800040F2BF123FA122A0FCF7D8FDE088B18B0E
:10519000884206D00BA340F2C11243A11CA0FCF729
:1051A000CDFD3846BDE8F087FFE7404601F0E3FD5E
:1051B00049490A88101A0880404601F05FFF002024
:1051C000F0E700002E2E5C4C5749505C6C776970FC
:1051D0002D312E342E315C7372635C636F72655CAB
:1051E000697076345C69705F667261672E63000077
:1051F000636865636B20667261676D656E747320AA
:10520000646F6E2774206F7665726C6170000000A9
:10521000417373657274696F6E2022257322206654
:1052200061696C6564206174206C696E6520256419
:1052300020696E2025730D0A000000006E6F20703B
:10524000726576696F757320667261676D656E74DD
:105250002C2074686973206D7573742062652074E6
:10526000686520666972737420667261676D656E29
:105270007421000073616E69747920636865636BE3
:105280000000000076616C69646174655F6461743C
:10529000616772616D3A6E6578745F7062756621E0
:1052A0003D4E554C4C00000076616C69646174653C
:1052B0005F646174616772616D3A646174616772A1
:1052C000616D20656E64213D646174616772616D1A
:1052D000206C656E000000003401002070B50446AB
:1052E0000B480D464168A14202D12168416009E0A6
:1052F00035B908A340F2391211A118A0FCF71EFD20
:10530000206828602146BDE87040052001F0ACB857
:10531000340100202E2E5C4C5749505C6C7769702C
:105320002D312E342E315C7372635C636F72655C59
:10533000697076345C69705F667261672E63000025
:1053400073616E69747920636865636B206C696E44
:105350006B6564206C6973740000000041737365B1
:105360007274696F6E2022257322206661696C65F4
:1053700064206174206C696E6520256420696E204C
:1053800025730D0A000000002DE9F04705460024B2
:105390000F46A94205D12EA3A52238A13AA0FCF7B9
:1053A000CDFC47B13868A84205D029A3A72241A166
:1053B00035A0FCF7C3FC6E684FF4803870688188B4
:1053C00000291AD100686860142205F1080170688C
:1053D000FAF79DFF01213046FFF736FA304601F01B
:1053E000CAFC0446404505D319A3B62236A126A01F
:1053F000FCF7A4FC304601F041FE6E6812E07068D4
:10540000B1460668484601F0B6FC0444444505D35D
:105410000FA3C6222CA11CA0FCF790FCA4B2484606
:1054200001F02CFE002EEAD139462846FFF756FF40
:105430002D4D2888A04205D205A3CC222BA112A075
:10544000FCF77CFC2888001B28802046BDE8F087FC
:105450002E2E5C4C5749505C6C7769702D312E3480
:105460002E315C7372635C636F72655C6970763455
:105470005C69705F667261672E63000070726576AA
:1054800020213D2069707200417373657274696FE9
:105490006E2022257322206661696C656420617428
:1054A000206C696E6520256420696E2025730D0AC5
:1054B00000000000707265762D3E6E657874203DA8
:1054C0003D2069707200000070627566735F6672DD
:1054D000656564202B20636C656E203C3D20307830
:1054E00066666666000000003401002069705F7225
:1054F000656173735F70627566636F756E74203E6D
:105500003D20636C656E00002DE9F041184F884620
:105510000646002400221146154678681AE04369C1
:10552000D6F80CC0634509D18369D6F810C063452D
:1055300004D18389B6F804C0634507D06D1C22B13D
:10554000C37F92F81FC0634500D80246036803B1C9
:10555000014618460028E2D11AB11046FFF714FFA1
:105560000444444501DA012DD4DC2046BDE8F08135
:105570003401002010B500F00BF8BDE81040002207
:1055800002494FF47A7002F07BBE000075550008A6
:1055900070B50948002544680BE0E07F20B1401E4B
:1055A000E0772546246804E0204624682946FFF772
:1055B000EBFE002CF1D170BD3401002010B5024685
:1055C0000C480AE090F82D10C90706D081681368CE
:1055D00044680B400C40A3420AD000680028F1D177
:1055E0000548006818B190F82D10C90700D10020B7
:1055F00010BD0000C4000020C800002010B5040049
:1056000006D108A340F2832211A114A0FCF796FB57
:10561000606908B101F032FD2046BDE81040FFF797
:1056200053BA00002E2E5C4C5749505C6C77697061
:105630002D312E342E315C7372635C636F72655C46
:10564000697076345C69705F667261672E63000012
:1056500070637220213D204E554C4C0041737365A0
:105660007274696F6E2022257322206661696C65F1
:1056700064206174206C696E6520256420696E2049
:1056800025730D0A0000000070B51B4886B0002588
:10569000016841F001010160016801F0010105911B
:1056A000016841F080010160016801F0800105910D
:1056B000016841F0040101600068022400F0040068
:1056C00005904FF40050012603948DE8610069466F
:1056D0000A48FBF73DFB0C20009069460848FBF7A1
:1056E00037FB0096CDE90154694606480394FBF761
:1056F0002FFB06B070BD00003038024000080240A9
:10570000001C02400000024030B50E4887B001681E
:1057100041F0020101600068012400F002000590E0
:105720000220CDE900040320CDE90240064D694680
:105730002846FBF70DFB694628460094FBF708FB5B
:1057400007B030BD303802400004024010B50621D9
:1057500080F82610164904230A7880F827204A7812
:1057600080F828208A7880F82920CA7880F82A20B2
:105770000A7980F82B20497980F82C1040F2DC510E
:1057800020F8241F322141720A4802680A48016841
:105790000A48FAF7BAFF0A48042302680948016870
:1057A0000648FAF778FF0548FBF7D0F9002010BD4E
:1057B00024E10020240000201C0000209001002093
:1057C00020000020180000202DE9F84F002004469A
:1057D00000902D48FAF7D5FF10B10020BDE8F88FF2
:1057E000FAF7EFFC2848818FD0F840900904090CA3
:1057F0002DD00322104601F009F8009038B322485A
:10580000009D40F2F45BD0F830806E8900270FE0F5
:10581000A4F2F4525242FAF77AFDD8F80C0080460E
:10582000D0F808903F1BAAF2F456002407F2F45770
:10583000686806EB040ADA4509EB04013844E7D846
:105840003246FAF764FD2D683444002DDDD10E4850
:105850000022016B05E00B6843F000430B60C96850
:10586000521C836B9342F6D800218163006800F5D7
:1058700080504269120602D5802242618160FAF7A7
:10588000A2FC0098AAE70000900100202DE9F05F3B
:1058900028484FF0000B0D46C66A5C46D6F808A0B3
:1058A000FAF78FFC2FE0306800280CDB6F894FF08F
:1058B000000818E0A4F2F4525242FAF728FDF66804
:1058C0003068002802DA6FF0070423E0D6F808A059
:1058D000A8EB040000F2F458ABEB0400A9F2F45773
:1058E00000F2F45B002407EB040940F2F45189450F
:1058F00069680AEB04004144DCD83A46FAF707FD30
:105900002D683C44BB44002DCDD159460948FBF7D6
:105910005FF900240748006800F580504169890656
:1059200003D52021416100214160FAF74CFC20465B
:10593000BDE8F09F9001002070B512490968C023AE
:105940008371A824C4710325057268224272022261
:1059500002700022427082700E0CC6700E0A067130
:1059600041718372C47205731E214173FF218173DB
:10597000C173017442748374C47405750121417547
:10598000827570BD107AFF1F1CB505F0E1FD074957
:105990000820CDE900014201002305A1074806F0D7
:1059A0009DFCBDE81C4005F00FBE00009C000020DF
:1059B000444843505F5441534B000000C15A000813
:1059C00010B50448FDF7C0FD03480068BDE810406D
:1059D00005F03CBF3CE100209C00002010B586B0E3
:1059E0000024FAF715FE10B1012006B010BD00F03A
:1059F00047F808B10220F8E71648FFF79DFF05E0D9
:105A0000641CE4B2052C01D90320EEE7FBF7AEFFDE
:105A10000028F5D10021084605F08AF900200390FE
:105A200004900D4A0D4905908DE80700094805AB23
:105A300004AA03A9183000F011FE48B10548183037
:105A400000F084FE0348183000F0D0FE0020CCE7C0
:105A50000420CAE724E10020FDAD0008F14300085E
:105A6000054810B5006805F0E1FD04480068BDE890
:105A7000104005F0DBBD0000BC000020A8000020A5
:105A800070B5FAF79EFB00F043FD02F0E9F90A4C0D
:105A9000206043F69C6002F0E3F9084D2860FAF7B5
:105AA00092FB206818B1286808B1002070BDFFF78C
:105AB000D7FF012070BD0000BC000020A80000201E
:105AC0002DE9FE434A48FDF78FFC494C0020183C65
:105AD000A07548A0FCF732F9DFF814814FA0FCF75D
