:020000040800F2
:10000000483B012089020008612E000811230008E6
:100010005F2E0008770E00089133000800000000F2
:10002000000000000000000000000000D1010008F6
:100030005510000800000000250200089531000856
:10004000A3020008A3020008A3020008A3020008FC
:10005000A3020008A3020008A3020008A3020008EC
:10006000A3020008A3020008A3020008A3020008DC
:10007000A3020008A3020008A3020008A3020008CC
:10008000A3020008A3020008A3020008A3020008BC
:10009000A3020008A3020008A3020008A3020008AC
:1000A000A3020008A3020008A3020008A30200089C
:1000B000A3020008A3020008A3020008A30200088C
:1000C000A3020008A3020008A3020008A30200087C
:1000D000A3020008A3020008A3020008A30200086C
:1000E000A3020008A3020008A3020008A30200085C
:1000F000A3020008A3020008A3020008A30200084C
:10010000A3020008A3020008A3020008A30200083B
:10011000A3020008A3020008A3020008A30200082B
:10012000A3020008A3020008A3020008A30200081B
:10013000A3020008C5100008A3020008A3020008DB
:10014000A3020008A3020008A3020008A3020008FB
:10015000A3020008A3020008A3020008A3020008EB
:10016000A3020008A3020008A3020008A3020008DB
:10017000A3020008A3020008A30200080000000078
:10018000A3020008A3020008A3020008A3020008BB
:10019000A3020008A3020008A3020008A3020008AB
:1001A000A3020008A3020008A3020008DFF80CD095
:1001B00000F0E2FD0048004791840008483B012020
:1001C00030BF72B6704762B6704780F308887047D8
:1001D0002A4B19680868B0E8F04F80F30988BFF32C
:1001E0006F8F4FF0000080F311887047000000000F
:1001F00006480068006880F3088862B661B6BFF3FD
:100200004F8FBFF36F8F00DF00BF00BF08ED00E02E
:10021000DFF80C00016841F470010160704700BF15
:1002200088ED00E0EFF30980BFF36F8F134B1A687E
:100230001EF0100F08BF20ED108A20E9F04F10606B
:1002400008B44FF0500080F31188BFF34F8FBFF315
:100250006F8F10F02DFE4FF0000080F3118808BC66
:1002600019680868B0E8F04F1EF0100F08BFB0EC36
:10027000108A80F30988BFF36F8F70472400002035
:10028000EFF30580704700000648804706480047A6
:10029000FEE7FEE7FEE7FEE7FEE7FEE7FEE7FEE736
:1002A000FEE7FEE74D320008AD0100082DE9F05FE2
:1002B0000546002092469B468846064681464024D5
:1002C0001BE0284641464746224600F0B8FB53460D
:1002D0005A46C01A914110D311461846224600F0E2
:1002E0009FFB2D1A67EB01084F4622460120002193
:1002F00000F096FB17EB00094E41201EA4F101040B
:10030000DFDC484631462A464346BDE8F09FA0F16F
:100310004101192900D82030704740EA01039B07AA
:1003200003D009E008C9121F08C0042AFAD203E06A
:1003300011F8013B00F8013B521EF9D27047D2B2CE
:1003400001E000F8012B491EFBD270470022F6E7BE
:1003500010B513460A4604461946FFF7F0FF20463B
:1003600010BD421C10F8011B0029FBD1801A7047F8
:1003700010B5002200E0521C835C8C5CA34201D1CA
:10038000002BF8D1D8B2E1B2401A10BD30B5044606
:100390000020034600E05B1C934203D2E05CCD5C8E
:1003A000401BF8D030BD30B505460020034600E0C4
:1003B0005B1C934205D2EC5CC85C201A01D1002C76
:1003C000F6D130BD2DE9FF4F087883B09946FF285C
:1003D00005D0491C2D2804D00024002008E000206E
:1003E0000BE00124F9E700EB800003EB4000491C1F
:1003F0000B78FF2BF7D104B140420023029314780D
:1004000019461D462D2C01D02B2C04D1521C2D2C0D
:1004100013D000240294AA461478FF2C0FD00A258A
:10042000A3FB057801FB05814FF0000C03FB0C11C9
:10043000521CE3194AEB0101EEE70124EAE781448B
:1004400053EA010002D019F5C87F06DA03980021AB
:10045000C0E9001107B0BDE8F08F0025AE4E2F4671
:10046000DFF8B882184600F047FCCDE90001B9F189
:10047000000002DAC9F1000400E004460023A74AA4
:100480001AEB030B42EB045A12E0E00707D02A46AE
:1004900033463846414600F0ECF9074688462A467E
:1004A00033461046194600F0E4F905460E4664103E
:1004B000002CEAD1DDE90001B9F1000F5A4653469C
:1004C00006DA00F0AAFB3A46434600F0A6FB05E038
:1004D00000F0CFF93A46434600F0CBF9029A0AB150
:1004E00081F00041039AC2E90001B3E72DE9FF4F13
:1004F0001F468DB0D7E901464FF0FF382E20454604
:100500004FF000090B90B9696D1C0E988847396A45
:10051000824688470028F6D1BAF1FF3F0AD024F47A
:10052000D064002E11DDBAF12B0F08D0BAF12D0FD7
:100530000BD102E0404611B08DE744F48064B96904
:100540006D1C0E9888478246761E6946600501D567
:100550002D2000E02B208DF8000001F1010B0DF1A2
:10056000200809E0B9696D1C0E98884782460F98EB
:1005700044F40074761E0560002E02DDBAF1300FDF
:10058000F0D00B998A453ED144F0800406E00F99E3
:10059000681CA9F1010944F400740860B9696D1C74
:1005A000761E0E98884782463028F0D02BE00B99B3
:1005B0008A4505D1200603D444F08004761E18E055
:1005C000504603F0CFF808B30DF11301761E44F442
:1005D00000748B4508D2AAF130000BF8010B2006FD
:1005E00007D5A9F1010003E0200602D409F10100BA
:1005F0008146A00502D50F99681C0860B9696D1C79
:100600000E9888478246002ED1DC53E0002E51DD43
:10061000BAF1650F02D0BAF1450F4BD1A00549D50B
:10062000B9696D1C24F44074761E0E988847824682
:10063000002E0CDD2B2804D0BAF12D0F07D144F485
:100640008074B9696D1C0E9888478246761EE00555
:1006500001D52D2100E02B2108F8011BCDF82C80BD
:1006600021E00DF12901761E44F4007488450CD276
:10067000AAF1300010F0FF0088F8000002D10B99B9
:10068000884509D908F1010806E0E00501D52448AC
:1006900001E042F20F708146B9696D1C0E988847DF
:1006A00082460F980560002E04DD504603F05AF88C
:1006B0000028D6D1F9690E988847FF208BF80000F2
:1006C00088F800000020069007904B466A4608A96B
:1006D00006A8FFF777FEA00502D46FF001002AE715
:1006E00014F0240F0AD0E00714D1DDE906123868AF
:1006F000031D3B600068C0E900120BE0DDE9060164
:1007000000F01EFB0146E00704D13868021D3A6084
:100710000068016028460EE7000014400000F03F2A
:10072000F1D8FFFF2DE9FE4F804681EA0300C00F9C
:100730000C46009021F0004123F00045B8EB020088
:10074000A94105D24046214690461C460B4602462A
:1007500023F00040104347D0270DC7F30A00C3F32E
:100760000A510290401A019040286BDAC3F313003B
:1007700040F4801B0098924620B10023D2EB030A7C
:1007800063EB0B0B01985946C0F14002504600F054
:1007900047F906460D4650465946019A00F05FF962
:1007A00010EB08006141002487EA115284EAE773E4
:1007B0001A4340D0009A62B3019A012A4FEA0752C5
:1007C00015DC001B61EB02014FF0004202EA075208
:1007D000CDE90042001C41F5801132462B4600F065
:1007E000CEF903B0BDE8F08F40462146F9E7001B83
:1007F00061EB0201001C41F5801300185B412018D9
:10080000A2F5001747EB030140EAD570B6196D4118
:1008100011E06D084FEA360645EAC0754FEA075207
:10082000001B61EB0201001C41F5801149084FEAF1
:1008300030000019514132462B4603B0BDE8F04F5D
:1008400000F08EB90098012240000023D0EB020294
:1008500063EBE073009821464FEAE074B8EB0000C8
:1008600061EB0401E9E783F000435BE781F00041BD
:1008700058E72DE9FE4F81EA030404F0004421F01B
:10088000004100944FF0000B23F0004350EA0104B4
:100890005ED052EA03045BD0C3F30A54C1F30A5595
:1008A0002C44A4F2F3340194A0FB0254C1F31301CD
:1008B00041F48011C3F3130343F4801301FB02449A
:1008C00000FB034E840A970A44EA815447EA83579F
:1008D000A4FB076802958D0A05FB07854FEA932C58
:1008E00004FB0C542705029D4FEA065847EA1637C9
:1008F000B5EB08056EEB070C870E920E47EA8117E1
:1009000042EA8312A7FB0201B6EB0B0164EB000481
:100910002B0D43EA0C335E1844EB1C50DA4651466B
:10092000E7FB0201C5F313044FEA0B3343EA145308
:100930004FEA0432019C43EA0603A4F10C0402943A
:10094000009CCDE900B400F01AF903B0BDE8F08FC7
:1009500000200146F9E770B5C1F30A5201F00045E5
:100960000024C1F3130140F2FF3341F480119A4295
:1009700001DA002070BD40F233439A42A2F23342C2
:1009800003DC524200F05BF800E090402C43F1D0D1
:10099000404270BD30B5041E71F1000404DB4FF01D
:1009A0000044404264EB0101141E73F1000405DBB6
:1009B0001C464FF00043524263EB04038B4208BFD6
:1009C000824230BD30B5041E71F1000404DB4FF0EB
:1009D0000044404264EB0101141E73F1000405DB86
:1009E0001C464FF00043524263EB0403994208BF98
:1009F000904230BD30B50B46014600202022012434
:100A000009E021FA02F59D4205D303FA02F5491BDC
:100A100004FA02F52844151EA2F10102F1DC30BDF2
:100A2000202A04DB203A00FA02F1002070479140AE
:100A3000C2F1200320FA03F3194390407047202AA3
:100A400004DB203A21FA02F00021704721FA02F378
:100A5000D040C2F120029140084319467047202A35
:100A600006DBCB17203A41FA02F043EAE07306E0D6
:100A700041FA02F3D040C2F12002914008431946E6
:100A80007047426842B1016811F8013B23B1521E20
:100A9000C0E90012184670470121C160881E7047E6
:100AA00042685AB1C368016843B983688B4205D074
:100AB000491E521CC0E90012002070474FF0FF3061
:100AC000704700000FB4002300B589B00CA9009155
:100AD0000B996FF00042CB601E4B06931E4B0793A1
:100AE0000423CDE901321D4A089202466B460020DC
:100AF000FFF7FCFC09B05DF814FB70B586B0064644
:100B00004FF0FF300091CDE90101002015460C4661
:100B100004903246694604A8FFF7D4FF02460498C1
:100B2000211825B108B1084600E020462860049845
:100B300000280DD0002A02DD0098884208D0081B4A
:100B40000094CDE901043246694604A8FFF7BAFFD4
:100B500006B070BD830A0008A10A00089D0D0008B8
:100B600010B5141E73F1000408DA401C41F10001B5
:100B700092185B411A4301D120F0010010BD2DE90C
:100B8000F04D92469B4611B1B1FA81F202E0B0FA03
:100B900080F220329046FFF743FF04460F4640EABA
:100BA0000A0041EA0B0153465A46084313D0114646
:100BB00053EA010019D0C8F140025046FFF73FFF49
:100BC00005460E46504659464246FFF729FF084360
:100BD00005D0012004E020463946BDE8F08D002014
:100BE000054346EAE0762C4337430A986305E40A56
:100BF000A0EB08000022FD0A44EA47540A3002D55F
:100C000000200146E9E7010510196941DDE90845C1
:100C100000196941BDE8F04DA2E72DE9F04D81EAE8
:100C2000030404F0004B21F0004514464FF0000A85
:100C300023F0004150EA050220D054EA01021DD001
:100C4000C5F30A570246C5F31303C1F31300C1F3FA
:100C50000A5640F4801543F48013A7EB0608101BD6
:100C6000D64608F2FD3873EB050002D308F10108FF
:100C700001E092185B41B8F1000F03DA0020014651
:100C8000BDE8F08D00204FF48011064684460EE04A
:100C9000171B73EB050705D3121B63EB0503064314
:100CA0004CEA010C49084FEA300092185B4150EAC7
:100CB0000107EDD152EA030012D082EA040083EA70
:100CC0000501084305D0101BAB4106D201220023C9
:100CD00006E000224FF0004302E06FF001025310E3
:100CE0001AEB06004CEB085110EB0A0041EB0B012C
:100CF000BDE8F04DFFF734BF0EB540F2334202922B
:100D00000022CDE900221346FFF739FF03B000BDF2
:100D1000C1F30A52C1F3130140F2FF3341F48011D1
:100D20009A4202DA00200146704740F233439A4269
:100D3000A2F2334202DC5242FFF781BEFFF770BEDF
:100D400001F0004330B421F0004150EA010206D026
:100D50000A0DA2F56072C1F31301002A02DC30BC57
:100D600000207047440F44EAC104C100E01830BCC1
:100D700000EBC25000F017B8064C074D06E0E068E3
:100D800040F0010394E8070098471034AC42F6D3D2
:100D9000FFF710FA901E0108B01E0108C0B24FF410
:100DA000F05100F037B80029A8BF7047401C490037
:100DB00008BF20F00100704710B4B0FA80FC00FAC0
:100DC0000CF050EA010404BF10BC704749B1CCF1EB
:100DD000200421FA04F411FA0CF118BF0121214377
:100DE0000843A3EB0C01CB1D4FEA00614FEA102032
:100DF00042BF002010BC704700EBC35010440029D4
:100E0000A4BF10BC7047401C490008BF20F001007F
:100E100010BC70477F2801D9002208E0064A02EB87
:100E20005002C007127800D1120902F00F0201200F
:100E300090400840704700003C1D010830B58C18F8
:100E400010F8012B12F00F0301D110F8013B120929
:100E500006D110F8012B03E010F8015B01F8015BEB
:100E60005B1EF9D101E001F8013B521EFBD1A1420A
:100E7000E6D3002030BDFEE72DE9F041214C1DA74F
:100E800040F25B7540F6B8361FA002F00FFB2A4611
:100E9000394626A002F00AFB294638460FF03CF9F5
:100EA000606000280ADB2AA002F000FB2EA002F0FE
:100EB000FDFA01F0E1FE40B133A011E03BA002F0E9
:100EC000F5FA30460FF042FEE6E744A002F0EEFAF3
:100ED000012247A1606801F055FE002805DA4FA005
:100EE00002F0E4FA0FF0FAF8CEE7BDE8F04151A0C5
:100EF00002F0DCBA34372E3130332E3138342E3113
:100F00003235000098000020312EBFAACABCC1AC07
:100F1000BDD3B6D4D3A6B5C4D4C6C6BDCCA8B7FE7F
:100F2000CEF1C6F72E2E2E0A00000000B7FECEF13D
:100F3000C6F74950B5D8D6B7A3BA2573A3ACB6CB7C
:100F4000BFDABAC5A3BA253064A3A10A0000000025
:100F5000C1ACBDD3D4C6C6BDCCA8B7FECEF1C6F7D2
:100F6000B3C9B9A6A3A10A00322E4D515454D3C31C
:100F7000BBA7C3FBD3EBC3DCD4BFD1E9D6A4B5C7B1
:100F8000C2BC2E2E2E0A00004D515454D3C3BBA711
:100F9000C3FBD3EBC3DCD4BFD1E9D6A4B5C7C2BC75
:100FA000CAA7B0DC2E2E2E0A00000000C1ACBDD3B3
:100FB000D4C6C6BDCCA8B7FECEF1C6F7CAA7B0DC72
:100FC000A3ACB5C8B4FD33C3EBD4D9B3A2CAD4D64D
:100FD000D8D0C2C1ACBDD3A3A10A0000332EBFAA92
:100FE000CABCB6A9D4C4CFFBCFA22E2E2E0A0000B5
:100FF0002F613164656C634B6831546F2F53544DCE
:1010000033322D6C696768742F757365722F6C6944
:101010006768746F6E5F6F6666000000BFCDBBA728
:10102000B6CBB6A9D4C4CFFBCFA2CAA7B0DC2E2EB4
:101030002E0A0000342EBFAACABCD1ADBBB7BDD3A7
:10104000CAD5B6A9D4C4B5C4CFFBCFA22E2E2E0AC2
:101050000000000070470000064908B509684FF419
:10106000FA52B1FBF2F14143009100BF491E0091D9
:10107000FBD208BD1000002038B50446006800F51A
:101080008050816941F480118161206800F58050B1
:10109000806900900120FFF7DFFF2068009900F5CC
:1010A0008050816138BD02680021002A08DB026897
:1010B000120405D40268D20502D50068C0F30D41C0
:1010C0000846704710B5094C02E000BF06F0A2FCCC
:1010D000A06AFFF7E8FF0028F8D12068402100F55A
:1010E000805041618902416110BD0000C0010020B3
:1010F0002DE9F041044621B14FF40060E060C000EA
:10110000A060E0690025002861D0284623684026B9
:1011100019683A4A1140D4E902273A43024342F49B
:1011200000700843186020680768012000F0AAF8E2
:10113000206807602068466020684668012000F04B
:10114000A1F820684660206885602068C560216835
:1011500088694FF64172104040F080008861206835
:101160008669012000F08EF8206886612068C561DC
:101170002068C569012000F085F82068C5612268F3
:1011800002F5805290691E4908401E490143916151
:10119000206800F580508569012000F073F8206810
:1011A00000F5805085612068174900F58050016086
:1011B000206800F580500568012000F063F8206881
:1011C00000F580500560A069012803D009E04FF4C4
:1011D00080609BE7206800F58050C1690B4A11438D
:1011E000C16160690A4982880A640278D0F8010006
:1011F00042EA00204864BDE8F08100000F8120FF32
:10120000233FDEF8040020028020C10240000100DC
:101210000080024070B580200AF0D2FC084C2060AB
:1012200080200AF0CDFC41F2D075606028460AF0BB
:10123000C7FCA06028460AF0C3FCE060002070BD37
:1012400014000020084810B5006810F0FF0F07D008
:10125000502080F31188BFF34F8FBFF36F8F01E0F1
:101260000FF0F4FA002010BD04ED00E00449096815
:1012700011F0FF0F02D080F3118870470FF022BBEE
:1012800004ED00E031B500F055FC044600F052FCDE
:101290000099001B8842F9D338BD2DE9F04390F83E
:1012A00045400025012C0DD04FF0010C80F845C0C1
:1012B000022480F8444044F2F4574FF000495E1E87
:1012C000816217E00220BDE8F08301EB4514C4F809
:1012D0000090C5EBC51808EB480802EB8808C4E984
:1012E0000178B54204D204F12008C4F80C8000E073
:1012F000E1606D1C9D42E8D3026802F58052D16026
:1013000080F844C0002180F845100846DBE72DE94D
:10131000F043914690F845200024012A0AD0012686
:1013200080F84560022280F844204FF4801C5D1E46
:10133000C1621BE00220BDE8F08301EB4412C2F859
:1013400000C0C4EBC41707EB470809EB8807976098
:10135000C7691FB9176847F440071760AC4203D24A
:1013600002F12007D76000E0D160641C9C42E4D306
:10137000026802F58052116180F84460002180F813
:1013800045100846D7E710B590F84510012913D04D
:10139000012280F84520022180F84410816A0C68FF
:1013A0000023002C27DB0C68E40518D5846B641C33
:1013B0008463012C02D002E0022010BD016341636E
:1013C0000C68C4F30D44241FC463046BA468046454
:1013D000C96840F8281F02774377002010BD0C68C9
:1013E000A40503D58263C0E90C1302E0846B641C7E
:1013F0008463C968816200F8442F4370012010BDE6
:101400002DE9FC474FF000060400B146009603D0DA
:1014100094F8440018B107E00120BDE8FC8784F887
:101420004560204600F0E0F86548016841F48041DD
:101430000160006800F4804001906248016821F476
:10144000000101600168226A11430160206800F513
:101450008050016841F00101016000F06BFB05461E
:101460004FF4FA7709E000BF00F064FB401BB8427C
:1014700003D9032004F8440F67E0206800F580508A
:101480000068C007F0D12068006920F01C0500F05A
:10149000B5FC4D494D4A0144914202D245F0080540
:1014A00016E04B494B4A0144914202D245F00C05EB
:1014B0000EE04949494A0144914209D34849084448
:1014C0004849884202D245F0040501E045F0100584
:1014D000206805614FF400420021204600F0FEF92B
:1014E0000125A8BBFF20FFF7CDFE606888B300F0A0
:1014F00021FB804641F288376A460121204600F0F0
:10150000E5F800F017FBA0EB0800B84217D80098E8
:101510004007F1D54FF480520021204600F0DEF95B
:10152000B0B900F007FB80466A460121204600F072
:10153000CDF800F0FFFAA0EB0800B8420AD901216B
:101540002046FFF7D5FD04F8445F0320667064E78A
:1015500024E018E000988006E6D56A461F21204660
:1015600000F0B4F8D0B90098C10603D54FF400617B
:10157000E16000E0E660400701D5A66018E04FF4A6
:101580008040A06014E0E068A168C00840EA510013
:1015900082B20021204600F0A1F930B1012120469D
:1015A000FFF7A6FD84F8445036E7FF20FFF76AFEF8
:1015B00049462046FFF79CFD84F8445000202CE764
:1015C000443802400438014000D3CEFEC0E1E400BC
:1015D00040F1E9FD40787D0100796CFC005A62021F
:1015E000001F0AFA80F0FA02334800B5026887B09B
:1015F000002142F000720260026802F0007205925F
:10160000026842F080620260026802F08062059225
:10161000026842F000620260026802F00062059215
:10162000026842F001020260026802F001020592C3
:10163000026842F002020260026802F002020592B1
:10164000026842F004020260026802F0040205929D
:10165000026842F040020260006800F0400005901D
:10166000862000900220CDE90101032003900B2089
:1016700004906946114800F06DF94FF40060009045
:1016800069460F4800F066F93220009069460D481F
:1016900000F060F94FF4C040009069460A4800F03D
:1016A00059F9002206213D2000F0A4FA3D2000F067
:1016B00093FA07B000BD000030380240000002403D
:1016C0000004024000080240001802402DE9F047E3
:1016D000044690F84400914682281DD0822084F868
:1016E0004400226810694FF6FF7500F01C03208A41
:1016F00005EAC02018434FF4F86303EA811101435F
:1017000021F0020040F00105156100F013FA0646D1
:1017100001274FF4803810E00220BDE8F08700BFB9
:1017200000F008FA801B404505D304F8447F0020F0
:1017300060700320F1E720680569E807F0D12068B0
:10174000406981B2C9F8001084F844700020E4E7D1
:10175000F8B5044690F84500012839D0012584F8F1
:101760004550022084F8440020680026016841F0BA
:10177000080101602068006800902846FFF76CFCB3
:101780002168009808602068016841F00401016048
:101790002068006800900120FFF75EFC2168009837
:1017A00008602046FFF768FC206800F580508169DA
:1017B00041F400518161206800F58050816941F059
:1017C0000201816184F8445084F845600020F8BD2E
:1017D0000220F8BDF0B590F845200023012A11D071
:1017E000012780F84570022280F84420002459B176
:1017F000C66A3268002A0ADA122100F8441F4470CF
:101800000120F0BD0220F0BD00F8447FF7E740F270
:10181000F455A9420BD9B1FBF5FCB1FBF5F205FB80
:101820001C1CBCF1000F00D0521C012A43D13268AD
:1018300042F040523260C26AC1F30C015160C16A89
:101840000A6842F000420A60C16AC968C16234E0B5
:10185000D6F800C02CF0405CC6F800C033B9C66AA8
:10186000D6F800C04CF0805CC6F800C0C66A75604F
:10187000561EB34214D1C66AD6F800C04CF0005CC4
:10188000C6F800C0C2F10106C6EBC61606EB460656
:10189000D0F82CC001EB8606C6F30C06CCF8046029
:1018A000C66AD6F800C04CF0004CC6F800C0C66A44
:1018B0005B1CF668C6629342CAD3016801F5805189
:1018C0004A69520705D504224A61016801F5805131
:1018D0004C6000F8447F44700020F0BD2DE9F041D9
:1018E000044690F8440042281ED0422084F8440068
:1018F000236818694FF6FF7600F01C05208A06EA77
:10190000C02028434FF4F86505EA8111014390B2E5
:1019100041F0030558612068056100F00BF90646A7
:1019200001274FF4803810E00220BDE8F08100BFAD
:1019300000F000F9801B404505D304F8447F0020E7
:1019400060700320F1E720680569E807F0D184F8AA
:101950004470EAE72DE9F84F00224FF00108032513
:101960004FF00F0E0B6808FA02F42340A3426ED129
:101970004E68012E05D0022E03D0112E01D0122E5A
:1019800012D186684FEA420C05FA0CF7BE43CF68C5
:1019900007FA0CF7374387604668A6430C79C4F30F
:1019A0000014944034434460C668570005FA07FCAD
:1019B0008C6826EA0C06BC403443C4604C68022C98
:1019C00001D0122C13D1D40800EB8404A346D4F820
:1019D000209054074FEAD46A0EFA0AF629EA06095B
:1019E0000E6906FA0AF646EA0906CBF82060046892
:1019F0000E7924EA0C0406F00306BE402643066076
:101A00004C68E4006FD53B4C266846F4804626605F
:101A1000246822F0030604F480440094364C3444D5
:101A2000A446D4F808489607360F0EFA06F7BC43CA
:101A3000324FB84201D100272EE0314FB84201D1D8
:101A4000012729E02F4FB84202D1022724E04AE0C3
:101A50002D4FB84201D103271EE02C4FB84201D1CF
:101A6000042719E02A4FB84201D1052714E0294F75
:101A7000B84201D106270FE0274FB84201D107270E
:101A80000AE0264FB84201D1082705E0244FB842AA
:101A900001D1092700E00A27B7402743CCF808788E
:101AA000204E34684F689C43FF0300D51C433460CC
:101AB0001C4E361D34684F689C43BF0300D51C4341
:101AC0003460184E083634684F689C43FF0200D5D6
:101AD0001C433460134E0C3634684F689C43BF027D
:101AE00000D51C433460521C102AFFF43BAFBDE804
:101AF000F88F0000443802400030014000000240EE
:101B00000004024000080240000C024000100240A5
:101B10000014024000180240001C02400020024055
:101B200000240240003C01400AB181617047090471
:101B3000FBE70000014880687047000004000020B7
:101B400002488168027811448160704704000020D7
:101B50000B4810B5016841F400710160016841F45F
:101B600080610160016841F480710160032000F030
:101B700061F8002000F006F800F016F8002010BD13
:101B8000003C024010B5044600F038F94FF47A7179
:101B9000B0FBF1F000F038FB00222146501E00F0AF
:101BA00029F8002010BD00000A4808B5016841F47A
:101BB00080410160006800F4804000900548001FEB
:101BC000016841F080510160006800F08050009091
:101BD00008BD000044380240002809DB00F01F0265
:101BE000012191404009800000F1E020C0F800117F
:101BF00070470000F0B40E4B1B680C46C3F3022381
:101C0000C3F10705042D00D90425191D072901D2A8
:101C1000002300E0DB1E012606FA05F1491E2140E3
:101C200099409E40761E16403143F0BC01F04EBCF8
:101C30000CED00E0064900F0070208684FF6FF03CC
:101C4000184040EA0220034A104308607047000031
:101C50000CED00E00000FA052DE9F8431748016893
:101C600041F0805101600068154F00F0805001265E
:101C700000903E64FFF75EFF05464FF47A78114C02
:101C800005E000BFFFF756FF401B40450DD86068D8
:101C9000C003F7D57E64FFF74DFF0546464607E0D3
:101CA000FFF748FF401BB04202D90320BDE8F8838C
:101CB00060688003F4D50020F8E700004038024057
:101CC00000000E42007000402DE9F0470E4605006E
:101CD00065D0DFF81481D8F80000F7B200F00F00EB
:101CE000B04207D288F80070D8F8000000F00F006A
:101CF000B04254D128683D4C810712D5400703D526
:101D0000206840F4E05020602878000703D5206860
:101D100040F4604020602068A96820F0F00008438B
:101D200020602878C0072DD030496868083901281C
:101D300012D0022813D0032811D00968890700297E
:101D40002DDA216821F0030101432160FFF7F2FE43
:101D5000814641F2883A0EE009688903EFE7096895
:101D60008901ECE7FFF7E6FEA0EB0901514502D936
:101D70000320BDE8F0872068696800F00C00B0EB34
:101D8000810FEFD1D8F80010404601F00F01B142A9
:101D900007D90770006800F00F00B04201D00120A1
:101DA000E7E72878400705D52068E96820F4E05087
:101DB000084320602878000706D52068296920F4A8
:101DC000604040EAC100206000F03EF82168084A07
:101DD000C1F30311515CC840064908600648006819
:101DE000FFF7D0FE0020C4E7003C02400838024064
:101DF000F01B0108100000200800002001480068C6
:101E00007047000010000020044805490068096878
:101E1000044AC1F38221515CC84070471000002081
:101E200008380240001C0108044805490068096898
:101E3000044AC1F34231515CC84070471000002091
:101E400008380240001C0108154810B5006810F061
:101E50000C02144813D01449042A0FD0082A0ED1BA
:101E60000F4C241F2268236802F03F025B0207D553
:101E70002068C0F38810A0FB010106E0084610BDF1
:101E80002168C1F38811A1FB00010023FEF70EFABF
:101E90002168C1F30141491C4900B0FBF1F010BDBC
:101EA000083802400024F40040787D012DE9F84F05
:101EB00004006ED02078DFF83C93C007A9F1040538
:101EC0004AD009F104000168C1F38101012908D059
:101ED0000068C0F3810002280AD1D9F8000040024E
:101EE00006D52868800337D560680028E1D033E044
:101EF0006068B0F5803F10D0B0F5A02F286810D0F2
:101F000020F480302860286820F4802028606068F1
:101F1000A8B1FFF70FFE06460DE0286840F48030B8
:101F2000F4E740F480202860F7E700BFFFF702FEE7
:101F3000801B642873D828688003F7D50CE0FFF76E
:101F4000F9FD064605E000BFFFF7F4FD801B64289D
:101F5000F0D828688003F7D42078DFF89C828007C7
:101F60004FF0000A3ED5A348001D016811F00C0F88
:101F700008D00068C0F3810002280BD1D9F8000016
:101F8000400207D42868800716D5E068012800D1F0
:101F900012E02BE1E068B8B10120C8F80000FFF7BB
:101FA000C9FD064605E000BFFFF7C4FD801B0228FF
:101FB000C0D828688007F7D52868216920F0F80084
:101FC00040EAC10028600DE0C8F800A0FFF7B2FDAC
:101FD000064604E0FFF7AEFD801B02281FD82868E4
:101FE0008007F7D42078000722D5824E83486169A4
:101FF000703671B101210160FFF79CFD074604E0D6
:10200000FFF798FDC01B022809D830688007F7D574
:102010000EE0C0F800A0FFF78DFD074605E082E066
:10202000FFF788FDC01B02287DD830688007F7D4F1
:102030002078400768D5DFF8BCB100270BF13C0BD6
:10204000DBF80000C0000BD4DBF8001041F0805139
:10205000CBF80010DBF80000012700F08050009062
:10206000674E3068C00510D4306840F4807030602E
:10207000FFF760FD009005E0FFF75CFD0099401A56
:10208000022850D83068C005F6D55A4EA0686C3684
:1020900001280FD00528306810D020F001003060F2
:1020A000306820F004003060A068B8B1FFF742FD4E
:1020B00000900FE0306840F00100F4E740F00400C9
:1020C0003060F7E7FFF736FD0099411A41F288309A
:1020D000814266D830688007F4D50EE0FFF72AFD0C
:1020E000009007E0FFF726FD0099411A41F2883081
:1020F000814256D830688007F4D42FB1DBF8001045
:1021000021F08051CBF80010A069C8B33949091DEE
:102110000968C1F3810102294AD00228504607D03C
:10212000C8F8600000E03CE0FFF704FD04463BE037
:102130004746C8F86000FFF7FDFC064605E000BF13
:10214000FFF7F8FC801B02282BD828688001F7D401
:10215000D4E907010843A16A2A4A490802EB014170
:10216000626A41EA8211084394F82C1040EA016146
:10217000C9F8001001203866FFF7DCFC044606E0D1
:1021800036E000BFFFF7D6FC001B022809D82868FC
:102190008001F7D52CE000BFFFF7CCFC001B022824
:1021A00002D90320BDE8F88F28688001F4D41FE02D
:1021B0000128F7D0D9F80000E26900F480019142CB
:1021C00014D1226A00F03F0191420FD147F6C0714D
:1021D000626A0140914209D1A26A00F44031914201
:1021E00004D1E16A00F07060884201D00120D9E793
:1021F0000020D7E70438024000004742800E4742E3
:10220000007000400000FFFF10B5401EB0F1807F5D
:1022100001D3012010BD4FF0E02460610F21601751
:1022200001F054F90020A06107202061002010BDBA
:1022300070B5040004D094F83900002510B106E010
:10224000012070BD84F83850204600F023F8242087
:1022500084F839002068C16821F40051C16020462B
:1022600001F002F82068016921F4904101612068C1
:10227000416921F02A0141612068C16841F400519F
:10228000C160E563202084F8390084F83A0000201A
:1022900070BD000010B500681A4986B088422FD181
:1022A0001948016841F001010160006800F0010077
:1022B000059015481430016841F010010160006874
:1022C000012100F0100005904FF4007000900220F2
:1022D000CDE90101039007200C4C0490694620468B
:1022E000FFF738FB2015009069462046FFF732FBC8
:1022F0002520FFF771FC002202212520FFF77AFC40
:1023000006B010BD0010014030380240000002400D
:10231000FEE7000070B50D4C0025C4F890520C4843
:10232000016821F440610160016841F4806101604D
:10233000C4F89452022004F5247401F0DEFE01205A
:102340002060022001F0D9FE256070BD008043426C
:10235000001C02400E4810B5016886B041F08001B3
:1023600001600068012400F0800005903020CDE974
:1023700000040220CDE9024069460648FFF7EAFA68
:102380000548C0F89442C0F8904206B010BD000065
:1023900030380240001C02400080434270B50D4CB2
:1023A0000025C4F890520C48016821F44061016096
:1023B000016841F4806101600126C4F89462022042
:1023C00004F5247401F099FE2660022001F095FEC8
:1023D000256070BD00804342001C02402DE9F0479B
:1023E000814616480024016821F4406101600168BB
:1023F0000160134E254627464FF00108C6F890723B
:10240000022001F07AFEC6F890826006040ED6F82B
:10241000140208B1641CE4B2012001F06EFE6D1CD0
:10242000EDB2082DEAD3B9F1000F04D0FFF772FF27
:102430002046BDE8F087FFF7B1FFF9E7001C024036
:10244000008043422DE9F04106461448016821F41A
:1024500040610160016841F480610160104C002717
:10246000C4F890723D464FF00108F009C4F8940298
:102470007006060E022001F040FEC4F89082022091
:1024800001F03BFEC4F89072022001F036FE6D1C94
:10249000EDB2082DE9D3BDE8F0810000001C024038
:1024A0000080434270B50D48016821F4406101602D
:1024B000016841F480610160094C0120C4F8940274
:1024C000C4F89002042004F5247401F016FE0025DF
:1024D0006560042001F011FE256070BD001C024003
:1024E000008043420E4810B5016821F4406101604C
:1024F000016841F4806101600A4C0020C4F8900238
:10250000C4F89402042004F5247401F0F6FD0120BF
:1025100020606060BDE81040042001F0EEBD0000C6
:10252000001C02400080434270B51248002401683C
:1025300021F440610160016801600F4D0126C5F87A
:102540009462304601F0D9FDC5F89062012001F097
:10255000D4FD07E0641CE4B2FA2C03D9FFF7C2FFF4
:10256000012070BDD5F814020028F3D1C5F89002FF
:1025700070BD0000001C0240008043421CB5FDF706
:1025800020FE0121072000F0ABFC642001F0A9FD32
:102590000021072000F0A4FC642001F0A2FDFDF75B
:1025A00012FE154801788DF8001041788DF8011061
:1025B00081788DF80210C1788DF8031001798DF8BB
:1025C000041040798DF805000D480C490160012187
:1025D0008A03C0E90112CA02C26000220282C0F866
:1025E00014D0C0E90612C9050162FEF709FF0028F0
:1025F00000D001201CBD0000883301200080024073
:10260000C00100202DE9FC41074615460E46002476
:102610006846009309F080FC60F30704C4F3C0002F
:1026200030702009387001A9009800F0DDF8009999
:10263000019A014400910A44511A022904DB6846B8
:1026400009F070FC28800120BDE8FC812DE9FC41E7
:10265000074600240E4625466846009209F05CFCB9
:102660000146204661F307000009022819D101A99B
:10267000009800F0B9F800990546084401990090C7
:102680000144081A02280CDB684609F045FC60F397
:10269000070404F001003870684609F03DFC307012
:1026A00001252846BDE8FC812DE9FC5F8046DDE977
:1026B0000EA00024CDE90004994617460E46254693
:1026C000DDF834B0684609F027FC60F30704200900
:1026D00003282CD1C4F3C00188F80010C4F34100D2
:1026E000306004F00100387001A9009800F07CF817
:1026F000009905460844019900904418224669460D
:102700000C9809F018FC90B10098201A0FD430688A
:10271000002804DD684609F005FCA9F800000098CF
:10272000211ACAF8001000990125CBF8001028469C
:10273000BDE8FC9F2DE9FC4781460A9800240090E3
:102740009A46164688462546684609F0E5FB014646
:10275000204661F307000009092826D101A9009845
:1027600000F042F800990546084401990090471886
:10277000381A022819DB684609F0D4FBA9F80000D2
:1027800034600EE03168414502DD4FF0FF350CE06A
:10279000684609F0C1FB31688B00491C31604AF87A
:1027A00003000098B842EDD301252846BDE8FC8718
:1027B000F8B5012500240E4607460C60641C042C65
:1027C0000FDC01216846B84701280AD19DF80000B6
:1027D000316800F07F0202FB0511ED013160000657
:1027E000ECD42046F8BD0000024A10600248FFF712
:1027F000DFBF00006C010020253F000810B5034634
:102800000020CA1701EB526424F07F02891ACAB271
:10281000E111002902DD00BF42F080021A5400F1EC
:102820000100EEDC10BD0000401C802801DA401CD5
:102830007047B0F5804F01DA801C70470349884229
:1028400001DAC01C7047001D70470000FFFF1F0029
:102850002DE9F84300248846164605464FF0FF3719
:1028600001210094B047012816D169463046FFF790
:102870009FFF681C0099FFF7C1FF0099401C0B18CF
:10288000434509DC21B12844B0470099884203D16F
:10289000287860F3070427093846BDE8F883F8B5BF
:1028A0000024069E05460090042901DAA01EF8BD0A
:1028B00062F3071463F3C304062A24F0060000D170
:1028C000801CC1B268460EF045FB02210098FFF75C
:1028D00095FF009908440090314668460EF040FB91
:1028E0000098401BF8BD00002DE9F8430746009012
:1028F000884614460025104600F082F88146FFF70E
:1029000093FF404502DDA81EBDE8F8832E46314600
:1029100066F30701684610310EF01CFB494600982B
:10292000FFF76CFF009908440090207A04281DD01E
:102930002FA168460EF0FAFA032168460EF00AFB52
:10294000A07E66F3070560F34105E07E08B145F01F
:102950000405680707D594F83D0060F3C40594F8B2
:102960003C0060F34515206C40B905E022A16846A3
:102970000EF0DCFA0421E0E7A06C08B145F0800518
:10298000E06C08B9606D08B145F04005294668461D
:102990000EF0E0FA218B68460EF0E2FA04F10C0129
:1029A00068460EC90EF0EBFAE07E68B12434684642
:1029B00094E80E00243C0EF0E2FA3034684694E8C5
:1029C0000E00303C0EF0DBFA280605D504F140017C
:1029D00068460EC90EF0D3FA680605D54C34684631
:1029E00094E80E000EF0CBFA0098C01B8CE70000B4
:1029F0004D514973647000004D5154540000000063
:102A000070B50446007A0025032802D0042802D0BD
:102A100002E00C2500E00A2504F10C0007C800F0D4
:102A200017FA0544E07EAD1C78B1243494E8070021
:102A3000243C00F00DFA3034064694E80700303CA0
:102A400000F006FA304405442D1D206C08B9A16C35
:102A500029B1D4E9111200F0FBF90544AD1CE06C7A
:102A600008B9616D29B1D4E9141200F0F1F90544F7
:102A7000AD1C284670BD0C2200F06BB808B50023D1
:102A800000920422FFF70BFF08BD08B50023009257
:102A90000722FFF704FF08BD2DE9FF4F83B006466C
:102AA00010A8894690E880090024924625464146B0
:102AB0003846009600F036F80190FFF7B5FE48451D
:102AC00003DDA01E07B0BDE8F08F64F30704803477
:102AD0006AF3C30424F00600801CC1B268460EF0FD
:102AE00039FADDE90001FFF789FE009908440090FA
:102AF000684606990EF034FA0FE000BF05EB450179
:102B000008EB810090E80E0068460EF038FA1BF8DA
:102B1000251068460EF01EFA6D1CBD42EEDB0098D3
:102B2000801BCFE72DE9F04102250F460646002421
:102B30000AE000BF04EB440007EB800007C800F088
:102B400087F90544641CED1CB442F3DB2846BDE85C
:102B5000F08138B5002304460090022901DA981E5E
:102B600038BD194663F3070162F3071168460EF09A
:102B7000F1F900210098FFF741FE00990844009008
:102B8000001B38BD2DE9F0410446AAB000201E907C
:102B90000223CDE922301F90ADF8700025902490DB
:102BA000E01704EB507324A800EBE30604F00705DC
:102BB0003378012000FA05F52B43337026921DAAC5
:102BC000CDE900021D91DFF8A88026A90291D8F86E
:102BD000081064278BB2491CC8F808100022394637
:102BE00003A8FFF759FF014603A80DF0C1FA00281A
:102BF00004DA4FF0FF302AB0BDE8F08122A80023AC
:102C000000901A4624A9601C05F042F878B130788B
:102C1000284202D16FF00200EDE7164A394603A8B8
:102C2000FFF716FE092805D06FF00300E3E76FF009
:102C30000100E0E703A8CDE9000720AB25AA0121A8
:102C40001CA8FFF777FD012802D06FF00400D2E73F
:102C50002098802806D0D8F80800BDF87010401ED3
:102C6000814202D06FF00500C5E70020C3E70000F5
:102C7000980000200501010810B5CCB05822214968
:102C80006846FDF74AFB20A003904FF49670ADF81C
:102C9000180027A010902CA0139004208DF8080095
:102CA0000120C8248DF81A006A46214616A8FFF7AD
:102CB0001BFE014616A80DF05BFA2E4A214616A807
:102CC000FFF7C6FD022805D02BA000F0EFFB022085
:102CD0004CB010BD234616AA49A94AA8FFF7B6FC76
:102CE000012802D19DF8240130B19DF8241127A0BC
:102CF00000F0DCFB0120EBE72BA000F0D7FB00206D
:102D0000E6E70000081C010830303030317C736584
:102D1000637572656D6F64653D332C7369676E6DA5
:102D20006574686F643D686D6163736861317C00D0
:102D300053544D33322D6C69676874266131646574
:102D40006C634B6831546F0034323045354346373D
:102D500046424435443237354433314144424137A9
:102D6000334546454532443144433237324331429C
:102D700000000000050101084D515454C1ACBDD301
:102D8000CEDECFECD3A6A3A10A000000CEDEB7A80A
:102D9000C1ACBDD3A3ACB4EDCEF3B4FAC2EBCAC799
:102DA0003A202564A3A10A00D3C3BBA7C3FBD3EB7E
:102DB000C3DCD4BFD1E9D6A4B3C9B9A6A3AC4D51E5
:102DC0005454C1ACBDD3B3C9B9A6A3A10A00000035
:102DD000F0B5B7B00446052034900020359033900C
:102DE000E01704EB507133A800EBE10704F0070192
:102DF000012538788D402843C8263870314601A80F
:102E0000FFF739FE014601A80DF0B2F934A80023FE
:102E100000901A4633A9601C04F03AFF80B138785C
:102E2000284203D16FF0010037B0F0BD074A3146A8
:102E300001A8FFF70DFD0D2805D06FF00200F3E7A4
:102E40004FF0FF30F0E70020EEE700000501010839
:102E500010B510B1FDF785FA0146084610BDFEE732
:102E6000FEE70000144810B5026886B0002142F069
:102E700002020260006800F0020005904FF48050EA
:102E8000CDE90001012002900320039069460B4820
:102E9000FEF760FDFFF75EFAFFF704FB4020FFF747
:102EA000D1FAFFF741FB0446FFF71CFBFF2000F0BF
:102EB00027F806B0204610BD30380240000402401A
:102EC00010B5FFF7EFFA4120FFF7BCFAFFF72CFB34
:102ED0000020FFF783FA0446FFF704FB204610BDED
:102EE00070B50C460546FFF7EBFF0122AA402CB156
:102EF0000243D0B2BDE8704000F002B89043F9E759
:102F000010B50446FFF7CEFA4020FFF79BFAFFF713
:102F10000BFB2046FFF796FAFFF706FBFFF7E2FAF6
:102F2000BDE810400A2001F0DCB8000010B50446EE
:102F300007A000F0BBFA204601F050F8044609A1B2
:102F400001F03EF82046BDE8104008A101F038B875
:102F5000BFAACABCBDE2CEF64A534F4ECAFDBEDD83
:102F60000000000073776974636800007374617413
:102F7000650000002DE9FF4116460F4613B30021FE
:102F8000CDE902310191C11700EB517201A901EBAA
:102F9000E20500F007020124944029780023214330
:102FA000297002A900911A4601A9401C04F070FE84
:102FB0004FF0FF3110B12878204203D1084604B009
:102FC000BDE8F081024A31463846FFF741FCF6E79A
:102FD0000501010810B502E009A000F067FA04F04D
:102FE00083FB0028F8D10BA000F060FA00F0A8F8ED
:102FF0000D4800680DF0E0FDBDE810400DF006BF83
:103000004C57495020696E6974206661696C0D0ADD
:10301000000000004C57495020696E6974205375B8
:1030200063636573730D0A0000000020ADF5027D37
:103030004FF4FA707E9000200A21DFF8BCB02F4CCC
:10304000CDE97F01814681AE0DF5FE7A012500BFF5
:10305000FDF712FF0EF07CFB8046CDF8049260680D
:103060000127C11700EB517106EBE10100F00703E6
:103070000A7805FA03F31A430A7000231A4681A955
:10308000401CCDF800A004F003FE6068C11700EBFF
:10309000517106EBE10100F00702097805FA02F32D
:1030A00019420FD0322301A97E9AFFF763FF411C1A
:1030B00008D0C0B201A97E9A05F0F4FD00270EF0F9
:1030C00047FB80460EF044FBA0EB08015945C4D9EC
:1030D0000EF03EFB8046002FBFD06068FFF778FE01
:1030E000002805DA06A000F0E1F90CF0F7FFAFE7E1
:1030F0000AA000F0DBF9B0E7F049020098000020D8
:10310000B7A2CBCDB1A3B3D6BBEED0D470696E67F6
:10311000CAA7B0DC2E2E2E2E0A000000B7A2CBCDFF
:10312000B1A3B3D6BBEED0D470696E67D7F7CEAA81
:10313000D0C4CCF8B3C9B9A62E2E2E2E0A0000009A
:103140001CB50DF083FB0A4908200202C968002360
:10315000CDE9000107A10B480EF0C0FA04460DF0BE
:10316000B1FB2146BDE81C4007A000F09FB900005C
:1031700098000020534B54204D5154542052454345
:10318000560000002D3000086D7174742065727255
:103190003D25640010B50EF0CDFA012801D00DF0E8
:1031A00091FFBDE81040FEF7CBBC000030B593B0F6
:1031B00030216846FDF7CAF814210CA8FDF7C6F8BF
:1031C00020480025016841F080510160006800F04E
:1031D000805011901C48016841F440410160006832
:1031E000022400F44040119001200090000401905E
:1031F0008001CDE90640192008904FF4B470CDE964
:10320000090404200B906846FEF750FE08B172B620
:10321000FEE7FEF721FD08B172B6FEE70CA90F200C
:1032200081E831004FF4A0500F904FF4805010907F
:1032300005210CA8FEF748FD002801D072B6FEE774
:1032400013B030BD403802400070004005480168AE
:1032500041F47001016003494FF00060803908605B
:103260007047000088ED00E02DE9F0410446006859
:103270000169E26821F44051114301612169A068AC
:10328000E26908436169114308432168CA6849F249
:103290000C639A430243CA6020684169A26921F421
:1032A000407111434161E069192764253226B0F568
:1032B000004F354A354920684FF0000806D0884253
:1032C00001D0904236D1FEF7AFFD35E0884201D003
:1032D000904202D1FEF7A8FD01E0FEF795FD61687E
:1032E0004A18A0FB070148EB0803FCF7DFFF014683
:1032F000B0FBF5F00201B1FBF5F06FF01803584395
:1033000001EB800006EBC000B0FBF5F000F0F80028
:1033100002EB4002B1FBF5F0584301EB800006EBF5
:10332000C000B0FBF5F000F0070021681044886091
:10333000BDE8F081FEF768FD61688B0F8A00A0FB95
:103340000701FCF7B3FF0146B0FBF5F06FF0180280
:10335000504301EB800006EB0010B0FBF5F000F0ED
:10336000F002B1FBF5F002EB0012B1FBF5F06FF0EB
:103370001803584301EB800006EB0010B0FBF5F09A
:1033800000F00F00D1E700000014014000100140E0
:10339000FEE7000010B5044615A000F087F8D4F849
:1033A000F80102281DD9207828B1012805D002286B
:1033B0001BD017A002E01CA000E021A000F076F8CE
:1033C00004F5FE7124A000F071F8611C27A000F044
:1033D0006DF82BA0D4F8F81100F068F8601CFFF726
:1033E000A5FD002084F8300210BD2AA0E6E7000009
:1033F0002A2A2A2A2ACAD5B5BDB6A9D4C4B5C4CFAB
:10340000FBCFA2A3A12A2A2A2A2A2A0A0000000006
:103410004D5154543E3EB4EDCEF3B5C4CFFBCFA2D4
:10342000D6CAC1BF0A0000004D5154543E3ECFFBE6
:10343000CFA2D6CAC1BFA3BA516F53300A00000051
:103440004D5154543E3ECFFBCFA2D6CAC1BFA3BA02
:10345000516F53310A0000004D5154543E3ECFFB92
:10346000CFA2D6F7CCE2A3BA25730A004D5154542B
:103470003E3ECFFBCFA2C0E0C8DDA3BA25730A0051
:103480004D5154543E3ECFFBCFA2B3A4B6C8A3BA0D
:1034900025640A004D5154543E3ECFFBCFA2D6CAFC
:1034A000C1BFA3BA516F53320A0000000FB4054BDD
:1034B00010B503A9044A029800F05CF910BC5DF84D
:1034C00014FB0000DD5E0008740100200907090EEE
:1034D000002804DB00F1E02080F80014704700F0C1
:1034E0000F0000F1E02080F8141D704730B528B1BE
:1034F000144C031F002021680A4605E0084630BD31
:103500009A4203D810465268002AF9D1002800D008
:1035100041680BD00468A3EB0005A54204D11B68E9
:103520001C440346046002E0436000E023603AB1BB
:103530001C68D51AA54203D115682C441C6052683A
:103540005A6030BD7801002000B583B09FED060BB6
:103550000A4601468DED000B6846FDF7CEFA9DED5B
:10356000000B03B000BD00000000000000000000E0
:103570002DE9F04782460F4C10480D4E0E4F001BB0
:103580004FF0000820F007054FF001090022114616
:10359000504602F0E7FE002802D1306810B100204A
:1035A000BDE8F0873C60C4E90058C6F80090EDE73C
:1035B0007C0100204C350120780100204837012093
:1035C00002E008C8121F08C1002AFAD170477047EC
:1035D000002001E001C1121F002AFBD1704700004A
:1035E0002DE9FF5F82B00021DDE90430020DDDF836
:1035F00040B0034318D044F61050A2F2FF324243C9
:103600001514119801281FD0A5EB0B00401C5FEA90
:10361000000A4FF000064E4FDFF83891B046504692
:1036200015D5CAF1000413E0119801244AA301281A
:1036300001D16FEA0B010298119AC0E90031C0E98B
:10364000024206B0BDE8F09FCBF10000DFE7044680
:103650000021404A491842EB0450CDE9001012E025
:10366000E00707D032463B4640464946FDF701F9A0
:103670008046894632463B4610461946FDF7F9F822
:1036800006460F466410002CEAD1DDE90401DDE9AD
:103690000023BAF1000F06DAFDF7EBF842464B467D
:1036A000FDF7E7F805E0FDF7B8FA42464B46FDF7AF
:1036B000B4FA04460E460022284BFDF783F903D8DE
:1036C0004FF0FF30014607E00022254B20463146EF
:1036D000FDF728F8FDF71CFB102409E0002C0ADB9D
:1036E0000A220023FCF7E2FD039B30321A55641EC8
:1036F00050EA0102F2D1641C039AC4F1110314448C
:10370000119A012A03D0012208430DD10AE008438F
:1037100004D000204FF0110B119072E7A3EB0B05C2
:103720006D1E0DE05B4504DD4FF0000205F1010563
:1037300004E003DA4FF00002A5F10105002AECD005
:1037400002981199C0E90231C0E9004579E700000B
:10375000000014400000F03F300000000000F04383
:103760000000E03F30380A2801D2012070470020D5
:10377000704700002DE9FF4F95B09B4689460646ED
:1037800000250FE2252877D100242746F84A012199
:10379000059400E0044316F8013F203B01FA03F0D2
:1037A0001042F7D130782A2811D06FF02F033078EB
:1037B000A0F13002092A16D8059A44F0020402EB5F
:1037C000820203EB42021044761C0590EFE759F8A1
:1037D000042B0592002A03DA504244F40054059069
:1037E00044F00204761C30782E2816D116F8010F0A
:1037F00044F004042A280DD06FF02F023078A0F195
:103800003003092B09D807EB870302EB4303C718E2
:10381000761CF3E759F8047B761C30786C280FD0BF
:1038200006DC4C2817D068280DD06A2814D104E093
:10383000742810D07A280FD10DE044F400140AE067
:1038400044F4801401E044F440147278824202D1BE
:1038500004F58014761C761C307866280BD013DCB7
:10386000582877D009DC002875D04528F6D046289E
:10387000F4D047281AD19DE118E0632835D0642898
:1038800079D0652812D195E1702873D008DC6728BB
:10389000F1D069286FD06E280DD06F2806D1B5E021
:1038A00073282CD0752875D0782874D05A4617996B
:1038B00090476D1C75E1C4F30250022809D003281B
:1038C0000DD0D9F8001004280DD00D6009F10409BD
:1038D00067E1D9F80010EA17C1E90052F6E7D9F814
:1038E00000100D80F2E70D70F0E719F8041B8DF859
:1038F000001000208DF80100EA46012003E059F88D
:1039000004AB4FF0FF3061074FF0000102D40DE02F
:1039100008F101018846B9420FDA8045F8DB1AF850
:1039200008100029F4D108E008F10101884681421D
:10393000FADB1AF808100029F6D105985B46A0EBCF
:10394000080721463846179A00F094FA284400EBFD
:10395000080507E04DE029E10DE01AF8010B5A4691
:1039600017999047B8F10108F7D25B4621463846CF
:10397000179A13E142E00A220092C4F302524FF078
:10398000000A022A08D059F804CB032A4FEAEC7146
:103990000AD00DE029E02AE009F1070121F0070231
:1039A000F2E802C1914609E00FFA8CFC4FEAEC7193
:1039B000042A03D14FFA8CFC4FEAEC71002907DA94
:1039C0000A460021DCF1000C61EB02012D2202E02D
:1039D000220504D52B228DF80420012203E0E20702
:1039E00001D02022F7E7904659E00A2102E0102298
:1039F0000DE010214FF0000A00910BE010224FF073
:103A0000000A44F004040827009203E008224FF063
:103A1000000A0092C4F30252022A05D059F804CBDE
:103A20000021032A08D009E009F1070121F007026B
:103A3000F2E802C1914605E01FFA8CFC042A01D18C
:103A40000CF0FF0C4FF00008220728D5702806D094
:103A5000009B83F0100353EA0A0305D00EE04022D6
:103A60008DF80420012208E05CEA010206D0302231
:103A70008DF804208DF8050002229046009B83F00B
:103A8000080353EA0A030AD15CEA010201D1620782
:103A900005D530228DF804204FF001087F1E5828EC
:103AA00004D034A003900EA802900DE036A0F9E7F0
:103AB00053466046009AFCF7F9FB84460398825C03
:103AC0000298401E029002705CEA0100F0D1029858
:103AD00006A9081A00F1200A600702D524F48034F0
:103AE00000E00127574502DDA7EB0A0000E00020B7
:103AF00000EB0A01009005984144401A0590E0034C
:103B000006D45B462146179A059800F0B3F90544A0
:103B1000002706E001A85A46C05D179990476D1C22
:103B20007F1C4745F6DBE0030CD55B462146179A20
:103B3000059800F09FF9054404E030205A46179993
:103B400090476D1C0099481E00900029F5DC08E0A4
:103B5000029802995A460078491C02911799904799
:103B60006D1CBAF10001AAF1010AF1DC65E1000067
:103B70000928010030313233343536373839616243
:103B80006364656600000000303132333435363707
:103B900038394142434445460000000000F058F9DE
:103BA0000544761C307800287FF4ECAD19B0284627
:103BB000BDE8F08F620700D4062709F1070222F062
:103BC000070CFCE80223E14603F000485FEA080C1A
:103BD00002D00FF2702C0DE05FEA045C02D50FF208
:103BE000682C07E05FEAC47C02D00FF2602C01E091
:103BF000AFF2700C4FF0FF3823F00043CDF850C007
:103C000065280CD006DC452809D046281DD0472859
:103C10003DD13DE0662818D067287ED138E00021EC
:103C2000112F01DB112000E0781CCDE9000106A96D
:103C30000EA8FFF7D5FCDDE90F010E9A03910021D4
:103C4000009207F1010A04914DE04FF00040009707
:103C5000CDE9011006A90EA8FFF7C2FCDDE90F02AD
:103C600003920E9B11990022DDF80CA000930492A0
:103C700011B9791C00EB010AB7EB0A0004D4C0F1BA
:103C8000FF3007F1010A0490AAEB0700019044E01D
:103C9000012F00DA01270021112F01DD112000E0A2
:103CA0003846CDE9000106A90EA8FFF799FCDDE929
:103CB0000F010E9A0391002104910092BA46210748
:103CC0000CD40399514500DA8A46BAF1010F05DD9B
:103CD000009AAAF10101515C302908D0B84202DAF9
:103CE00010F1040F06DA0121CDE9011015E0AAF167
:103CF0000101E9E7002805DC049901440491AAEBDD
:103D0000000102E0411C514500DD8A460499401A39
:103D1000401C01904FF000400290200704D401980D
:103D2000504501DBCDF8048000208DF84F0002984B
:103D30000DF14F07B0F1004F25D02B200E900298C7
:103D40004FF0020800280CDA404202902D200E901D
:103D500007E00A210298FCF74DFE3031029007F887
:103D6000011DB8F10001A8F10108F2DC0298002859
:103D7000EFD1791E0E980870307800F0200040F0E6
:103D8000450007F8020D12A8C01B00F1070814989F
:103D9000007800B1012000EB0A01019801EBE0710D
:103DA00005984144401A401E0590E00306D45B4646
:103DB0002146179A059800F05DF80544149800789C
:103DC00018B15A46179990476D1CE00324D55B46FD
:103DD0002146179A059800F04DF805441CE0049818
:103DE000002807DBDDE90301884203DD0098405C21
:103DF000179901E0179930205A469047049805F129
:103E00000105401C04900198401E019004D12E2011
:103E10005A46179990476D1CBAF10001AAF1010AA0
:103E2000DDDC05E017F8010B5A46179990476D1C29
:103E3000B8F10001A8F10108F4DC5B462146179AAD
:103E40000598ABE62D0000002B00000020000000CC
:103E50002DE9F041044600251E461746880404D487
:103E600005E039462020B0476D1C641EF9D5284670
:103E7000BDE8F0812DE9F041044600251E4690463C
:103E8000C80301D5302700E02027880404D505E0C9
:103E900041463846B0476D1C641EF9D52846BDE83A
:103EA000F08100002DE9F041884606460024154DBA
:103EB000FDF7C8F904EB440155F8311041B1FDF7A5
:103EC000D5F9641C042CF3DB4FF0FF30BDE8F08122
:103ED00004EB440745F83760FDF7C8F905EBC70167
:103EE00000204860088148813278102A02D15FEAB8
:103EF000080200D001228A81C881086148612046F9
:103F0000E4E70000E434012010B501F081FDBDE8D4
:103F100010400022024941F2883008F0FDBB000049
:103F2000093F000830B5044606480023026803E054
:103F300012F8015B25705B1C8B42F9DB02600846BE
:103F400030BD00006C01002010B530B1036823B112
:103F5000D0E90121914201D204E0002010BD491CAA
:103F6000816020B1914202D25C5C202CF7D9914251
:103F7000F4D1491E816010BD70B504460F4E19E0A2
:103F8000A0892568C0050AD4A06820B1FFF7F4FF16
:103F9000A089C00503D4206908B171688847A08949
:103FA000800503D4206A08B171688847716820468B
:103FB00088472C46002CE3D170BD0000B0000020E3
:103FC000002201F095BF10B5016828208847040041
:103FD00002D02821FCF7BAF9204610BD0022114674
:103FE00000F06EB82DE9F04788B00F4604469A46B7
:103FF00016461C216846FCF7A9F92F480025002C1D
:104000000560456055D08146E7B3CDE9004702958C
:10401000D9E90212D9F810000491CDE9052009F17F
:104020000800FFF7D0FF5FEA00082BD000986F462A
:1040300008B1029808B100270BE00198042808D9BC
:1040400003221EA10098FCF7AEF910B90298C01C1B
:1040500002903846FFF778FF0146404606F018F90F
:1040600068B1BAF1000F13D06846FFF76DFFDDE9C4
:104070000101814203D202990098405C40B1404660
:10408000FFF77AFFDDE9011088420AD205460BE00E
:104090001EB10299009808443060404608B0BDE85F
:1040A000F087081E00D0451E0EB160193060C9E9C6
:1040B00000450020F2E70000A8000020EFBBBF0091
:1040C00070B515460E46040009D0FCF74AF9411CAC
:1040D0002B4632462046BDE87040FFF783BF0020E4
:1040E00070BD30B504464FF47A7502E0284600F002
:1040F00004F8641EA4B2F9D230BD70B54FF0E024CC
:1041000000226569B421A3694843A1698B4201D9A2
:104110005B1A01E06E1A33441A440B468242F4D310
:1041200070BD2DE9F041064608780D461070144622
:10413000501CD5E90312FCF7F0F82969601C002730
:104140000F542869C4F8F801D6E9012104F5FE707E
:104150008046FCF7E2F8716801F80870E888A4F876
:104160002E02012084F83002BDE8F08110B504462B
:104170000068417800290DD002290BD00078102862
:1041800006D01CA340F2B15224A12CA0FFF78EF957
:10419000FB2014E0426812B10278102A01D0FA2004
:1041A0000DE0227A032A01D0022907D0D10701D0DD
:1041B00004F0F6FF2068816A51B907E0F32020710E
:1041C0002068BDE810400C3008F078BA406A30B181
:1041D00008A340F2BC5224A118A0FFF767F9216898
:1041E00004204870206884622068BDE8104000F018
:1041F00049B800002E2E5C4C5749505C6C776970B2
:104200002D312E342E315C7372635C6170695C6198
:1042100070695F6D73672E63000000006D73672D1A
:104220003E636F6E6E2D3E74797065203D3D204E6D
:104230004554434F4E4E5F544350000041737365E5
:104240007274696F6E2022257322206661696C6525
:1042500064206174206C696E6520256420696E207D
:1042600025730D0A00000000616C7265616479209D
:1042700077726974696E67206F7220636C6F7369FF
:104280006E6700002DE9F041040006D152A34FF4FF
:104290003C725BA15EA0FFF709F92078102806D0D8
:1042A0004DA340F2F12265A159A0FFF7FFF8607815
:1042B000042806D048A340F2F22268A154A0FFF7D8
:1042C000F5F8606830B944A340F2F3226CA150A025
:1042D000FFF7ECF8A06A30B93FA34FF43D726DA12F
:1042E0004BA0FFF7E3F8A06A007A00F0010700F0A6
:1042F000020603281FD000256068017E012920D016
:1043000037B100210AF008FC0021606808F083FB47
:104310001EB1002160680AF031FEBDB10422002107
:10432000606809F021FE0021606808F001FF606804
:1043300008F0F2FB0FE001250021606808F0EAFBBD
:10434000DAE7002108F067FB002DF0D1324639464C
:1043500060680AF05FFE20B16068007E012821D00D
:1043600027E0A16A00200871A062607035B160602A
:10437000E36A1BB100220421204698472FB1E36A6B
:104380001BB100221146204698472EB1E36A1BB1AB
:10439000002202212046984704F10C00BDE8F041BC
:1043A00008F08CB90CA340F22D3241A118A0FFF700
:1043B0007DF8484960680AF0E1FD042246496068DA
:1043C00009F0D2FD4549606808F0B2FE21466068F8
:1043D000BDE8F04108F09EBB2E2E5C4C5749505C66
:1043E0006C7769702D312E342E315C7372635C6191
:1043F00070695C6170695F6D73672E630000000017
:10440000696E76616C696420636F6E6E00000000F7
:10441000417373657274696F6E2022257322206662
:1044200061696C6564206174206C696E6520256427
:1044300020696E2025730D0A0000000074686973FE
:1044400020697320666F7220746370206E657463D8
:104450006F6E6E73206F6E6C79000000636F6E6E0E
:10446000206D75737420626520696E2073746174A9
:1044700065204E4554434F4E4E5F434C4F534500CD
:1044800070636220616C726561647920636C6F7324
:1044900065640000636F6E6E2D3E63757272656EAB
:1044A000745F6D736720213D204E554C4C00000019
:1044B000436C6F73696E672061206C697374656EFD
:1044C00020706362206D6179206E6F74206661696F
:1044D0006C21000001C3000899B20008394E0008A1
:1044E00010B5044600684368002B11D0017801F034
:1044F000F001102919D0202911D040290AD021A378
:1045000040F2034229A12FA0FEF7D0FFFA202BE0B2
:10451000F42029E01846A16807F0FEFB24E0A289F8
:104520001846A1680BF0E4FE1EE0417809B1F720BF
:104530001AE007F04BFF2068A289A16840682C4B65
:1045400008F0C6FB207180B92168032291F8200091
:104550004A70C0F340000028206810F8201F0AD0DD
:1045600041F004010170FB2020712068BDE810407B
:104570000C3008F0A3B821F00401017020688462B7
:1045800010BD00002E2E5C4C5749505C6C77697052
:104590002D312E342E315C7372635C6170695C6105
:1045A00070695F6D73672E6300000000496E76616D
:1045B0006C6964206E6574636F6E6E2074797065CB
:1045C00000000000417373657274696F6E202225CC
:1045D0007322206661696C6564206174206C696E69
:1045E0006520256420696E2025730D0A00000000F7
:1045F000F545000870B5154604000CD06078032816
:1046000006D023A340F2B6322BA133A0FEF74EFF13
:10461000A06A18B10FE06FF0050070BD94F820009B
:10462000400709D41AA340F2B73236A12AA0FEF7F8
:104630003DFFA06A00B105712078102803D115B99B
:10464000204607F0C3FE94F82000002640F38005C2
:1046500020F0040084F82000A66266706D1C09D169
:10466000FCF7F0FD94F9081011F1090F00DB267238
:10467000FCF7FCFDE36A1BB10022022120469847AB
:104680001DB104F10C0008F019F8002070BD000005
:104690002E2E5C4C5749505C6C7769702D312E344E
:1046A0002E315C7372635C6170695C6170695F6D0F
:1046B00073672E6300000000636F6E6E2D3E73748F
:1046C000617465203D3D204E4554434F4E4E5F433F
:1046D0004F4E4E4543540000417373657274696FC9
:1046E0006E2022257322206661696C6564206174E6
:1046F000206C696E6520256420696E2025730D0A83
:104700000000000028636F6E6E2D3E637572726547
:104710006E745F6D736720213D204E554C4C2920EF
:104720007C7C20636F6E6E2D3E696E5F6E6F6E5F78
:10473000626C6F636B696E675F636F6E6E656374E7
:104740000000000070B501680446487800281BD0BE
:10475000022819D003280CD00878102806D030A3DE
:1047600040F2473238A140A0FEF7A0FEFB202071A6
:1047700031E091F82000400706D429A340F24A32E4
:1047800044A139A0FEF792FE206804F009FD2068DC
:104790004168A1B1027802F0F002102A27D000256A
:1047A000202A05D0402A08D1084607F00FFB04E074
:1047B000CD61206840680BF0C7FE20684560206826
:1047C000C36A43B10022114698472068C36A13B1F7
:1047D00000220221984720680C3007F075FF00285E
:1047E0001CD02068BDE870400C3007F067BF816ABC
:1047F00009B9406A30B10AA340F25F322DA11AA074
:10480000FEF754FE216804204870032020722068BF
:1048100084622068BDE87040FFF734BD70BD0000C1
:104820002E2E5C4C5749505C6C7769702D312E34BC
:104830002E315C7372635C6170695C6170695F6D7D
:1048400073672E63000000006D73672D3E636F6E0B
:104850006E2D3E74797065203D3D204E4554434F8A
:104860004E4E5F5443500000417373657274696F1C
:104870006E2022257322206661696C656420617454
:10488000206C696E6520256420696E2025730D0AF1
:1048900000000000626C6F636B696E6720636F6E6F
:1048A0006E65637420696E2070726F6772657373D2
:1048B00000000000616C7265616479207772697430
:1048C000696E67206F7220636C6F73696E6700009A
:1048D00010B5044600686FF00C014068002825D030
:1048E000227C002AA26801D0006800E040681060C5
:1048F000002020712068027802F0F002102A21D0F6
:10490000202A15D0402A0CD013A340F29B521CA1A0
:1049100021A0FEF7CBFD2068BDE810400C3007F069
:10492000CDBE227C12B14068007C11E02171F2E71B
:10493000227C40680AB1408A0AE0027C5207F5D521
:10494000808A05E0217C406809B1408B00E0808BC3
:10495000E1680880DFE700002E2E5C4C5749505C70
:104960006C7769702D312E342E315C7372635C610B
:1049700070695C6170695F6D73672E630000000091
:10498000696E76616C6964206E6574636F6E6E5FCC
:104990007479706500000000417373657274696F0B
:1049A0006E2022257322206661696C656420617423
:1049B000206C696E6520256420696E2025730D0AC0
:1049C0000000000010B504460020207120684068F7
:1049D00010B9204606F026FB2068BDE810400C30D8
:1049E00007F06CBE2DE9F0410546002028712868CB
:1049F000416891B1007810280FD1AC6807034FF6D9
:104A0000FF78BC4201D3464600E0A6B22868314692
:104A100040680AF0DFF8A41BF3D12868BDE8F04134
:104A20000C3007F04BBE70B50446006890F90810D2
:104A300011F1090F01DA217117E0F32121714568A5
:104A40009DB1007800F0F000202819D040280CD14A
:104A5000A06810F1080F0ED0816861B100F1080262
:104A60000168284607F0CCF920712068BDE8704045
:104A70000C3007F023BE0168284607F0BDF9F3E7C4
:104A8000A06810F1080F09D0816839B1838900F15D
:104A90000802016828460BF071FDE5E70168284629
:104AA0000BF068FDE0E7000010B50446006890F9DF
:104AB000081011F1090F07DB0178102901D0FA2144
:104AC00002E0417831B1FB212171BDE810400C308A
:104AD00007F0F4BD4168002920D001214170206811
:104AE000816A09B9406A30B10DA340F24C5216A157
:104AF0001CA0FEF7DBFCE06830B909A340F24E527F
:104B000023A118A0FEF7D2FC20688462216800204F
:104B100048622068BDE8104000F044B8F321D3E7B4
:104B20002E2E5C4C5749505C6C7769702D312E34B9
:104B30002E315C7372635C6170695C6170695F6D7A
:104B400073672E6300000000616C726561647920F8
:104B500077726974696E67206F7220636C6F736916
:104B60006E670000417373657274696F6E20222551
:104B70007322206661696C6564206174206C696EC3
:104B80006520256420696E2025730D0A0000000051
:104B90006D73672D3E6D73672E772E6C656E2021C9
:104BA0003D2030002DE9F047044690F82000A16A2E
:104BB0004FF0000880070E7C01D4700701D5012753
:104BC00000E0002734B959A340F2C34261A165A0B7
:104BD000FEF76CFC6078012806D054A340F2C44272
:104BE0006BA160A0FEF762FCA06A30B94FA340F24F
:104BF000C5426FA15BA0FEF759FC606830B94BA3BA
:104C000040F2C64271A157A0FEF750FCD4E9090159
:104C1000C968884206D345A340F2C74271A151A09A
:104C2000FEF744FCA06A616A826802EB010AC2686E
:104C3000501AB0F5803F04D34FF6FF7546F00206D8
:104C400000E085B260684FF00009B0F86600A84245
:104C500007D205461FB125B96FF0060616E046F0EB
:104C600002064819904206D930A340F2F5426AA1E3
:104C70003CA0FEF71BFC33462A46514660680AF00A
:104C800005FD060001D0701C3BD187B1A06AC06849
:104C9000A8420CD9E36A1BB12A4603212046984753
:104CA00094F8200040F0100084F8200010E06068C4
:104CB00040F66932B0F86610914203D9B0F8680046
:104CC000052805D3E36A1BB12A46032120469847ED
:104CD00016B1701C14D014E0606A28446062A16AA6
:104CE000CA68904200D027B1C8604FF00108C4F8EC
:104CF0002490606808F0F2FDB8F1000F04D10DE0D7
:104D00007FB1A16AC1F80C90A06A0671C4F828901E
:104D100084F8019004F10C0007F0D0FC0020BDE8FD
:104D2000F087606808F0DAFDF8E700002E2E5C4C92
:104D30005749505C6C7769702D312E342E315C737D
:104D400072635C6170695C6170695F6D73672E632B
:104D500000000000636F6E6E20213D204E554C4CCC
:104D600000000000417373657274696F6E20222524
:104D70007322206661696C6564206174206C696EC1
:104D80006520256420696E2025730D0A000000004F
:104D9000636F6E6E2D3E7374617465203D3D204ED1
:104DA0004554434F4E4E5F57524954450000000052
:104DB000636F6E6E2D3E63757272656E745F6D7398
:104DC0006720213D204E554C4C000000636F6E6EF5
:104DD0002D3E7063622E74637020213D204E554C31
:104DE0004C000000636F6E6E2D3E77726974655FD4
:104DF0006F6666736574203C20636F6E6E2D3E6334
:104E0000757272656E745F6D73672D3E6D73672E7C
:104E1000772E6C656E000000646F5F777269746551
:104E20006D6F72653A20696E76616C6964206C659D
:104E30006E677468210000002DE9F0410E46040001
:104E400006D133A34FF4B1723BA13FA0FEF72EFB76
:104E500000276760FCF7F6F92672FCF707FA657819
:104E60006770E36A7BB10022042120469847E36A19
:104E70004BB10022114620469847E36A1BB100223D
:104E800002212046984704F11000804607F0FAFB03
:104E900018B10021404607F0C5FB04F1140080461C
:104EA00007F0F0FB18B10021404607F0BBFB012DD5
:104EB0000FD0042D0DD0032D0BD0A06A002824D0D4
:104EC000BDE8F04112A34FF4C9722AA11EA0FEF75B
:104ED000EDBA94F82010C1F3800021F0040184F8A9
:104EE0002010002811D1A06A30B909A340F28B121A
:104EF00027A115A0FEF7DAFAA06A067104F10C00EA
:104F0000A762BDE8F04107F0D9BBBDE8F081000021
:104F10002E2E5C4C5749505C6C7769702D312E34C5
:104F20002E315C7372635C6170695C6170695F6D86
:104F300073672E6300000000636F6E6E20213D20BA
:104F40004E554C4C00000000417373657274696FDC
:104F50006E2022257322206661696C65642061746D
:104F6000206C696E6520256420696E2025730D0A0A
:104F700000000000636F6E6E2D3E63757272656E89
:104F8000745F6D7367203D3D204E554C4C00000012
:104F9000636F6E6E2D3E63757272656E745F6D73B6
:104FA0006720213D204E554C4C0000002DE9F84F64
:104FB00090468946050010D0B8F80A002A2864D324
:104FC000D8F804604FF4807A344634F80E0F504518
:104FD0005BD12079062858D108E02EA340F2BB22ED
:104FE00036A13AA0FEF762FABDE8F88F607904288E
:104FF0004BD16088082848D1D4F80E000090A169F0
:10500000281D06D0686820B1814202D101273B46A5
:1050100001E00027022304F108026946284600F057
:105020001BFDE088504530D1002F2ED0022002F029
:10503000D7FCE080D4F80E00A0616868C4F80E00C8
:1050400095F82200062806D012A340F211322A4910
:105050001EA0FEF72BFAA068C4F81200A089E08217
:10506000A0683060A089B080D9F80010A160B9F8BC
:105070000400A081D9F80010C6F80610B9F80400A1
:105080007081AA69414628469047404605F0B6FD22
:10509000AAE700002E2E5C4C5749505C6C77697073
:1050A0002D312E342E315C7372635C6E65746966CB
:1050B0005C6574686172702E630000006E657469CF
:1050C0006620213D204E554C4C0000004173736515
:1050D0007274696F6E2022257322206661696C6587
:1050E00064206174206C696E6520256420696E20DF
:1050F00025730D0A000000007C1D01082DE9F34F07
:1051000085B04FF00A0B00240646DA465F4602944B
:10511000D9460194CDF800404F4904EB840001EBDF
:105120008008039098F812500A2F16D0002D24D032
:10513000012D08D0022D06D248A340F22B1251A116
:1051400060A0FEF7B3F966B13168D8F80400814277
:1051500007D160B207B0BDE8F08F002DE8D167B28B
:105160000BE0012D17D0022D07D398F813000199F9
:10517000884202D34FFA84FA0190641CE4B20A2CEC
:10518000CAD3069881074FF0FF30E3D40A2F18D016
:105190001ADAFCB242E03048039950F821000028A6
:1051A00098F8130006D000998842E6D34FFA84F9A4
:1051B0000090E2E702998842DFD34FFA84FB029025
:1051C000DBE70699C907C5D0BAF10A0F0FDA0AF072
:1051D000FF04214804EB840150F8210090B11FA383
:1051E00040F2711242A137A0FEF760F90AE0BBF16C
:1051F0000A0F02DA0BF0FF0404E0B9F10A0FA9DA92
:1052000009F0FF040A2C06D314A340F283123EA136
:105210002CA0FEF74BF9204600F096F80A2C06D396
:105220000EA340F2871238A126A0FEF73FF90A48E4
:1052300004EB840100EB8105A87C30B107A34FF497
:10524000C47236A11FA0FEF731F90EB13068686054
:105250000020E8747DE70000D03301202E2E5C4C46
:105260005749505C6C7769702D312E342E315C7348
:1052700072635C6E657469665C6574686172702ED9
:10528000630000007374617465203D3D20455448FF
:105290004152505F53544154455F50454E44494E2E
:1052A00047207C7C207374617465203E3D2045540A
:1052B000484152505F53544154455F535441424C0E
:1052C00045000000417373657274696F6E2022257A
:1052D0007322206661696C6564206174206C696E5C
:1052E0006520256420696E2025730D0A00000000EA
:1052F0006172705F7461626C655B695D2E71203DE7
:105300003D204E554C4C000069203C204152505FDE
:105310005441424C455F53495A4500006172705FE9
:105320007461626C655B695D2E7374617465203DA8
:105330003D204554484152505F53544154455F45C8
:105340004D5054590000000070B50C4D00EB800624
:10535000002455F8260018B105F050FC45F8264009
:1053600005EB860006498474C47484604460D1F8F7
:105370000620C2604989018270BD0000D03301203F
:10538000601C01082DE9FC4115460E46040006D1BB
:1053900046A340F275324FA152A0FEF787F836B906
:1053A00042A340F276325AA14EA0FEF77FF835B9FB
:1053B0003EA340F2773259A14AA0FEF777F80E21BA
:1053C000304605F0D1FC18B16FF00100BDE8FC815A
:1053D0002146286800F0EEFF08B1544B3CE02868F5
:1053E000C0F303110E2922D0A168636800EA01020C
:1053F0000B409A420BD080B2A0F57E41A93906D06D
:1054000014F10C0F2FD0E06868B304F10C05484A82
:105410004849137803EB830001EB8000877C022F5F
:1054200024D32F684068874220D11A462EE00120FD
:105430008DF8000000208DF801005E208DF802003C
:1054400068786B4600F07F008DF80300A8788DF82F
:105450000400E8788DF8050004F123023146204667
:1054600000F086FAB2E76FF00300AFE75FF00000EC
:1054700000EB800301EB83039F7C022F0BD32F688B
:105480005B689F4207D1C0B2107002463146204689
:1054900000F052F89AE7401C40B20A28E8DB324696
:1054A0002946204600F0B6F890E700002E2E5C4C0E
:1054B0005749505C6C7769702D312E342E315C73F6
:1054C00072635C6E657469665C6574686172702E87
:1054D000630000006E6574696620213D204E554CC6
:1054E0004C000000417373657274696F6E20222551
:1054F0007322206661696C6564206174206C696E3A
:105500006520256420696E2025730D0A00000000C7
:105510007120213D204E554C4C00000069706164A3
:10552000647220213D204E554C4C0000601C010847
:10553000BC000020D033012070B505460E4613484C
:1055400002EB820100EB8104A07C022806D210A3AA
:105550004FF4537218A124A0FDF7A8FFA07C0228E5
:1055600009D1E07CE42806D3211D284600F0EEF99D
:1055700008B90320A07404F10C0305F1230231469D
:105580002846BDE8704000F0F3B90000D033012098
:105590002E2E5C4C5749505C6C7769702D312E343F
:1055A0002E315C7372635C6E657469665C657468E9
:1055B0006172702E630000006172705F7461626CD2
:1055C000655B6172705F6964785D2E737461746588
:1055D000203E3D204554484152505F53544154456C
:1055E0005F535441424C4500417373657274696F57
:1055F0006E2022257322206661696C6564206174C7
:10560000206C696E6520256420696E2025730D0A63
:10561000000000002DE9F74F82B0884602984FF055
:10562000FF3B23300090086814465E46029900F064
:10563000C1FE002829D1D8F80000C0F303110E29BB
:1056400023D0B8F1000F20D000281ED00121404601
:10565000FFF754FD07001AD4DFF8D8A007EB87093D
:105660000AEB8905A87C002814D0012814D0022850
:1056700009D231A340F2194239A143A0FDF716FF28
:10568000A87C012808D03CB10DE06FF00D0005B0FA
:10569000BDE8F08F0120A8744146029800F056F949
:1056A0000646002CF3D0A87CD04602280AD34148F5
:1056B00005F10C0321460770009A029800F058F992
:1056C000064634E0012832D1254640F23E4668893C
:1056D0002989884207D1286828B117A3324636A104
:1056E00029A0FDF7E3FE287B01280ED0298900229E
:1056F000032004F04BFE050018D0214605F004F904
:1057000058B1284605F07AFA10E02D68002DDED158
:105710002546204605F078FC45B158F8290008B127
:1057200005F06CFA48F82950002600E05E46304645
:10573000ADE70000D03301202E2E5C4C5749505C61
:105740006C7769702D312E342E315C7372635C6E10
:10575000657469665C6574686172702E6300000030
:105760006172705F7461626C655B695D2E737461F8
:105770007465203D3D2050454E44494E47206F7290
:1057800020535441424C4500417373657274696FF4
:105790006E2022257322206661696C656420617425
:1057A000206C696E6520256420696E2025730D0AC2
:1057B00000000000BC0000206E6F207061636B650C
:1057C000742071756575657320616C6C6F776564A5
:1057D000210000002DE9F05FDDF82CB098469146DD
:1057E0008A46070006D132A340F2A5423AA13EA064
:1057F000FDF75CFE00222A21032004F0C7FD06000D
:1058000053D070892A2806D229A34FF4966241A169
:1058100035A0FDF74BFE75680D9805F10E0402F0FA
:10582000DFF8E08097F82200062806D020A34FF486
:10583000976245492CA0FDF739FED8F80010A16009
:10584000B8F80400A081DBF80010C4F81210BBF80F
:105850000400E082D9F800102960B9F80400A8809B
:10586000DAF80010C5F80610BAF8040068810A9842
:1058700031460068C4F80E000C980068A0614FF42F
:1058800080702080082060800620207104206071D4
:105890004FF4C160A881BA69384690470446304643
:1058A00005F0ACF92046BDE8F09F4FF0FF30FAE775
:1058B0002E2E5C4C5749505C6C7769702D312E341C
:1058C0002E315C7372635C6E657469665C657468C6
:1058D0006172702E630000006E6574696620213D60
:1058E000204E554C4C000000417373657274696F13
:1058F0006E2022257322206661696C6564206174C4
:10590000206C696E6520256420696E2025730D0A60
:1059100000000000636865636B2074686174206632
:105920006972737420706275662063616E20686F9F
:105930006C6420737472756374206574686172702E
:105940005F686472000000007C1D01081FB5012320
:10595000064C021DCDE90213CDE9002400F123031A
:105960001946A21FFFF736FF04B010BD661C0108E0
:105970002DE9F041054690F822004C681E46174676
:105980008846062806D00CA340F2A312144915A09D
:10599000FDF78CFD30682060B088A0803868C4F8BE
:1059A0000600B88860810820A08141462846AA697F
:1059B000BDE8F041104700002E2E5C4C5749505C6A
:1059C0006C7769702D312E342E315C7372635C6E8E
:1059D000657469665C6574686172702E63000000AE
:1059E0007C1D0108417373657274696F6E202225F6
:1059F0007322206661696C6564206174206C696E35
:105A00006520256420696E2025730D0A00000000C2
:105A100070B5104D002400BF04EB840005EB80013D
:105A2000887C90B1CA7C521CD2B2CA74F02A06D2C9
:105A3000012802D0032806D007E0022A05D3204619
:105A4000FFF782FC01E002208874641CE4B20A2C97
:105A5000E2D370BDD03301202DE9F041044690F827
:105A600022001F4616460D46062806D01EA340F209
:105A7000C31227A130A0FDF719FD85B3286870B3C4
:105A8000214600F097FC50BB2878C0F303100E2885
:105A900026D039462846FFF731FB00281DDB00EBF6
:105AA00080013048022300EB8102937494603368D4
:105AB000D360B38813820023D37450F821505DB1B2
:105AC00040F82130334604F1230229462046FFF7EF
:105AD0004FFF284605F092F80020BDE8F081FFE76F
