:020000040800F2
:1000000080050020790200083D0D0008390D000828
:100010003B0D000885030008510F00080000000098
:10002000000000000000000000000000C101000806
:10003000870300080000000015020008410D0008B9
:10004000930200089302000893020008930200083C
:10005000930200089302000893020008930200082C
:10006000930200089302000893020008930200081C
:10007000930200089302000893020008930200080C
:1000800093020008930200089302000893020008FC
:1000900093020008930200089302000893020008EC
:1000A00093020008930200089302000893020008DC
:1000B00093020008930200089302000893020008CC
:1000C00093020008930200089302000893020008BC
:1000D00093020008930200089302000893020008AC
:1000E000930200089302000893020008930200089C
:1000F000930200089302000893020008930200088C
:10010000930200089302000893020008930200087B
:10011000930200089302000893020008930200086B
:10012000930200089302000893020008930200085B
:10013000930200089302000893020008930200084B
:10014000930200089302000893020008930200083B
:10015000930200089302000893020008930200082B
:10016000930200089302000893020008930200081B
:1001700093020008930200089302000800000000A8
:1001800093020008930200089302000893020008FB
:1001900093020008930200089302000893020008EB
:1001A000930200089302000893020008DFF80CD0C5
:1001B00000F0D6F8004800471D1000088005002018
:1001C0002A4B19680868B0E8F04F80F30988BFF33C
:1001D0006F8F4FF0000080F311887047000000001F
:1001E00006480068006880F3088862B661B6BFF30D
:1001F0004F8FBFF36F8F00DF00BF00BF08ED00E03F
:10020000DFF80C00016841F470010160704700BF25
:1002100088ED00E0EFF30980BFF36F8F134B1A688E
:100220001EF0100F08BF20ED108A20E9F04F10607B
:1002300008B44FF0500080F31188BFF34F8FBFF325
:100240006F8F00F057FF4FF0000080F3118808BC5B
:1002500019680868B0E8F04F1EF0100F08BFB0EC46
:10026000108A80F30988BFF36F8F70471000002059
:10027000EFF30580704700000648804706480047B6
:10028000FEE7FEE7FEE7FEE7FEE7FEE7FEE7FEE746
:10029000FEE7FEE70D0E0008AD0100082DE9F05F56
:1002A0000546002092469B468846064681464024E5
:1002B0001BE0284641464746224600F041F8534697
:1002C0005A46C01A914110D311461846224600F0F2
:1002D00028F82D1A67EB01084F462246012000211D
:1002E00000F01FF817EB00094E41201EA4F1010495
:1002F000DFDC484631462A464346BDE8F09FD2B28D
:1003000001E000F8012B491EFBD270470022F6E7FE
:1003100010B513460A4604461946FFF7F0FF20467B
:1003200010BD202A04DB203A00FA02F100207047B9
:100330009140C2F1200320FA03F319439040704723
:10034000202A04DB203A21FA02F00021704721FA2A
:1003500002F3D040C2F12002914008431946704791
:10036000064C074D06E0E06840F0010394E8070002
:1003700098471034AC42F6D3FFF71CFF3012000848
:1003800050120008FEE770472DE9F84F00224FF0A9
:10039000010803254FF00F0E0B6808FA02F4234002
:1003A000A3426ED14E68012E05D0022E03D0112E2D
:1003B00001D0122E12D186684FEA420C05FA0CF7D2
:1003C000BE43CF6807FA0CF7374387604668A643F9
:1003D0000C79C4F30014944034434460C668570059
:1003E00005FA07FC8C6826EA0C06BC403443C4605E
:1003F0004C68022C01D0122C13D1D40800EB8404D9
:10040000A346D4F8209054074FEAD46A0EFA0AF6AD
:1004100029EA06090E6906FA0AF646EA0906CBF841
:10042000206004680E7924EA0C0406F00306BE403E
:10043000264306604C68E4006FD53B4C266846F4C2
:1004400080462660246822F0030604F48044009469
:10045000364C3444A446D4F808489607360F0EFAB2
:1004600006F7BC43324FB84201D100272EE0314F8E
:10047000B84201D1012729E02F4FB84202D102270B
:1004800024E04AE02D4FB84201D103271EE02C4F53
:10049000B84201D1042719E02A4FB84201D10527FB
:1004A00014E0294FB84201D106270FE0274FB84288
:1004B00001D107270AE0264FB84201D1082705E0FD
:1004C000244FB84201D1092700E00A27B74027434B
:1004D000CCF80878204E34684F689C43FF0300D561
:1004E0001C4334601C4E361D34684F689C43BF0368
:1004F00000D51C433460184E083634684F689C435E
:10050000FF0200D51C433460134E0C3634684F682C
:100510009C43BF0200D51C433460521C102AFFF4D8
:100520003BAFBDE8F88F0000443802400030014086
:10053000000002400004024000080240000C02409B
:10054000001002400014024000180240001C02404B
:100550000020024000240240003C01400148806825
:1005600070470000000000200B4810B5016841F4FE
:1005700000710160016841F480610160016841F42B
:1005800080710160032000F06FF8002000F006F891
:1005900000F024F8002010BD003C024070B50D4D65
:1005A00004464FF47A712878B1FBF0F00A490968E3
:1005B000B1FBF0F000F03CFB48B9102C07D2002250
:1005C0002146501E00F030F800206C6070BD012004
:1005D00070BD0000000000200C0000200A4808B593
:1005E000016841F480410160006800F4804000909F
:1005F0000548001F016841F080510160006800F06B
:100600008050009008BD000044380240002809DBFB
:1006100000F01F02012191404009800000F1E0201C
:10062000C0F8001170470000F0B40E4B1B680C4678
:10063000C3F30223C3F10705042D00D90425191DB6
:10064000072901D2002300E0DB1E012606FA05F18E
:10065000491E214099409E40761E16403143F0BC11
:1006600000F080BC0CED00E0064900F007020868CD
:100670004FF6FF03184040EA0220034A1043086087
:10068000704700000CED00E00000FA052DE9F8438A
:100690001748016841F0805101600068154F00F073
:1006A0008050012600903E64FFF758FF05464FF446
:1006B0007A78114C05E000BFFFF750FF401B404522
:1006C0000DD86068C003F7D57E64FFF747FF054685
:1006D000464607E0FFF742FF401BB04202D9032025
:1006E000BDE8F88360688003F4D50020F8E70000D7
:1006F0004038024000000E42007000402DE9F047F3
:100700000E46050065D0DFF81481D8F80000F7B276
:1007100000F00F00B04207D288F80070D8F800004F
:1007200000F00F00B04254D128683D4C810712D52B
:10073000400703D5206840F4E05020602878000787
:1007400003D5206840F4604020602068A96820F04C
:10075000F000084320602878C0072DD03049686831
:100760000839012812D0022813D0032811D00968B3
:10077000890700292DDA216821F003010143216056
:10078000FFF7ECFE814641F2883A0EE009688903E2
:10079000EFE709688901ECE7FFF7E0FEA0EB09014C
:1007A000514502D90320BDE8F0872068696800F050
:1007B0000C00B0EB810FEFD1D8F80010404601F0EB
:1007C0000F01B14207D90770006800F00F00B04276
:1007D00001D00120E7E72878400705D52068E968BF
:1007E00020F4E050084320602878000706D52068F0
:1007F000296920F4604040EAC100206000F038F828
:100800002168084AC1F30311515CC84006490860D9
:1008100006480068FFF7C2FE0020C4E7003C024023
:1008200008380240181200080C00002004000020C4
:100830000448054900680968044AC1F38221515CF3
:10084000C84070470C0000200838024028120008F9
:100850000448054900680968044AC1F34231515C03
:10086000C84070470C0000200838024028120008D9
:10087000154810B5006810F00C02144813D0144944
:10088000042A0FD0082A0ED10F4C241F2268236897
:1008900002F03F025B0207D52068C0F38810A0FB7E
:1008A000010106E0084610BD2168C1F38811A1FBD3
:1008B00000010023FFF7F2FC2168C1F30141491C4C
:1008C0004900B0FBF1F010BD083802400024F400EC
:1008D00040787D012DE9F84F04006ED02078DFF8D4
:1008E0003C93C007A9F104054AD009F1040001684E
:1008F000C1F38101012908D00068C0F381000228FA
:100900000AD1D9F80000400206D52868800337D5FF
:1009100060680028E1D033E06068B0F5803F10D017
:10092000B0F5A02F286810D020F480302860286807
:1009300020F4802028606068A8B1FFF70FFE06460B
:100940000DE0286840F48030F4E740F4802028600F
:10095000F7E700BFFFF702FE801B642873D8286802
:100960008003F7D50CE0FFF7F9FD064605E000BF70
:10097000FFF7F4FD801B6428F0D828688003F7D4C3
:100980002078DFF89C8280074FF0000A3ED5A3480C
:10099000001D016811F00C0F08D00068C0F3810041
:1009A00002280BD1D9F80000400207D4286880073C
:1009B00016D5E068012800D112E02BE1E068B8B15B
:1009C0000120C8F80000FFF7C9FD064605E000BF9A
:1009D000FFF7C4FD801B0228C0D828688007F7D520
:1009E0002868216920F0F80040EAC10028600DE085
:1009F000C8F800A0FFF7B2FD064604E0FFF7AEFD21
:100A0000801B02281FD828688007F7D420780007A9
:100A100022D5824E83486169703671B1012101602F
:100A2000FFF79CFD074604E0FFF798FDC01B022876
:100A300009D830688007F7D50EE0C0F800A0FFF7AE
:100A40008DFD074605E082E0FFF788FDC01B022808
:100A50007DD830688007F7D42078400768D5DFF864
:100A6000BCB100270BF13C0BDBF80000C0000BD43D
:100A7000DBF8001041F08051CBF80010DBF80000EB
:100A8000012700F080500090674E3068C00510D4F8
:100A9000306840F480703060FFF760FD009005E042
:100AA000FFF75CFD0099401A022850D83068C00555
:100AB000F6D55A4EA0686C3601280FD0052830684C
:100AC00010D020F001003060306820F00400306069
:100AD000A068B8B1FFF742FD00900FE0306840F029
:100AE0000100F4E740F004003060F7E7FFF736FD5F
:100AF0000099411A41F28830814266D830688007F7
:100B0000F4D50EE0FFF72AFD009007E0FFF726FD81
:100B10000099411A41F28830814256D830688007E6
:100B2000F4D42FB1DBF8001021F08051CBF8001085
:100B3000A069C8B33949091D0968C1F381010229B7
:100B40004AD00228504607D0C8F8600000E03CE0D8
:100B5000FFF704FD04463BE04746C8F86000FFF796
:100B6000FDFC064605E000BFFFF7F8FC801B0228ED
:100B70002BD828688001F7D4D4E907010843A16A7B
:100B80002A4A490802EB0141626A41EA821108439C
:100B900094F82C1040EA0161C9F800100120386671
:100BA000FFF7DCFC044606E036E000BFFFF7D6FCAA
:100BB000001B022809D828688001F7D52CE000BF67
:100BC000FFF7CCFC001B022802D90320BDE8F88FF8
:100BD00028688001F4D41FE00128F7D0D9F800007C
:100BE000E26900F48001914214D1226A00F03F01D1
:100BF00091420FD147F6C071626A0140914209D11A
:100C0000A26A00F44031914204D1E16A00F07060C0
:100C1000884201D00120D9E70020D7E704380240FC
:100C200000004742800E4742007000400000FFFF76
:100C300010B5401EB0F1807F01D3012010BD4FF0F0
:100C4000E02460610F21601700F08CF90020A061A2
:100C500007202061002010BD70B5040004D094F876
:100C60003900002510B106E0012070BD84F838502D
:100C7000204600F023F8242084F839002068C16859
:100C800021F40051C160204600F0CEF820680169CF
:100C900021F4904101612068416921F02A014161FC
:100CA0002068C16841F40051C160E563202084F8E8
:100CB000390084F83A00002070BD000010B50068CB
:100CC0001A4986B088422FD11948016841F00101C4
:100CD0000160006800F001000590154814300168BB
:100CE00041F0100101600068012100F01000059042
:100CF0004FF4007000900220CDE90101039007201D
:100D00000C4C049069462046FFF73EFB20150090EE
:100D100069462046FFF738FB2520FFF777FC0022C5
:100D200002212520FFF780FC06B010BD0010014015
:100D30003038024000000240FEE7FEE7FEE7000018
:100D400010B5502080F31188BFF34F8FBFF36F8F22
:100D500000F0FEF918B104494FF0805008600020FF
:100D600080F3118810BD000004ED00E030B593B0B1
:100D700030216846FFF7CAFA14210CA8FFF7C6FA1B
:100D800020480025016841F080510160006800F0B2
:100D9000805011901C48016841F440410160006896
:100DA000022400F4404011900120009000040190C2
:100DB0008001CDE90640192008904FF4B470CDE9C8
:100DC000090404200B906846FFF784FD08B172B651
:100DD000FEE7FFF75BFC08B172B6FEE70CA90F2037
:100DE00081E831004FF4A0500F904FF480501090E4
:100DF00005210CA8FFF782FC002801D072B6FEE79F
:100E000013B030BD40380240007000400548016812
:100E100041F47001016003494FF0006080390860BF
:100E20007047000088ED00E02DE9F04104460068BD
:100E30000169E26821F44051114301612169A06810
:100E4000E26908436169114308432168CA6849F2AD
:100E50000C639A430243CA6020684169A26921F485
:100E6000407111434161E069192764253226B0F5CC
:100E7000004F354A354920684FF0000806D08842B7
:100E800001D0904236D1FFF7E3FC35E0884201D033
:100E9000904202D1FFF7DCFC01E0FFF7C9FC61687A
:100EA0004A18A0FB070148EB0803FFF7F7F90146D2
:100EB000B0FBF5F00201B1FBF5F06FF018035843F9
:100EC00001EB800006EBC000B0FBF5F000F0F8008D
:100ED00002EB4002B1FBF5F0584301EB800006EB5A
:100EE000C000B0FBF5F000F00700216810448860F6
:100EF000BDE8F081FFF79CFC61688B0F8A00A0FBC6
:100F00000701FFF7CBF90146B0FBF5F06FF01802CF
:100F1000504301EB800006EB0010B0FBF5F000F051
:100F2000F002B1FBF5F002EB0012B1FBF5F06FF04F
:100F30001803584301EB800006EB0010B0FBF5F0FE
:100F400000F00F00D1E70000001401400010014044
:100F5000FEE70000014A024900F023B8C50F00086F
:100F60004C0000200907090E002804DB00F1E020F6
:100F700080F80014704700F00F0000F1E02080F8C6
:100F8000141D704702E008C8121F08C1002AFAD1D8
:100F900070477047002001E001C1121F002AFBD1F9
:100FA00070472DE9F04116460F460446002503E040
:100FB0003946B047641C6D1C20780028F8D12846BB
:100FC000BDE8F08103490A685206FCD5C2B24A6006
:100FD000704700000010014030B50E4887B001682E
:100FE00041F0020101600068012400F00200059058
:100FF0000220CDE900040320CDE90240064D6946F8
:101000002846FFF7C1F9694628460094FFF7BCF966
:1010100007B030BD303802400004024008B5FFF789
:10102000A3FAFFF7A3FE0848016841F080010160C0
:10103000006800F080000090FFF7CEFF00F020F87D
:1010400002A0FFF787FFFEE73038024068656C6C4E
:101050006F6E2053544D3332463432390D0A00003E
:101060000648416B096829B1416BC968C96849687C
:10107000816270474FF0FF31FAE700001000002056
:1010800010B50C4C0A480C2120604FF4E130606030
:101090000020A060E060C4E90401A0612046FFF7E1
:1010A000DBFD2068C16841F02001C16010BD000077
:1010B0000010014050000020D0E9013201699A601F
:1010C000D0E901235A604A68824201D182684A60AD
:1010D000002202610868401E0860704742684A604A
:1010E00093688B6093685960916008610168491C3E
:1010F000016070471448016B11B10121C161704753
:101100000021C1610169B1FA81F1C1F11F0101EB57
:1011100081020E4951F822306BB101EB820101F1DD
:1011200008034A6852684A609A4201D152684A608C
:10113000D16801607047502080F31188BFF34F8F52
:10114000BFF36F8FFEE7000010000020900000202A
:101150002DE9F0412E4C0027206B40B1A069401CC6
:10116000A061E06900B101273846BDE8F081E6687A
:10117000761CE66013D1606B006838B1502080F3B4
:101180001188BFF34F8FBFF36F8FFEE7606BA16BCA
:101190006163A063206A401C2062FFF761FFA06AC0
:1011A000DFF87080864209D3606B006880B1606BA5
:1011B000C068C568686886420DD2A0622068C06AAF
:1011C00000EB800158F821000128CAD90127C8E79F
:1011D0004FF0FF30F1E7281DFFF76EFFA86A18B146
:1011E00005F11800FFF768FFE86A012122698140D4
:1011F0001143216100EB800108EB8100291DFFF7FD
:101200006DFFE86A2168C96A8842CDD30127CBE720
:1012100010000020900000200000000000000000EE
:10122000010203040607080900000000010203048C
:10123000501200080000002050000000840F000839
:10124000A01200085000002030050000940F000894
:101250000100000010000000000000000024F40065
:10126000000000000000000000000000000000007E
:10127000000000000000000000000000000000006E
:10128000000000000000000000000000000000005E
:10129000000000000000000000000000000000004E
:04000005080001AD41
:00000001FF
