:020000040800F2
:10000000A0040020C1010008F90C0008F50C00084C
:10001000F70C0008CD020008B51000080000000031
:10002000000000000000000000000000FD0C0008BF
:10003000CF02000800000000FB0C0008FF0C0008C5
:10004000DB010008DB010008DB010008DB01000820
:10005000DB010008DB010008DB010008DB01000810
:10006000DB010008DB010008DB010008DB01000800
:10007000DB010008DB010008DB010008DB010008F0
:10008000DB010008DB010008DB010008DB010008E0
:10009000DB010008DB010008DB010008DB010008D0
:1000A000DB010008DB010008DB010008DB010008C0
:1000B000DB010008C10D0008DB010008DB010008BE
:1000C000DB010008DB010008DB010008DB010008A0
:1000D000DB010008DB010008DB010008DB01000890
:1000E000DB010008DB010008DB010008DB01000880
:1000F000DB010008DB010008DB010008DB01000870
:10010000DB010008DB010008DB010008DB0100085F
:10011000DB010008DB010008DB010008DB0100084F
:10012000DB010008DB010008DB010008DB0100083F
:10013000DB010008DB010008DB010008DB0100082F
:10014000DB010008DB010008DB010008DB0100081F
:10015000DB010008DB010008DB010008DB0100080F
:10016000DB010008DB010008DB010008DB010008FF
:10017000DB010008DB010008DB01000800000000D3
:10018000DB010008DB010008DB010008DB010008DF
:10019000DB010008DB010008DB010008DB010008CF
:1001A000DB010008DB010008DB010008DFF80CD0F0
:1001B00000F07AF80048004705120008A00400206B
:1001C0000648804706480047FEE7FEE7FEE7FEE7F1
:1001D000FEE7FEE7FEE7FEE7FEE7FEE7A50D000807
:1001E000AD0100082DE9F05F0546002092469B46D0
:1001F00088460646814640241BE02846414647463D
:10020000224600F041F853465A46C01A914110D395
:1002100011461846224600F028F82D1A67EB01080F
:100220004F4622460120002100F01FF817EB00097D
:100230004E41201EA4F10104DFDC484631462A4627
:100240004346BDE8F09FD2B201E000F8012B491E01
:10025000FBD270470022F6E710B513460A46044663
:100260001946FFF7F0FF204610BD202A04DB203A94
:1002700000FA02F1002070479140C2F1200320FAF9
:1002800003F3194390407047202A04DB203A21FAF7
:1002900002F00021704721FA02F3D040C2F120029F
:1002A0009140084319467047064C074D06E0E06848
:1002B00040F0010394E8070098471034AC42F6D3AD
:1002C000FFF778FF1813000838130008FEE770479F
:1002D0002DE9F84F00224FF0010803254FF00F0ED3
:1002E0000B6808FA02F42340A3426ED14E68012E37
:1002F00005D0022E03D0112E01D0122E12D1866805
:100300004FEA420C05FA0CF7BE43CF6807FA0CF728
:10031000374387604668A6430C79C4F300149440C1
:1003200034434460C668570005FA07FC8C6826EA27
:100330000C06BC403443C4604C68022C01D0122C23
:1003400013D1D40800EB8404A346D4F820905407BA
:100350004FEAD46A0EFA0AF629EA06090E6906FA85
:100360000AF646EA0906CBF8206004680E7924EA0A
:100370000C0406F00306BE40264306604C68E40009
:100380006FD53B4C266846F480462660246822F0F0
:10039000030604F480440094364C3444A446D4F854
:1003A00008489607360F0EFA06F7BC43324FB8429C
:1003B00001D100272EE0314FB84201D1012729E0B9
:1003C0002F4FB84202D1022724E04AE02D4FB84215
:1003D00001D103271EE02C4FB84201D1042719E0B8
:1003E0002A4FB84201D1052714E0294FB84201D164
:1003F00006270FE0274FB84201D107270AE0264F12
:10040000B84201D1082705E0244FB84201D109279D
:1004100000E00A27B7402743CCF80878204E34681C
:100420004F689C43FF0300D51C4334601C4E361DAF
:1004300034684F689C43BF0300D51C433460184E9A
:10044000083634684F689C43FF0200D51C43346073
:10045000134E0C3634684F689C43BF0200D51C43D2
:100460003460521C102AFFF43BAFBDE8F88F000047
:1004700044380240003001400000024000040240C5
:1004800000080240000C024000100240001402402C
:1004900000180240001C02400020024000240240DC
:1004A000003C01400069084000D001207047000076
:1004B0000148806870470000000000200248816801
:1004C0000278114481607047000000200B4810B58D
:1004D000016841F400710160016841F480610160CC
:1004E000016841F480710160032000F06FF8002082
:1004F00000F006F800F024F8002010BD003C024097
:1005000070B50D4D04464FF47A712878B1FBF0F0C8
:100510000A490968B1FBF0F000F03CFB48B9102C27
:1005200007D200222146501E00F030F800206C60F7
:1005300070BD012070BD0000000000200C000020F4
:100540000A4808B5016841F480410160006800F480
:10055000804000900548001F016841F08051016013
:10056000006800F08050009008BD00004438024050
:10057000002809DB00F01F020121914040098000A2
:1005800000F1E020C0F8001170470000F0B40E4BFD
:100590001B680C46C3F30223C3F10705042D00D9E1
:1005A0000425191D072901D2002300E0DB1E0126C6
:1005B00006FA05F1491E214099409E40761E1640DC
:1005C0003143F0BC00F080BD0CED00E0064900F0C6
:1005D000070208684FF6FF03184040EA0220034A6A
:1005E00010430860704700000CED00E00000FA05C1
:1005F0002DE9F8431748016841F080510160006817
:10060000154F00F08050012600903E64FFF750FF28
:1006100005464FF47A78114C05E000BFFFF748FF1C
:10062000401B40450DD86068C003F7D57E64FFF7D6
:100630003FFF0546464607E0FFF73AFF401BB04242
:1006400002D90320BDE8F88360688003F4D5002058
:10065000F8E700004038024000000E420070004001
:100660002DE9F0470E46050065D0DFF81481D8F873
:100670000000F7B200F00F00B04207D288F8007017
:10068000D8F8000000F00F00B04254D128683D4C6B
:10069000810712D5400703D5206840F4E050206060
:1006A0002878000703D5206840F460402060206867
:1006B000A96820F0F000084320602878C0072DD0FA
:1006C000304968680839012812D0022813D003285D
:1006D00011D00968890700292DDA216821F003016A
:1006E00001432160FFF7E4FE814641F2883A0EE0C3
:1006F00009688903EFE709688901ECE7FFF7D8FE8D
:10070000A0EB0901514502D90320BDE8F08720681C
:10071000696800F00C00B0EB810FEFD1D8F8001041
:10072000404601F00F01B14207D90770006800F0A0
:100730000F00B04201D00120E7E72878400705D537
:100740002068E96820F4E05008432060287800071A
:1007500006D52068296920F4604040EAC100206085
:1007600000F038F82168084AC1F30311515CC84011
:100770000649086006480068FFF7C2FE0020C4E78B
:10078000003C024008380240001300080C00002022
:10079000040000200448054900680968044AC1F3C0
:1007A0008221515CC84070470C000020083802408C
:1007B000101300080448054900680968044AC1F399
:1007C0004231515CC84070470C000020083802409C
:1007D00010130008154810B5006810F00C021448FA
:1007E00013D01449042A0FD0082A0ED10F4C241F0D
:1007F0002268236802F03F025B0207D52068C0F33D
:100800008810A0FB010106E0084610BD2168C1F375
:100810008811A1FB00010023FFF7E4FC2168C1F36C
:100820000141491C4900B0FBF1F010BD08380240FD
:100830000024F40040787D012DE9F84F04006ED0CB
:100840002078DFF83C93C007A9F104054AD009F1EC
:1008500004000168C1F38101012908D00068C0F3D8
:10086000810002280AD1D9F80000400206D5286884
:10087000800337D560680028E1D033E06068B0F5C8
:10088000803F10D0B0F5A02F286810D020F4803021
:100890002860286820F4802028606068A8B1FFF7ED
:1008A00007FE06460DE0286840F48030F4E740F487
:1008B00080202860F7E700BFFFF7FAFD801B64285F
:1008C00073D828688003F7D50CE0FFF7F1FD0646E2
:1008D00005E000BFFFF7ECFD801B6428F0D8286816
:1008E0008003F7D42078DFF89C8280074FF0000A5D
:1008F0003ED5A348001D016811F00C0F08D0006818
:10090000C0F3810002280BD1D9F80000400207D4BF
:100910002868800716D5E068012800D112E02BE195
:10092000E068B8B10120C8F80000FFF7C1FD064635
:1009300005E000BFFFF7BCFD801B0228C0D8286877
:100940008007F7D52868216920F0F80040EAC10047
:1009500028600DE0C8F800A0FFF7AAFD064604E0F5
:10096000FFF7A6FD801B02281FD828688007F7D450
:100970002078000722D5824E83486169703671B1B4
:1009800001210160FFF794FD074604E0FFF790FDA9
:10099000C01B022809D830688007F7D50EE0C0F8E0
:1009A00000A0FFF785FD074605E082E0FFF780FD28
:1009B000C01B02287DD830688007F7D42078400714
:1009C00068D5DFF8BCB100270BF13C0BDBF8000069
:1009D000C0000BD4DBF8001041F08051CBF80010C0
:1009E000DBF80000012700F080500090674E30686F
:1009F000C00510D4306840F480703060FFF758FDB7
:100A0000009005E0FFF754FD0099401A022850D8E5
:100A10003068C005F6D55A4EA0686C3601280FD054
:100A20000528306810D020F001003060306820F0D8
:100A300004003060A068B8B1FFF73AFD00900FE005
:100A4000306840F00100F4E740F004003060F7E760
:100A5000FFF72EFD0099411A41F28830814266D895
:100A600030688007F4D50EE0FFF722FD009007E024
:100A7000FFF71EFD0099411A41F28830814256D895
:100A800030688007F4D42FB1DBF8001021F08051DA
:100A9000CBF80010A069C8B33949091D0968C1F332
:100AA000810102294AD00228504607D0C8F86000C8
:100AB00000E03CE0FFF7FCFC04463BE04746C8F89A
:100AC0006000FFF7F5FC064605E000BFFFF7F0FC0D
:100AD000801B02282BD828688001F7D4D4E90701AD
:100AE0000843A16A2A4A490802EB0141626A41EAC5
:100AF0008211084394F82C1040EA0161C9F80010F3
:100B000001203866FFF7D4FC044606E036E000BF5B
:100B1000FFF7CEFC001B022809D828688001F7D512
:100B20002CE000BFFFF7C4FC001B022802D9032001
:100B3000BDE8F88F28688001F4D41FE00128F7D0C1
:100B4000D9F80000E26900F48001914214D1226AD0
:100B500000F03F0191420FD147F6C071626A014037
:100B6000914209D1A26A00F44031914204D1E16A74
:100B700000F07060884201D00120D9E70020D7E75B
:100B80000438024000004742800E47420070004097
:100B90000000FFFF10B5401EB0F1807F01D301209F
:100BA00010BD4FF0E02460610F21601700F08CFA57
:100BB0000020A06107202061002010BD10B50400B6
:100BC00003D094F83D0010B107E0012010BD0020D3
:100BD00084F83C00204600F00CF8022084F83D0028
:100BE000211D206800F044F9012084F83D00002018
:100BF00010BD70470168CA6842F00102CA6000680F
:100C0000816801F00701062903D0016841F0010164
:100C100001600020704770B5040004D094F83900DA
:100C2000002510B106E0012070BD84F83850204640
:100C300000F022F8242084F839002068C16821F4EB
:100C40000051C160204600F0A1F92068016921F43B
:100C5000904101612068416921F02A0141612068C9
:100C6000C16841F40051C160E563202084F8390077
:100C700084F83A00002070BD10B500681A4986B0AB
:100C800088422FD11948016841F0010101600068D4
:100C900000F00100059015481430016841F0100182
:100CA00001600068012100F0100005904FF4007011
:100CB00000900220CDE90101039007200C4C049024
:100CC00069462046FFF704FB201500906946204640
:100CD000FFF7FEFA2520FFF74BFC0022022125201A
:100CE000FFF754FC06B010BD001001403038024040
:100CF00000000240FEE7FEE7FEE770477047FFF79F
:100D0000DDBB000030B593B030216846FFF7A2FA92
:100D100014210CA8FFF79EFA20480025016841F035
:100D200080510160006800F0805011901C480168FB
:100D300041F4404101600068022400F440401190F9
:100D400001200090000401908001CDE906401920A7
:100D500008904FF4B470CDE9090404200B90684664
:100D6000FFF76AFD08B172B6FEE7FFF741FC08B174
:100D700072B6FEE70CA90F2081E831004FF4A050B5
:100D80000F904FF48050109005210CA8FFF768FCDD
:100D9000002801D072B6FEE713B030BD40380240E3
:100DA000007000400548016841F47001016003498A
:100DB0004FF00060803908607047000088ED00E067
:100DC0002DE9F041254E3068C068C043C00737D1D7
:100DD00001212348FFF766FB224C0025012860888B
:100DE00030D0022802D30120207065801E4F0821D8
:100DF0003846FFF757FB0028A08826D0022802D3E8
:100E000002202070A58004213846FFF74BFB012803
:100E1000E0881DD0022802D303202070E5804FF423
:100E200000511248FFF73EFB0128208913D0022809
:100E300002D304202070258131686FF00100086121
:100E4000BDE8F081401C6080D0E7401CA080DAE75C
:100E5000401CE080E3E7401C2081EDE760000020BB
:100E60000000024010000020001C02400008024068
:100E7000F0B50268254C264D264E274F274B4FF0E4
:100E8000804CA04209D0604507D0A84205D0B042AE
:100E900003D0B84201D0984204D122F0700E4A68C3
:100EA00042EA0E02A0421BD0604519D0A84217D0DA
:100EB000B04215D0B84213D0984211D0184DA84274
:100EC0000ED0184DA8420BD0174DA84208D0174D90
:100ED000A84205D0164DA84202D0164DA84203D113
:100EE00022F44075CA682A434D6922F080022A43E1
:100EF00002608A68C2620A688262A04201D0984297
:100F000001D10969016301214161F0BD0000014087
:100F10000004004000080040000C004000040140B4
:100F200000400140004401400048014000180040DA
:100F3000001C00400020004038B5114A002314680E
:100F400044F00204146012680E4C02F00202009297
:100F50000D4A1460C2E9030320149061C2E9011331
:100F60001046FFF72BFE002203211D20FFF70EFB8A
:100F70001D20FFF7FDFABDE838400348FFF73ABEF1
:100F80004038024000040040600000202DE9F0419C
:100F9000044600680169E26821F44051114301618F
:100FA0002169A068E2690843616911430843216827
:100FB000CA6849F20C639A430243CA6020684169D7
:100FC000A26921F4407111434161E0691927642548
:100FD0003226B0F5004F354A354920684FF00008F9
:100FE00006D0884201D0904236D1FFF7E3FB35E0CE
:100FF000884201D0904202D1FFF7DCFB01E0FFF70D
:10100000C9FB61684A18A0FB070148EB0803FFF71A
:10101000E9F80146B0FBF5F00201B1FBF5F06FF025
:101020001803584301EB800006EBC000B0FBF5F05D
:1010300000F0F80002EB4002B1FBF5F0584301EB81
:10104000800006EBC000B0FBF5F000F0070021685F
:1010500010448860BDE8F081FFF79CFB61688B0F4E
:101060008A00A0FB0701FFF7BDF80146B0FBF5F0D1
:101070006FF01802504301EB800006EB0010B0FB4C
:10108000F5F000F0F002B1FBF5F002EB0012B1FB5D
:10109000F5F06FF01803584301EB800006EB0010E9
:1010A000B0FBF5F000F00F00D1E7000000140140A4
:1010B00000100140FEE70000014A024900F023B899
:1010C000291100081C0000200907090E002804DB74
:1010D00000F1E02080F80014704700F00F0000F1EC
:1010E000E02080F8141D704702E008C8121F08C1F4
:1010F000002AFAD170477047002001E001C1121F99
:10110000002AFBD170472DE9F04116460F460446F0
:10111000002503E03946B047641C6D1C2078002888
:10112000F8D12846BDE8F08103490A685206FCD58B
:10113000C2B24A60704700000010014030B51C4840
:1011400087B00024016841F001010160016801F0ED
:1011500001010591016841F004010160016801F09D
:1011600004010591016841F08001016000680125DA
:1011700000F080000590CDE9005469460D48FFF766
:10118000A7F808208DE831000B4C69462046FFF790
:101190009FF80420009069462046FFF799F86803FD
:1011A000009069460548FFF793F807B030BD00008E
:1011B0003038024000000240001C0240000802409B
:1011C00030B50E4887B0016841F002010160006847
:1011D000012400F0020005900220CDE90004032064
:1011E000CDE90240064D69462846FFF771F8694689
:1011F00028460094FFF76CF807B030BD3038024045
:101200000004024008B5FFF761F9FFF77BFD1748BE
:101210000025016841F080010160006800F0800055
:101220000090FFF7CDFF00F04FF8FFF787FF59213F
:1012300042F21070FFF780FE0D4C0EA02570FFF7F4
:101240003BFF207801280BD002280BD003280BD0BD
:101250000428F6D10FA000BFFFF72EFF2570F0E79E
:101260000FA0F9E712A0F7E714A0F5E73038024025
:101270001000002068656C6C6F6E2053544D333243
:10128000463432392D2D2D2D2D2D2D2D2D2D2D2D5D
:101290002D0D0A004B4559325F444F574E0D0A0041
:1012A0004B45595F55505F444F574E0D0A000000A3
:1012B0004B4559305F444F574E0D0A004B4559314D
:1012C0005F444F574E0D0A0010B50C4C0A480C21D4
:1012D00020604FF4E13060600020A060E060C4E96D
:1012E0000401A0612046FFF796FC2068C16841F028
:1012F0002001C16010BD000000100140200000204E
:1013000000000000000000000102030406070809B5
:101310000000000001020304381300080000002050
:1013200020000000E81000085813000820000020EA
:1013300080040000F8100008010000001000000008
:10134000000000000024F400000000000000000085
:08135000000000000000000095
:04000005080001AD41
:00000001FF
